{
  "_format": "hh-sol-artifact-1",
  "contractName": "PolicyNFT",
  "sourceName": "contracts/PolicyNFT.sol",
  "abi": [
    {
      "anonymous": false,
      "inputs": [
        {
          "indexed": false,
          "internalType": "address",
          "name": "previousAdmin",
          "type": "address"
        },
        {
          "indexed": false,
          "internalType": "address",
          "name": "newAdmin",
          "type": "address"
        }
      ],
      "name": "AdminChanged",
      "type": "event"
    },
    {
      "anonymous": false,
      "inputs": [
        {
          "indexed": true,
          "internalType": "address",
          "name": "owner",
          "type": "address"
        },
        {
          "indexed": true,
          "internalType": "address",
          "name": "approved",
          "type": "address"
        },
        {
          "indexed": true,
          "internalType": "uint256",
          "name": "tokenId",
          "type": "uint256"
        }
      ],
      "name": "Approval",
      "type": "event"
    },
    {
      "anonymous": false,
      "inputs": [
        {
          "indexed": true,
          "internalType": "address",
          "name": "owner",
          "type": "address"
        },
        {
          "indexed": true,
          "internalType": "address",
          "name": "operator",
          "type": "address"
        },
        {
          "indexed": false,
          "internalType": "bool",
          "name": "approved",
          "type": "bool"
        }
      ],
      "name": "ApprovalForAll",
      "type": "event"
    },
    {
      "anonymous": false,
      "inputs": [
        {
          "indexed": true,
          "internalType": "address",
          "name": "beacon",
          "type": "address"
        }
      ],
      "name": "BeaconUpgraded",
      "type": "event"
    },
    {
      "anonymous": false,
      "inputs": [
        {
          "indexed": true,
          "internalType": "enum IPolicyPoolConfig.GovernanceActions",
          "name": "action",
          "type": "uint8"
        },
        {
          "indexed": false,
          "internalType": "uint256",
          "name": "value",
          "type": "uint256"
        }
      ],
      "name": "GovernanceAction",
      "type": "event"
    },
    {
      "anonymous": false,
      "inputs": [
        {
          "indexed": false,
          "internalType": "address",
          "name": "account",
          "type": "address"
        }
      ],
      "name": "Paused",
      "type": "event"
    },
    {
      "anonymous": false,
      "inputs": [
        {
          "indexed": true,
          "internalType": "address",
          "name": "from",
          "type": "address"
        },
        {
          "indexed": true,
          "internalType": "address",
          "name": "to",
          "type": "address"
        },
        {
          "indexed": true,
          "internalType": "uint256",
          "name": "tokenId",
          "type": "uint256"
        }
      ],
      "name": "Transfer",
      "type": "event"
    },
    {
      "anonymous": false,
      "inputs": [
        {
          "indexed": false,
          "internalType": "address",
          "name": "account",
          "type": "address"
        }
      ],
      "name": "Unpaused",
      "type": "event"
    },
    {
      "anonymous": false,
      "inputs": [
        {
          "indexed": true,
          "internalType": "address",
          "name": "implementation",
          "type": "address"
        }
      ],
      "name": "Upgraded",
      "type": "event"
    },
    {
      "inputs": [],
      "name": "GUARDIAN_ROLE",
      "outputs": [
        {
          "internalType": "bytes32",
          "name": "",
          "type": "bytes32"
        }
      ],
      "stateMutability": "view",
      "type": "function"
    },
    {
      "inputs": [],
      "name": "LEVEL1_ROLE",
      "outputs": [
        {
          "internalType": "bytes32",
          "name": "",
          "type": "bytes32"
        }
      ],
      "stateMutability": "view",
      "type": "function"
    },
    {
      "inputs": [],
      "name": "LEVEL2_ROLE",
      "outputs": [
        {
          "internalType": "bytes32",
          "name": "",
          "type": "bytes32"
        }
      ],
      "stateMutability": "view",
      "type": "function"
    },
    {
      "inputs": [],
      "name": "LEVEL3_ROLE",
      "outputs": [
        {
          "internalType": "bytes32",
          "name": "",
          "type": "bytes32"
        }
      ],
      "stateMutability": "view",
      "type": "function"
    },
    {
      "inputs": [],
      "name": "TWEAK_EXPIRATION",
      "outputs": [
        {
          "internalType": "uint40",
          "name": "",
          "type": "uint40"
        }
      ],
      "stateMutability": "view",
      "type": "function"
    },
    {
      "inputs": [
        {
          "internalType": "address",
          "name": "to",
          "type": "address"
        },
        {
          "internalType": "uint256",
          "name": "tokenId",
          "type": "uint256"
        }
      ],
      "name": "approve",
      "outputs": [],
      "stateMutability": "nonpayable",
      "type": "function"
    },
    {
      "inputs": [
        {
          "internalType": "address",
          "name": "owner",
          "type": "address"
        }
      ],
      "name": "balanceOf",
      "outputs": [
        {
          "internalType": "uint256",
          "name": "",
          "type": "uint256"
        }
      ],
      "stateMutability": "view",
      "type": "function"
    },
    {
      "inputs": [],
      "name": "connect",
      "outputs": [],
      "stateMutability": "nonpayable",
      "type": "function"
    },
    {
      "inputs": [],
      "name": "currency",
      "outputs": [
        {
          "internalType": "contract IERC20Metadata",
          "name": "",
          "type": "address"
        }
      ],
      "stateMutability": "view",
      "type": "function"
    },
    {
      "inputs": [
        {
          "internalType": "uint256",
          "name": "tokenId",
          "type": "uint256"
        }
      ],
      "name": "getApproved",
      "outputs": [
        {
          "internalType": "address",
          "name": "",
          "type": "address"
        }
      ],
      "stateMutability": "view",
      "type": "function"
    },
    {
      "inputs": [
        {
          "internalType": "string",
          "name": "name_",
          "type": "string"
        },
        {
          "internalType": "string",
          "name": "symbol_",
          "type": "string"
        },
        {
          "internalType": "contract IPolicyPool",
          "name": "policyPool_",
          "type": "address"
        }
      ],
      "name": "initialize",
      "outputs": [],
      "stateMutability": "nonpayable",
      "type": "function"
    },
    {
      "inputs": [
        {
          "internalType": "address",
          "name": "owner",
          "type": "address"
        },
        {
          "internalType": "address",
          "name": "operator",
          "type": "address"
        }
      ],
      "name": "isApprovedForAll",
      "outputs": [
        {
          "internalType": "bool",
          "name": "",
          "type": "bool"
        }
      ],
      "stateMutability": "view",
      "type": "function"
    },
    {
      "inputs": [],
      "name": "lastTweak",
      "outputs": [
        {
          "internalType": "uint40",
          "name": "",
          "type": "uint40"
        },
        {
          "internalType": "uint56",
          "name": "",
          "type": "uint56"
        }
      ],
      "stateMutability": "view",
      "type": "function"
    },
    {
      "inputs": [],
      "name": "name",
      "outputs": [
        {
          "internalType": "string",
          "name": "",
          "type": "string"
        }
      ],
      "stateMutability": "view",
      "type": "function"
    },
    {
      "inputs": [
        {
          "internalType": "uint256",
          "name": "tokenId",
          "type": "uint256"
        }
      ],
      "name": "ownerOf",
      "outputs": [
        {
          "internalType": "address",
          "name": "",
          "type": "address"
        }
      ],
      "stateMutability": "view",
      "type": "function"
    },
    {
      "inputs": [],
      "name": "pause",
      "outputs": [],
      "stateMutability": "nonpayable",
      "type": "function"
    },
    {
      "inputs": [],
      "name": "paused",
      "outputs": [
        {
          "internalType": "bool",
          "name": "",
          "type": "bool"
        }
      ],
      "stateMutability": "view",
      "type": "function"
    },
    {
      "inputs": [],
      "name": "policyPool",
      "outputs": [
        {
          "internalType": "contract IPolicyPool",
          "name": "",
          "type": "address"
        }
      ],
      "stateMutability": "view",
      "type": "function"
    },
    {
      "inputs": [
        {
          "internalType": "address",
          "name": "to",
          "type": "address"
        }
      ],
      "name": "safeMint",
      "outputs": [
        {
          "internalType": "uint256",
          "name": "",
          "type": "uint256"
        }
      ],
      "stateMutability": "nonpayable",
      "type": "function"
    },
    {
      "inputs": [
        {
          "internalType": "address",
          "name": "from",
          "type": "address"
        },
        {
          "internalType": "address",
          "name": "to",
          "type": "address"
        },
        {
          "internalType": "uint256",
          "name": "tokenId",
          "type": "uint256"
        }
      ],
      "name": "safeTransferFrom",
      "outputs": [],
      "stateMutability": "nonpayable",
      "type": "function"
    },
    {
      "inputs": [
        {
          "internalType": "address",
          "name": "from",
          "type": "address"
        },
        {
          "internalType": "address",
          "name": "to",
          "type": "address"
        },
        {
          "internalType": "uint256",
          "name": "tokenId",
          "type": "uint256"
        },
        {
          "internalType": "bytes",
          "name": "_data",
          "type": "bytes"
        }
      ],
      "name": "safeTransferFrom",
      "outputs": [],
      "stateMutability": "nonpayable",
      "type": "function"
    },
    {
      "inputs": [
        {
          "internalType": "address",
          "name": "operator",
          "type": "address"
        },
        {
          "internalType": "bool",
          "name": "approved",
          "type": "bool"
        }
      ],
      "name": "setApprovalForAll",
      "outputs": [],
      "stateMutability": "nonpayable",
      "type": "function"
    },
    {
      "inputs": [
        {
          "internalType": "bytes4",
          "name": "interfaceId",
          "type": "bytes4"
        }
      ],
      "name": "supportsInterface",
      "outputs": [
        {
          "internalType": "bool",
          "name": "",
          "type": "bool"
        }
      ],
      "stateMutability": "view",
      "type": "function"
    },
    {
      "inputs": [],
      "name": "symbol",
      "outputs": [
        {
          "internalType": "string",
          "name": "",
          "type": "string"
        }
      ],
      "stateMutability": "view",
      "type": "function"
    },
    {
      "inputs": [
        {
          "internalType": "uint256",
          "name": "tokenId",
          "type": "uint256"
        }
      ],
      "name": "tokenURI",
      "outputs": [
        {
          "internalType": "string",
          "name": "",
          "type": "string"
        }
      ],
      "stateMutability": "view",
      "type": "function"
    },
    {
      "inputs": [
        {
          "internalType": "address",
          "name": "from",
          "type": "address"
        },
        {
          "internalType": "address",
          "name": "to",
          "type": "address"
        },
        {
          "internalType": "uint256",
          "name": "tokenId",
          "type": "uint256"
        }
      ],
      "name": "transferFrom",
      "outputs": [],
      "stateMutability": "nonpayable",
      "type": "function"
    },
    {
      "inputs": [],
      "name": "unpause",
      "outputs": [],
      "stateMutability": "nonpayable",
      "type": "function"
    },
    {
      "inputs": [
        {
          "internalType": "address",
          "name": "newImplementation",
          "type": "address"
        }
      ],
      "name": "upgradeTo",
      "outputs": [],
      "stateMutability": "nonpayable",
      "type": "function"
    },
    {
      "inputs": [
        {
          "internalType": "address",
          "name": "newImplementation",
          "type": "address"
        },
        {
          "internalType": "bytes",
          "name": "data",
          "type": "bytes"
        }
      ],
      "name": "upgradeToAndCall",
      "outputs": [],
      "stateMutability": "payable",
      "type": "function"
    }
  ],
  "bytecode": "0x60a06040523060601b60805234801561001757600080fd5b5060805160601c612ab161004b6000396000818161094e0152818161098e01528181610c170152610c570152612ab16000f3fe6080604052600436106101c25760003560e01c80634f1ef286116100f7578063948cb71911610095578063c87b56dd11610064578063c87b56dd1461053c578063e5a6b10f1461055c578063e985e9c514610571578063f67b2bad146105ba57600080fd5b8063948cb719146104d257806395d89b41146104e7578063a22cb465146104fc578063b88d4fde1461051c57600080fd5b80636352211e116100d15780636352211e1461045057806370a08231146104705780637ed5acfa146104905780638456cb59146104bd57600080fd5b80634f1ef286146103f15780635b494dd5146104045780635c975abb1461043857600080fd5b80633659cfe61161016457806342842e0e1161013e57806342842e0e1461033d578063468a8c9f1461035d5780634a47a3e01461039e5780634d15eb03146103d257600080fd5b80633659cfe6146102e85780633f4ba83a1461030857806340d097c31461031d57600080fd5b8063081812fc116101a0578063081812fc14610240578063095ea7b31461027857806323b872dd1461029857806324ea54f4146102b857600080fd5b806301ffc9a7146101c757806306fdde03146101fc578063077f224a1461021e575b600080fd5b3480156101d357600080fd5b506101e76101e2366004612576565b6105ee565b60405190151581526020015b60405180910390f35b34801561020857600080fd5b50610211610640565b6040516101f39190612712565b34801561022a57600080fd5b5061023e6102393660046125cd565b6106d2565b005b34801561024c57600080fd5b5061026061025b366004612645565b610767565b6040516001600160a01b0390911681526020016101f3565b34801561028457600080fd5b5061023e61029336600461254a565b6107fc565b3480156102a457600080fd5b5061023e6102b336600461241a565b610912565b3480156102c457600080fd5b506102da600080516020612a5c83398151915281565b6040519081526020016101f3565b3480156102f457600080fd5b5061023e6103033660046123c4565b610943565b34801561031457600080fd5b5061023e610a0c565b34801561032957600080fd5b506102da6103383660046123c4565b610b36565b34801561034957600080fd5b5061023e61035836600461241a565b610bf1565b34801561036957600080fd5b5061012d5460408051600160a01b830464ffffffffff168152600160c81b90920466ffffffffffffff166020830152016101f3565b3480156103aa57600080fd5b506102da7fa82e22387fca439f316d78ca566f383218ab8ae1b3e830178c9c82cbd16749c081565b3480156103de57600080fd5b5061012d546001600160a01b0316610260565b61023e6103ff3660046124fa565b610c0c565b34801561041057600080fd5b506102da7f5ec196419322369c6bac572d883f4d990ae5ec82f7d93cdf89b85dbb05b63c2781565b34801561044457600080fd5b5060fb5460ff166101e7565b34801561045c57600080fd5b5061026061046b366004612645565b610cc2565b34801561047c57600080fd5b506102da61048b3660046123c4565b610d39565b34801561049c57600080fd5b506104a76201518081565b60405164ffffffffff90911681526020016101f3565b3480156104c957600080fd5b5061023e610dc0565b3480156104de57600080fd5b5061023e610eb3565b3480156104f357600080fd5b50610211610f38565b34801561050857600080fd5b5061023e6105173660046124c7565b610f47565b34801561052857600080fd5b5061023e61053736600461245b565b61100c565b34801561054857600080fd5b50610211610557366004612645565b61103e565b34801561056857600080fd5b50610260611126565b34801561057d57600080fd5b506101e761058c3660046123e1565b6001600160a01b03918216600090815260ce6020908152604080832093909416825291909152205460ff1690565b3480156105c657600080fd5b506102da7fbf372ca3ebecfe59ac256f17697941bbe63302aced610e8b0e3646f743c7beb281565b60006001600160e01b031982166380ac58cd60e01b148061061f57506001600160e01b03198216635b5e139f60e01b145b8061063a57506301ffc9a760e01b6001600160e01b03198316145b92915050565b606060c9805461064f90612947565b80601f016020809104026020016040519081016040528092919081815260200182805461067b90612947565b80156106c85780601f1061069d576101008083540402835291602001916106c8565b820191906000526020600020905b8154815290600101906020018083116106ab57829003601f168201915b5050505050905090565b600054610100900460ff16806106eb575060005460ff16155b6107105760405162461bcd60e51b815260040161070790612839565b60405180910390fd5b600054610100900460ff16158015610732576000805461ffff19166101011790555b61073c84846111a9565b6107466000611230565b61074f826112b5565b8015610761576000805461ff00191690555b50505050565b600081815260cb60205260408120546001600160a01b03166107e05760405162461bcd60e51b815260206004820152602c60248201527f4552433732313a20617070726f76656420717565727920666f72206e6f6e657860448201526b34b9ba32b73a103a37b5b2b760a11b6064820152608401610707565b50600090815260cd60205260409020546001600160a01b031690565b600061080782610cc2565b9050806001600160a01b0316836001600160a01b031614156108755760405162461bcd60e51b815260206004820152602160248201527f4552433732313a20617070726f76616c20746f2063757272656e74206f776e656044820152603960f91b6064820152608401610707565b336001600160a01b03821614806108915750610891813361058c565b6109035760405162461bcd60e51b815260206004820152603860248201527f4552433732313a20617070726f76652063616c6c6572206973206e6f74206f7760448201527f6e6572206e6f7220617070726f76656420666f7220616c6c00000000000000006064820152608401610707565b61090d8383611337565b505050565b61091c33826113a5565b6109385760405162461bcd60e51b815260040161070790612887565b61090d83838361149c565b306001600160a01b037f000000000000000000000000000000000000000000000000000000000000000016141561098c5760405162461bcd60e51b815260040161070790612777565b7f00000000000000000000000000000000000000000000000000000000000000006001600160a01b03166109be611647565b6001600160a01b0316146109e45760405162461bcd60e51b8152600401610707906127c3565b6109ed81611675565b60408051600080825260208201909252610a0991839190611798565b50565b600080516020612a5c8339815191527fbf372ca3ebecfe59ac256f17697941bbe63302aced610e8b0e3646f743c7beb261012d60009054906101000a90046001600160a01b03166001600160a01b03166379502c556040518163ffffffff1660e01b815260040160206040518083038186803b158015610a8b57600080fd5b505afa158015610a9f573d6000803e3d6000fd5b505050506040513d601f19601f82011682018060405250810190610ac391906125b0565b60405163c5b8f5cf60e01b815260048101849052602481018390523360448201526001600160a01b03919091169063c5b8f5cf9060640160006040518083038186803b158015610b1257600080fd5b505afa158015610b26573d6000803e3d6000fd5b50505050610b326118e3565b5050565b61012d546000906001600160a01b0316336001600160a01b031614610ba75760405162461bcd60e51b815260206004820152602160248201527f5468652063616c6c6572206d7573742062652074686520506f6c696379506f6f6044820152601b60fa1b6064820152608401610707565b60fb5460ff1615610bca5760405162461bcd60e51b81526004016107079061280f565b6000610bd661012e5490565b9050610be28382611976565b61063a61012e80546001019055565b61090d8383836040518060200160405280600081525061100c565b306001600160a01b037f0000000000000000000000000000000000000000000000000000000000000000161415610c555760405162461bcd60e51b815260040161070790612777565b7f00000000000000000000000000000000000000000000000000000000000000006001600160a01b0316610c87611647565b6001600160a01b031614610cad5760405162461bcd60e51b8152600401610707906127c3565b610cb682611675565b610b3282826001611798565b600081815260cb60205260408120546001600160a01b03168061063a5760405162461bcd60e51b815260206004820152602960248201527f4552433732313a206f776e657220717565727920666f72206e6f6e657869737460448201526832b73a103a37b5b2b760b91b6064820152608401610707565b60006001600160a01b038216610da45760405162461bcd60e51b815260206004820152602a60248201527f4552433732313a2062616c616e636520717565727920666f7220746865207a65604482015269726f206164647265737360b01b6064820152608401610707565b506001600160a01b0316600090815260cc602052604090205490565b61012d54604080516379502c5560e01b81529051600080516020612a5c833981519152926001600160a01b0316916379502c55916004808301926020929190829003018186803b158015610e1357600080fd5b505afa158015610e27573d6000803e3d6000fd5b505050506040513d601f19601f82011682018060405250810190610e4b91906125b0565b6040516312d9a6ad60e01b8152600481018390523360248201526001600160a01b0391909116906312d9a6ad9060440160006040518083038186803b158015610e9357600080fd5b505afa158015610ea7573d6000803e3d6000fd5b50505050610a09611990565b61012d546001600160a01b03161580610ed7575061012d546001600160a01b031633145b610f235760405162461bcd60e51b815260206004820152601c60248201527f506f6c696379506f6f6c20616c726561647920636f6e6e6563746564000000006044820152606401610707565b61012d80546001600160a01b03191633179055565b606060ca805461064f90612947565b6001600160a01b038216331415610fa05760405162461bcd60e51b815260206004820152601960248201527f4552433732313a20617070726f766520746f2063616c6c6572000000000000006044820152606401610707565b33600081815260ce602090815260408083206001600160a01b03871680855290835292819020805460ff191686151590811790915590519081529192917f17307eab39ab6107e8899845ad3d59bd9653f200f220920489ca2b5937696c31910160405180910390a35050565b61101633836113a5565b6110325760405162461bcd60e51b815260040161070790612887565b610761848484846119e8565b600081815260cb60205260409020546060906001600160a01b03166110bd5760405162461bcd60e51b815260206004820152602f60248201527f4552433732314d657461646174613a2055524920717565727920666f72206e6f60448201526e3732bc34b9ba32b73a103a37b5b2b760891b6064820152608401610707565b60006110d460408051602081019091526000815290565b905060008151116110f4576040518060200160405280600081525061111f565b806110fe84611a1b565b60405160200161110f9291906126a6565b6040516020818303038152906040525b9392505050565b61012d546040805163e5a6b10f60e01b815290516000926001600160a01b03169163e5a6b10f916004808301926020929190829003018186803b15801561116c57600080fd5b505afa158015611180573d6000803e3d6000fd5b505050506040513d601f19601f820116820180604052508101906111a491906125b0565b905090565b600054610100900460ff16806111c2575060005460ff16155b6111de5760405162461bcd60e51b815260040161070790612839565b600054610100900460ff16158015611200576000805461ffff19166101011790555b611208611b19565b611210611b19565b61121a8383611b84565b801561090d576000805461ff0019169055505050565b600054610100900460ff1680611249575060005460ff16155b6112655760405162461bcd60e51b815260040161070790612839565b600054610100900460ff16158015611287576000805461ffff19166101011790555b61128f611c19565b611297611c80565b6112a082611ce7565b8015610b32576000805461ff00191690555050565b600054610100900460ff16806112ce575060005460ff16155b6112ea5760405162461bcd60e51b815260040161070790612839565b600054610100900460ff1615801561130c576000805461ffff19166101011790555b61012d80546001600160a01b0319166001600160a01b03841617905561012e805460010190556112a0565b600081815260cd6020526040902080546001600160a01b0319166001600160a01b038416908117909155819061136c82610cc2565b6001600160a01b03167f8c5be1e5ebec7d5bd14f71427d1e84f3dd0314c0f7b2291e5b200ac8c7c3b92560405160405180910390a45050565b600081815260cb60205260408120546001600160a01b031661141e5760405162461bcd60e51b815260206004820152602c60248201527f4552433732313a206f70657261746f7220717565727920666f72206e6f6e657860448201526b34b9ba32b73a103a37b5b2b760a11b6064820152608401610707565b600061142983610cc2565b9050806001600160a01b0316846001600160a01b031614806114645750836001600160a01b031661145984610767565b6001600160a01b0316145b8061149457506001600160a01b03808216600090815260ce602090815260408083209388168352929052205460ff165b949350505050565b826001600160a01b03166114af82610cc2565b6001600160a01b0316146115175760405162461bcd60e51b815260206004820152602960248201527f4552433732313a207472616e73666572206f6620746f6b656e2074686174206960448201526839903737ba1037bbb760b91b6064820152608401610707565b6001600160a01b0382166115795760405162461bcd60e51b8152602060048201526024808201527f4552433732313a207472616e7366657220746f20746865207a65726f206164646044820152637265737360e01b6064820152608401610707565b611584838383611d6f565b61158f600082611337565b6001600160a01b038316600090815260cc602052604081208054600192906115b8908490612904565b90915550506001600160a01b038216600090815260cc602052604081208054600192906115e69084906128d8565b9091555050600081815260cb602052604080822080546001600160a01b0319166001600160a01b0386811691821790925591518493918716917fddf252ad1be2c89b69c2b068fc378daa952ba7f163c4a11628f55a4df523b3ef91a4505050565b7f360894a13ba1a3210667c828492db98dca3e2076cc3735a920a3ca505d382bbc546001600160a01b031690565b600080516020612a5c8339815191527fbf372ca3ebecfe59ac256f17697941bbe63302aced610e8b0e3646f743c7beb261012d60009054906101000a90046001600160a01b03166001600160a01b03166379502c556040518163ffffffff1660e01b815260040160206040518083038186803b1580156116f457600080fd5b505afa158015611708573d6000803e3d6000fd5b505050506040513d601f19601f8201168201806040525081019061172c91906125b0565b60405163c5b8f5cf60e01b815260048101849052602481018390523360448201526001600160a01b03919091169063c5b8f5cf9060640160006040518083038186803b15801561177b57600080fd5b505afa15801561178f573d6000803e3d6000fd5b50505050505050565b60006117a2611647565b90506117ad84611d92565b6000835111806117ba5750815b156117cb576117c98484611e37565b505b7f4910fdfa16fed3260ed0e7147f7cc6da11a60208b5b9406d12a635614ffd9143805460ff166118dc57805460ff191660011781556040516001600160a01b038316602482015261184a90869060440160408051601f198184030181529190526020810180516001600160e01b0316631b2ce7f360e11b179052611e37565b50805460ff1916815561185b611647565b6001600160a01b0316826001600160a01b0316146118d35760405162461bcd60e51b815260206004820152602f60248201527f45524331393637557067726164653a207570677261646520627265616b73206660448201526e75727468657220757067726164657360881b6064820152608401610707565b6118dc85611f22565b5050505050565b60fb5460ff1661192c5760405162461bcd60e51b815260206004820152601460248201527314185d5cd8589b194e881b9bdd081c185d5cd95960621b6044820152606401610707565b60fb805460ff191690557f5db9ee0a495bf2e6ff9c91a7834c1ba4fdd244a5e8aa4e537bd38aeae4b073aa335b6040516001600160a01b03909116815260200160405180910390a1565b610b32828260405180602001604052806000815250611f62565b60fb5460ff16156119b35760405162461bcd60e51b81526004016107079061280f565b60fb805460ff191660011790557f62e78cea01bee320cd4e420270b5ea74000d11b0c9f74754ebdbfc544b05a2586119593390565b6119f384848461149c565b6119ff84848484611f95565b6107615760405162461bcd60e51b815260040161070790612725565b606081611a3f5750506040805180820190915260018152600360fc1b602082015290565b8160005b8115611a695780611a5381612982565b9150611a629050600a836128f0565b9150611a43565b60008167ffffffffffffffff811115611a8457611a846129f3565b6040519080825280601f01601f191660200182016040528015611aae576020820181803683370190505b5090505b841561149457611ac3600183612904565b9150611ad0600a8661299d565b611adb9060306128d8565b60f81b818381518110611af057611af06129dd565b60200101906001600160f81b031916908160001a905350611b12600a866128f0565b9450611ab2565b600054610100900460ff1680611b32575060005460ff16155b611b4e5760405162461bcd60e51b815260040161070790612839565b600054610100900460ff16158015611b70576000805461ffff19166101011790555b8015610a09576000805461ff001916905550565b600054610100900460ff1680611b9d575060005460ff16155b611bb95760405162461bcd60e51b815260040161070790612839565b600054610100900460ff16158015611bdb576000805461ffff19166101011790555b8251611bee9060c990602086019061229e565b508151611c029060ca90602085019061229e565b50801561090d576000805461ff0019169055505050565b600054610100900460ff1680611c32575060005460ff16155b611c4e5760405162461bcd60e51b815260040161070790612839565b600054610100900460ff16158015611c70576000805461ffff19166101011790555b611c78611b19565b611b70611b19565b600054610100900460ff1680611c99575060005460ff16155b611cb55760405162461bcd60e51b815260040161070790612839565b600054610100900460ff16158015611cd7576000805461ffff19166101011790555b611cdf611b19565b611b706120a2565b600054610100900460ff1680611d00575060005460ff16155b611d1c5760405162461bcd60e51b815260040161070790612839565b600054610100900460ff16158015611d3e576000805461ffff19166101011790555b61012d80546001600160a01b0319166001600160a01b0384161790558015610b32576000805461ff00191690555050565b60fb5460ff161561090d5760405162461bcd60e51b81526004016107079061280f565b803b611df65760405162461bcd60e51b815260206004820152602d60248201527f455243313936373a206e657720696d706c656d656e746174696f6e206973206e60448201526c1bdd08184818dbdb9d1c9858dd609a1b6064820152608401610707565b7f360894a13ba1a3210667c828492db98dca3e2076cc3735a920a3ca505d382bbc80546001600160a01b0319166001600160a01b0392909216919091179055565b6060823b611e965760405162461bcd60e51b815260206004820152602660248201527f416464726573733a2064656c65676174652063616c6c20746f206e6f6e2d636f6044820152651b9d1c9858dd60d21b6064820152608401610707565b600080846001600160a01b031684604051611eb1919061268a565b600060405180830381855af49150503d8060008114611eec576040519150601f19603f3d011682016040523d82523d6000602084013e611ef1565b606091505b5091509150611f198282604051806060016040528060278152602001612a3560279139612117565b95945050505050565b611f2b81611d92565b6040516001600160a01b038216907fbc7cd75a20ee27fd9adebab32041f755214dbc6bffa90cc0225b39da2e5c2d3b90600090a250565b611f6c8383612150565b611f796000848484611f95565b61090d5760405162461bcd60e51b815260040161070790612725565b60006001600160a01b0384163b1561209757604051630a85bd0160e11b81526001600160a01b0385169063150b7a0290611fd99033908990889088906004016126d5565b602060405180830381600087803b158015611ff357600080fd5b505af1925050508015612023575060408051601f3d908101601f1916820190925261202091810190612593565b60015b61207d573d808015612051576040519150601f19603f3d011682016040523d82523d6000602084013e612056565b606091505b5080516120755760405162461bcd60e51b815260040161070790612725565b805181602001fd5b6001600160e01b031916630a85bd0160e11b149050611494565b506001949350505050565b600054610100900460ff16806120bb575060005460ff16155b6120d75760405162461bcd60e51b815260040161070790612839565b600054610100900460ff161580156120f9576000805461ffff19166101011790555b60fb805460ff191690558015610a09576000805461ff001916905550565b6060831561212657508161111f565b8251156121365782518084602001fd5b8160405162461bcd60e51b81526004016107079190612712565b6001600160a01b0382166121a65760405162461bcd60e51b815260206004820181905260248201527f4552433732313a206d696e7420746f20746865207a65726f20616464726573736044820152606401610707565b600081815260cb60205260409020546001600160a01b03161561220b5760405162461bcd60e51b815260206004820152601c60248201527f4552433732313a20746f6b656e20616c7265616479206d696e746564000000006044820152606401610707565b61221760008383611d6f565b6001600160a01b038216600090815260cc602052604081208054600192906122409084906128d8565b9091555050600081815260cb602052604080822080546001600160a01b0319166001600160a01b03861690811790915590518392907fddf252ad1be2c89b69c2b068fc378daa952ba7f163c4a11628f55a4df523b3ef908290a45050565b8280546122aa90612947565b90600052602060002090601f0160209004810192826122cc5760008555612312565b82601f106122e557805160ff1916838001178555612312565b82800160010185558215612312579182015b828111156123125782518255916020019190600101906122f7565b5061231e929150612322565b5090565b5b8082111561231e5760008155600101612323565b600082601f83011261234857600080fd5b813567ffffffffffffffff80821115612363576123636129f3565b604051601f8301601f19908116603f0116810190828211818310171561238b5761238b6129f3565b816040528381528660208588010111156123a457600080fd5b836020870160208301376000602085830101528094505050505092915050565b6000602082840312156123d657600080fd5b813561111f81612a09565b600080604083850312156123f457600080fd5b82356123ff81612a09565b9150602083013561240f81612a09565b809150509250929050565b60008060006060848603121561242f57600080fd5b833561243a81612a09565b9250602084013561244a81612a09565b929592945050506040919091013590565b6000806000806080858703121561247157600080fd5b843561247c81612a09565b9350602085013561248c81612a09565b925060408501359150606085013567ffffffffffffffff8111156124af57600080fd5b6124bb87828801612337565b91505092959194509250565b600080604083850312156124da57600080fd5b82356124e581612a09565b91506020830135801515811461240f57600080fd5b6000806040838503121561250d57600080fd5b823561251881612a09565b9150602083013567ffffffffffffffff81111561253457600080fd5b61254085828601612337565b9150509250929050565b6000806040838503121561255d57600080fd5b823561256881612a09565b946020939093013593505050565b60006020828403121561258857600080fd5b813561111f81612a1e565b6000602082840312156125a557600080fd5b815161111f81612a1e565b6000602082840312156125c257600080fd5b815161111f81612a09565b6000806000606084860312156125e257600080fd5b833567ffffffffffffffff808211156125fa57600080fd5b61260687838801612337565b9450602086013591508082111561261c57600080fd5b5061262986828701612337565b925050604084013561263a81612a09565b809150509250925092565b60006020828403121561265757600080fd5b5035919050565b6000815180845261267681602086016020860161291b565b601f01601f19169290920160200192915050565b6000825161269c81846020870161291b565b9190910192915050565b600083516126b881846020880161291b565b8351908301906126cc81836020880161291b565b01949350505050565b6001600160a01b03858116825284166020820152604081018390526080606082018190526000906127089083018461265e565b9695505050505050565b60208152600061111f602083018461265e565b60208082526032908201527f4552433732313a207472616e7366657220746f206e6f6e20455243373231526560408201527131b2b4bb32b91034b6b83632b6b2b73a32b960711b606082015260800190565b6020808252602c908201527f46756e6374696f6e206d7573742062652063616c6c6564207468726f7567682060408201526b19195b1959d85d1958d85b1b60a21b606082015260800190565b6020808252602c908201527f46756e6374696f6e206d7573742062652063616c6c6564207468726f7567682060408201526b6163746976652070726f787960a01b606082015260800190565b60208082526010908201526f14185d5cd8589b194e881c185d5cd95960821b604082015260600190565b6020808252602e908201527f496e697469616c697a61626c653a20636f6e747261637420697320616c72656160408201526d191e481a5b9a5d1a585b1a5e995960921b606082015260800190565b60208082526031908201527f4552433732313a207472616e736665722063616c6c6572206973206e6f74206f6040820152701ddb995c881b9bdc88185c1c1c9bdd9959607a1b606082015260800190565b600082198211156128eb576128eb6129b1565b500190565b6000826128ff576128ff6129c7565b500490565b600082821015612916576129166129b1565b500390565b60005b8381101561293657818101518382015260200161291e565b838111156107615750506000910152565b600181811c9082168061295b57607f821691505b6020821081141561297c57634e487b7160e01b600052602260045260246000fd5b50919050565b6000600019821415612996576129966129b1565b5060010190565b6000826129ac576129ac6129c7565b500690565b634e487b7160e01b600052601160045260246000fd5b634e487b7160e01b600052601260045260246000fd5b634e487b7160e01b600052603260045260246000fd5b634e487b7160e01b600052604160045260246000fd5b6001600160a01b0381168114610a0957600080fd5b6001600160e01b031981168114610a0957600080fdfe416464726573733a206c6f772d6c6576656c2064656c65676174652063616c6c206661696c656455435dd261a4b9b3364963f7738a7a662ad9c84396d64be3365284bb7f0a5041a2646970667358221220bddf5611febd7bc5a41bb968ca11ffa2405379ccf136ae5e27f67dd51c17893964736f6c63430008060033",
  "linkReferences": {},
  "deployedLinkReferences": {}
}