{
  "_format": "hh-sol-artifact-1",
  "contractName": "MessageProxyForSchain",
  "sourceName": "contracts/schain/MessageProxyForSchain.sol",
  "abi": [
    {
      "anonymous": false,
      "inputs": [
        {
          "indexed": false,
          "internalType": "uint256",
          "name": "oldValue",
          "type": "uint256"
        },
        {
          "indexed": false,
          "internalType": "uint256",
          "name": "newValue",
          "type": "uint256"
        }
      ],
      "name": "GasLimitWasChanged",
      "type": "event"
    },
    {
      "anonymous": false,
      "inputs": [
        {
          "indexed": true,
          "internalType": "bytes32",
          "name": "dstChainHash",
          "type": "bytes32"
        },
        {
          "indexed": true,
          "internalType": "uint256",
          "name": "msgCounter",
          "type": "uint256"
        },
        {
          "indexed": true,
          "internalType": "address",
          "name": "srcContract",
          "type": "address"
        },
        {
          "indexed": false,
          "internalType": "address",
          "name": "dstContract",
          "type": "address"
        },
        {
          "indexed": false,
          "internalType": "bytes",
          "name": "data",
          "type": "bytes"
        }
      ],
      "name": "OutgoingMessage",
      "type": "event"
    },
    {
      "anonymous": false,
      "inputs": [
        {
          "indexed": true,
          "internalType": "uint256",
          "name": "msgCounter",
          "type": "uint256"
        },
        {
          "indexed": false,
          "internalType": "bytes",
          "name": "message",
          "type": "bytes"
        }
      ],
      "name": "PostMessageError",
      "type": "event"
    },
    {
      "anonymous": false,
      "inputs": [
        {
          "indexed": true,
          "internalType": "bytes32",
          "name": "role",
          "type": "bytes32"
        },
        {
          "indexed": true,
          "internalType": "bytes32",
          "name": "previousAdminRole",
          "type": "bytes32"
        },
        {
          "indexed": true,
          "internalType": "bytes32",
          "name": "newAdminRole",
          "type": "bytes32"
        }
      ],
      "name": "RoleAdminChanged",
      "type": "event"
    },
    {
      "anonymous": false,
      "inputs": [
        {
          "indexed": true,
          "internalType": "bytes32",
          "name": "role",
          "type": "bytes32"
        },
        {
          "indexed": true,
          "internalType": "address",
          "name": "account",
          "type": "address"
        },
        {
          "indexed": true,
          "internalType": "address",
          "name": "sender",
          "type": "address"
        }
      ],
      "name": "RoleGranted",
      "type": "event"
    },
    {
      "anonymous": false,
      "inputs": [
        {
          "indexed": true,
          "internalType": "bytes32",
          "name": "role",
          "type": "bytes32"
        },
        {
          "indexed": true,
          "internalType": "address",
          "name": "account",
          "type": "address"
        },
        {
          "indexed": true,
          "internalType": "address",
          "name": "sender",
          "type": "address"
        }
      ],
      "name": "RoleRevoked",
      "type": "event"
    },
    {
      "inputs": [],
      "name": "CHAIN_CONNECTOR_ROLE",
      "outputs": [
        {
          "internalType": "bytes32",
          "name": "",
          "type": "bytes32"
        }
      ],
      "stateMutability": "view",
      "type": "function"
    },
    {
      "inputs": [],
      "name": "CONSTANT_SETTER_ROLE",
      "outputs": [
        {
          "internalType": "bytes32",
          "name": "",
          "type": "bytes32"
        }
      ],
      "stateMutability": "view",
      "type": "function"
    },
    {
      "inputs": [],
      "name": "DEFAULT_ADMIN_ROLE",
      "outputs": [
        {
          "internalType": "bytes32",
          "name": "",
          "type": "bytes32"
        }
      ],
      "stateMutability": "view",
      "type": "function"
    },
    {
      "inputs": [],
      "name": "EXTRA_CONTRACT_REGISTRAR_ROLE",
      "outputs": [
        {
          "internalType": "bytes32",
          "name": "",
          "type": "bytes32"
        }
      ],
      "stateMutability": "view",
      "type": "function"
    },
    {
      "inputs": [],
      "name": "MAINNET_HASH",
      "outputs": [
        {
          "internalType": "bytes32",
          "name": "",
          "type": "bytes32"
        }
      ],
      "stateMutability": "view",
      "type": "function"
    },
    {
      "inputs": [],
      "name": "MESSAGES_LENGTH",
      "outputs": [
        {
          "internalType": "uint256",
          "name": "",
          "type": "uint256"
        }
      ],
      "stateMutability": "view",
      "type": "function"
    },
    {
      "inputs": [
        {
          "internalType": "string",
          "name": "chainName",
          "type": "string"
        }
      ],
      "name": "addConnectedChain",
      "outputs": [],
      "stateMutability": "nonpayable",
      "type": "function"
    },
    {
      "inputs": [
        {
          "internalType": "bytes32",
          "name": "",
          "type": "bytes32"
        }
      ],
      "name": "connectedChains",
      "outputs": [
        {
          "internalType": "uint256",
          "name": "incomingMessageCounter",
          "type": "uint256"
        },
        {
          "internalType": "uint256",
          "name": "outgoingMessageCounter",
          "type": "uint256"
        },
        {
          "internalType": "bool",
          "name": "inited",
          "type": "bool"
        }
      ],
      "stateMutability": "view",
      "type": "function"
    },
    {
      "inputs": [],
      "name": "gasLimit",
      "outputs": [
        {
          "internalType": "uint256",
          "name": "",
          "type": "uint256"
        }
      ],
      "stateMutability": "view",
      "type": "function"
    },
    {
      "inputs": [
        {
          "internalType": "string",
          "name": "fromSchainName",
          "type": "string"
        }
      ],
      "name": "getIncomingMessagesCounter",
      "outputs": [
        {
          "internalType": "uint256",
          "name": "",
          "type": "uint256"
        }
      ],
      "stateMutability": "view",
      "type": "function"
    },
    {
      "inputs": [
        {
          "internalType": "string",
          "name": "targetSchainName",
          "type": "string"
        }
      ],
      "name": "getOutgoingMessagesCounter",
      "outputs": [
        {
          "internalType": "uint256",
          "name": "",
          "type": "uint256"
        }
      ],
      "stateMutability": "view",
      "type": "function"
    },
    {
      "inputs": [
        {
          "internalType": "bytes32",
          "name": "role",
          "type": "bytes32"
        }
      ],
      "name": "getRoleAdmin",
      "outputs": [
        {
          "internalType": "bytes32",
          "name": "",
          "type": "bytes32"
        }
      ],
      "stateMutability": "view",
      "type": "function"
    },
    {
      "inputs": [
        {
          "internalType": "bytes32",
          "name": "role",
          "type": "bytes32"
        },
        {
          "internalType": "uint256",
          "name": "index",
          "type": "uint256"
        }
      ],
      "name": "getRoleMember",
      "outputs": [
        {
          "internalType": "address",
          "name": "",
          "type": "address"
        }
      ],
      "stateMutability": "view",
      "type": "function"
    },
    {
      "inputs": [
        {
          "internalType": "bytes32",
          "name": "role",
          "type": "bytes32"
        }
      ],
      "name": "getRoleMemberCount",
      "outputs": [
        {
          "internalType": "uint256",
          "name": "",
          "type": "uint256"
        }
      ],
      "stateMutability": "view",
      "type": "function"
    },
    {
      "inputs": [
        {
          "internalType": "bytes32",
          "name": "role",
          "type": "bytes32"
        },
        {
          "internalType": "address",
          "name": "account",
          "type": "address"
        }
      ],
      "name": "grantRole",
      "outputs": [],
      "stateMutability": "nonpayable",
      "type": "function"
    },
    {
      "inputs": [
        {
          "internalType": "bytes32",
          "name": "role",
          "type": "bytes32"
        },
        {
          "internalType": "address",
          "name": "account",
          "type": "address"
        }
      ],
      "name": "hasRole",
      "outputs": [
        {
          "internalType": "bool",
          "name": "",
          "type": "bool"
        }
      ],
      "stateMutability": "view",
      "type": "function"
    },
    {
      "inputs": [
        {
          "internalType": "contract KeyStorage",
          "name": "blsKeyStorage",
          "type": "address"
        },
        {
          "internalType": "string",
          "name": "schainName",
          "type": "string"
        }
      ],
      "name": "initialize",
      "outputs": [],
      "stateMutability": "nonpayable",
      "type": "function"
    },
    {
      "inputs": [
        {
          "internalType": "uint256",
          "name": "newGasLimit",
          "type": "uint256"
        }
      ],
      "name": "initializeMessageProxy",
      "outputs": [],
      "stateMutability": "nonpayable",
      "type": "function"
    },
    {
      "inputs": [
        {
          "internalType": "string",
          "name": "schainName",
          "type": "string"
        }
      ],
      "name": "isConnectedChain",
      "outputs": [
        {
          "internalType": "bool",
          "name": "",
          "type": "bool"
        }
      ],
      "stateMutability": "view",
      "type": "function"
    },
    {
      "inputs": [
        {
          "internalType": "string",
          "name": "schainName",
          "type": "string"
        },
        {
          "internalType": "address",
          "name": "contractAddress",
          "type": "address"
        }
      ],
      "name": "isContractRegistered",
      "outputs": [
        {
          "internalType": "bool",
          "name": "",
          "type": "bool"
        }
      ],
      "stateMutability": "view",
      "type": "function"
    },
    {
      "inputs": [],
      "name": "keyStorage",
      "outputs": [
        {
          "internalType": "contract KeyStorage",
          "name": "",
          "type": "address"
        }
      ],
      "stateMutability": "view",
      "type": "function"
    },
    {
      "inputs": [
        {
          "internalType": "string",
          "name": "fromChainName",
          "type": "string"
        },
        {
          "internalType": "uint256",
          "name": "startingCounter",
          "type": "uint256"
        },
        {
          "components": [
            {
              "internalType": "address",
              "name": "sender",
              "type": "address"
            },
            {
              "internalType": "address",
              "name": "destinationContract",
              "type": "address"
            },
            {
              "internalType": "bytes",
              "name": "data",
              "type": "bytes"
            }
          ],
          "internalType": "struct MessageProxy.Message[]",
          "name": "messages",
          "type": "tuple[]"
        },
        {
          "components": [
            {
              "internalType": "uint256[2]",
              "name": "blsSignature",
              "type": "uint256[2]"
            },
            {
              "internalType": "uint256",
              "name": "hashA",
              "type": "uint256"
            },
            {
              "internalType": "uint256",
              "name": "hashB",
              "type": "uint256"
            },
            {
              "internalType": "uint256",
              "name": "counter",
              "type": "uint256"
            }
          ],
          "internalType": "struct MessageProxy.Signature",
          "name": "signature",
          "type": "tuple"
        }
      ],
      "name": "postIncomingMessages",
      "outputs": [],
      "stateMutability": "nonpayable",
      "type": "function"
    },
    {
      "inputs": [
        {
          "internalType": "bytes32",
          "name": "targetChainHash",
          "type": "bytes32"
        },
        {
          "internalType": "address",
          "name": "targetContract",
          "type": "address"
        },
        {
          "internalType": "bytes",
          "name": "data",
          "type": "bytes"
        }
      ],
      "name": "postOutgoingMessage",
      "outputs": [],
      "stateMutability": "nonpayable",
      "type": "function"
    },
    {
      "inputs": [
        {
          "internalType": "string",
          "name": "chainName",
          "type": "string"
        },
        {
          "internalType": "address",
          "name": "extraContract",
          "type": "address"
        }
      ],
      "name": "registerExtraContract",
      "outputs": [],
      "stateMutability": "nonpayable",
      "type": "function"
    },
    {
      "inputs": [
        {
          "internalType": "address",
          "name": "extraContract",
          "type": "address"
        }
      ],
      "name": "registerExtraContractForAll",
      "outputs": [],
      "stateMutability": "nonpayable",
      "type": "function"
    },
    {
      "inputs": [
        {
          "internalType": "bytes32",
          "name": "",
          "type": "bytes32"
        },
        {
          "internalType": "address",
          "name": "",
          "type": "address"
        }
      ],
      "name": "registryContracts",
      "outputs": [
        {
          "internalType": "bool",
          "name": "",
          "type": "bool"
        }
      ],
      "stateMutability": "view",
      "type": "function"
    },
    {
      "inputs": [
        {
          "internalType": "string",
          "name": "chainName",
          "type": "string"
        }
      ],
      "name": "removeConnectedChain",
      "outputs": [],
      "stateMutability": "nonpayable",
      "type": "function"
    },
    {
      "inputs": [
        {
          "internalType": "string",
          "name": "chainName",
          "type": "string"
        },
        {
          "internalType": "address",
          "name": "extraContract",
          "type": "address"
        }
      ],
      "name": "removeExtraContract",
      "outputs": [],
      "stateMutability": "nonpayable",
      "type": "function"
    },
    {
      "inputs": [
        {
          "internalType": "address",
          "name": "extraContract",
          "type": "address"
        }
      ],
      "name": "removeExtraContractForAll",
      "outputs": [],
      "stateMutability": "nonpayable",
      "type": "function"
    },
    {
      "inputs": [
        {
          "internalType": "bytes32",
          "name": "role",
          "type": "bytes32"
        },
        {
          "internalType": "address",
          "name": "account",
          "type": "address"
        }
      ],
      "name": "renounceRole",
      "outputs": [],
      "stateMutability": "nonpayable",
      "type": "function"
    },
    {
      "inputs": [
        {
          "internalType": "bytes32",
          "name": "role",
          "type": "bytes32"
        },
        {
          "internalType": "address",
          "name": "account",
          "type": "address"
        }
      ],
      "name": "revokeRole",
      "outputs": [],
      "stateMutability": "nonpayable",
      "type": "function"
    },
    {
      "inputs": [],
      "name": "schainHash",
      "outputs": [
        {
          "internalType": "bytes32",
          "name": "",
          "type": "bytes32"
        }
      ],
      "stateMutability": "view",
      "type": "function"
    },
    {
      "inputs": [
        {
          "internalType": "uint256",
          "name": "newGasLimit",
          "type": "uint256"
        }
      ],
      "name": "setNewGasLimit",
      "outputs": [],
      "stateMutability": "nonpayable",
      "type": "function"
    },
    {
      "inputs": [
        {
          "internalType": "bytes4",
          "name": "interfaceId",
          "type": "bytes4"
        }
      ],
      "name": "supportsInterface",
      "outputs": [
        {
          "internalType": "bool",
          "name": "",
          "type": "bool"
        }
      ],
      "stateMutability": "view",
      "type": "function"
    },
    {
      "inputs": [
        {
          "components": [
            {
              "internalType": "bytes32",
              "name": "dstChainHash",
              "type": "bytes32"
            },
            {
              "internalType": "uint256",
              "name": "msgCounter",
              "type": "uint256"
            },
            {
              "internalType": "address",
              "name": "srcContract",
              "type": "address"
            },
            {
              "internalType": "address",
              "name": "dstContract",
              "type": "address"
            },
            {
              "internalType": "bytes",
              "name": "data",
              "type": "bytes"
            }
          ],
          "internalType": "struct MessageProxyForSchain.OutgoingMessageData",
          "name": "message",
          "type": "tuple"
        }
      ],
      "name": "verifyOutgoingMessageData",
      "outputs": [
        {
          "internalType": "bool",
          "name": "isValidMessage",
          "type": "bool"
        }
      ],
      "stateMutability": "view",
      "type": "function"
    }
  ],
  "bytecode": "0x608060405234801561001057600080fd5b50613844806100206000396000f3fe608060405234801561001057600080fd5b50600436106102115760003560e01c80639010d07c11610125578063cab010c9116100ad578063f2f636051161007c578063f2f636051461050b578063f399e22e1461051e578063f68016b714610531578063f79f79541461053a578063f8c88a161461054d57600080fd5b8063cab010c914610483578063d547741f14610496578063e356a6f9146104a9578063e6ab8403146104bc57600080fd5b8063a217fddf116100f4578063a217fddf14610426578063a8bb1b7d1461042e578063bbc4e8c214610441578063bdb40cb014610468578063ca15c8731461047057600080fd5b80639010d07c146103c257806391d14854146103ed5780639448920214610400578063999ab9aa1461041357600080fd5b80633cdd2cc3116101a857806367ec60201161017757806367ec6020146103485780636e2f37b01461035b57806377fe0f311461036e5780637aa38a7c146103815780637c5ad80c1461039457600080fd5b80633cdd2cc3146102fa5780634d2038591461030d578063523c8ab614610320578063603e5d131461033557600080fd5b80632f2ff15d116101e45780632f2ff15d146102b657806336568abe146102cb5780633b597ffe146102de5780633b690b6b146102f157600080fd5b806301ffc9a71461021657806313c522601461023e578063248a9ca31461026157806328c5e18214610284575b600080fd5b610229610224366004612e39565b610560565b60405190151581526020015b60405180910390f35b6102536000805160206137ef83398151915281565b604051908152602001610235565b61025361026f366004612d76565b60009081526065602052604090206001015490565b6102536040516613585a5b9b995d60ca1b60208201526027016040516020818303038152906040528051906020012081565b6102c96102c4366004612d8f565b61058b565b005b6102c96102d9366004612d8f565b6105b2565b6102c96102ec366004612d76565b6105d4565b61025360cd5481565b6102c9610308366004613003565b61069f565b6102c961031b366004612d3c565b61078d565b61025360008051602061378f83398151915281565b6102c9610343366004612f49565b61088f565b610253610356366004612eb2565b610ac3565b6102c9610369366004612d76565b610b3c565b61025361037c366004612eb2565b610c56565b61022961038f3660046130c0565b610cfc565b6102296103a2366004612d8f565b60ca60209081526000928352604080842090915290825290205460ff1681565b6103d56103d0366004612e17565b610d36565b6040516001600160a01b039091168152602001610235565b6102296103fb366004612d8f565b610d55565b6102c961040e366004612dbf565b610d80565b610229610421366004613003565b610e36565b610253600081565b6102c961043c366004612d3c565b610e7f565b6102537f96e3fc3be15159903e053027cff8a23f39a990e0194abcd8ac1cf1b355b8b93c81565b610253600a81565b61025361047e366004612d76565b610f56565b6102c9610491366004613037565b610f6d565b6102c96104a4366004612d8f565b610ff8565b6102296104b7366004612ef3565b611002565b6104ee6104ca366004612d76565b60c96020526000908152604090208054600182015460029092015490919060ff1683565b604080519384526020840192909252151590820152606001610235565b6102c9610519366004612eb2565b611090565b6102c961052c366004612e63565b611118565b61025360cb5481565b60cc546103d5906001600160a01b031681565b6102c961055b366004613037565b61125f565b60006001600160e01b03198216635a05180f60e01b14806105855750610585826112ea565b92915050565b610595828261131f565b60008281526097602052604090206105ad9082611345565b505050565b6105bc828261135a565b60008281526097602052604090206105ad90826113d4565b6105fe7f96e3fc3be15159903e053027cff8a23f39a990e0194abcd8ac1cf1b355b8b93c33610d55565b61065e5760405162461bcd60e51b815260206004820152602660248201527f4e6f7420656e6f756768207065726d697373696f6e7320746f2073657420636f6044820152651b9cdd185b9d60d21b60648201526084015b60405180910390fd5b60cb5460408051918252602082018390527f8abddb75fd50f7583079c0b550ec7a54fa3fd8d5dd1d2dfdc473f7ce27e3b9ac910160405180910390a160cb55565b6106b76000805160206137ef83398151915233610d55565b6106d35760405162461bcd60e51b81526004016106559061332a565b6000816040516020016106e6919061321b565b60405160208183030381529060405280519060200120905060405160200161071b906613585a5b9b995d60ca1b815260070190565b604051602081830303815290604052805190602001208114156107805760405162461bcd60e51b815260206004820152601960248201527f4d61696e6e65742063616e6e6f742062652072656d6f766564000000000000006044820152606401610655565b610789826113e9565b5050565b6107a560008051602061378f83398151915233610d55565b6107c15760405162461bcd60e51b81526004016106559061335f565b6001600160a01b0381163b6108185760405162461bcd60e51b815260206004820152601f60248201527f476976656e2061646472657373206973206e6f74206120636f6e7472616374006044820152606401610655565b6001600160a01b03811660009081526000805160206137cf833981519152602052604090205460ff161561085e5760405162461bcd60e51b81526004016106559061347e565b6001600160a01b031660009081526000805160206137cf83398151915260205260409020805460ff19166001179055565b600086866040516020016108a492919061320b565b60408051601f198184030181529181528151602092830120600081815260c990935291206002015490915060ff166109195760405162461bcd60e51b815260206004820152601860248201527710da185a5b881a5cc81b9bdd081a5b9a5d1a585b1a5e995960421b6044820152606401610655565b600a83111561095e5760405162461bcd60e51b8152602060048201526011602482015270546f6f206d616e79206d6573736167657360781b6044820152606401610655565b61097161096b85856114cc565b836115d7565b6109bd5760405162461bcd60e51b815260206004820152601960248201527f5369676e6174757265206973206e6f74207665726966696564000000000000006044820152606401610655565b600081815260c960205260409020548514610a405760405162461bcd60e51b815260206004820152603860248201527f5374617274696e6720636f756e746572206973206e6f74207175616c20746f2060448201527f696e636f6d696e67206d65737361676520636f756e74657200000000000000006064820152608401610655565b60005b83811015610a9657610a8382868684818110610a6157610a616136a8565b9050602002810190610a739190613508565b610a7e89600161351e565b611684565b5080610a8e81613637565b915050610a43565b50600081815260c9602052604081208054859290610ab590849061351e565b909155505050505050505050565b6000808383604051602001610ad992919061320b565b60408051601f198184030181529181528151602092830120600081815260c990935291206002015490915060ff16610b235760405162461bcd60e51b81526004016106559061343a565b600090815260c960205260409020600101549392505050565b600054610100900460ff1680610b55575060005460ff16155b610b715760405162461bcd60e51b8152600401610655906133a8565b600054610100900460ff16158015610b93576000805461ffff19166101011790555b610b9b6118ae565b610ba660003361193a565b610bbe6000805160206137ef8339815191523361193a565b610bd660008051602061378f8339815191523361193a565b610c007f96e3fc3be15159903e053027cff8a23f39a990e0194abcd8ac1cf1b355b8b93c3361193a565b60cb5460408051918252602082018490527f8abddb75fd50f7583079c0b550ec7a54fa3fd8d5dd1d2dfdc473f7ce27e3b9ac910160405180910390a160cb8290558015610789576000805461ff00191690555050565b6000808383604051602001610c6c92919061320b565b60408051601f198184030181529181528151602092830120600081815260c990935291206002015490915060ff16610ce65760405162461bcd60e51b815260206004820152601f60248201527f536f7572636520636861696e206973206e6f7420696e697469616c697a6564006044820152606401610655565b600090815260c960205260409020549392505050565b8051600090815260ce60209081526040808320828501518452909152812054610d2483611944565b811415610d3057600191505b50919050565b6000828152609760205260408120610d4e90836119b0565b9392505050565b60009182526065602090815260408084206001600160a01b0393909316845291905290205460ff1690565b610d8b8383836119bc565b60006040518060a00160405280858152602001600160c9600088815260200190815260200160002060010154610dc19190613569565b81523360208201526001600160a01b03851660408201526060018390528051909150610dec82611944565b600082815260ce6020908152604080832060d08084528285208054865291845291842094909455848352905281546001929190610e2a90849061351e565b90915550505050505050565b600060c9600083604051602001610e4d919061321b565b60408051601f198184030181529181528151602092830120835290820192909252016000206002015460ff1692915050565b610e9760008051602061378f83398151915233610d55565b610eb35760405162461bcd60e51b81526004016106559061335f565b6001600160a01b03811660009081526000805160206137cf833981519152602052604090205460ff16610f285760405162461bcd60e51b815260206004820181905260248201527f457874726120636f6e7472616374206973206e6f7420726567697374657265646044820152606401610655565b6001600160a01b031660009081526000805160206137cf83398151915260205260409020805460ff19169055565b600081815260976020526040812061058590611b13565b610f8560008051602061378f83398151915233610d55565b610fa15760405162461bcd60e51b81526004016106559061335f565b600082604051602001610fb4919061321b565b60405160208183030381529060405280519060200120905060cd54811415610fee5760405162461bcd60e51b8152600401610655906133f6565b6105ad8183611b1d565b6105bc8282611c79565b600060ca6000858560405160200161101b92919061320b565b60408051601f19818403018152918152815160209283012083528282019390935290820160009081206001600160a01b0386168252909152205460ff168061108857506001600160a01b03821660009081526000805160206137cf833981519152602052604090205460ff165b949350505050565b600082826040516020016110a592919061320b565b60405160208183030381529060405280519060200120905060cd5481141561110f5760405162461bcd60e51b815260206004820152601c60248201527f53636861696e2063616e6e6f7420636f6e6e65637420697473656c66000000006044820152606401610655565b6105ad81611c9f565b600054610100900460ff1680611131575060005460ff16155b61114d5760405162461bcd60e51b8152600401610655906133a8565b600054610100900460ff1615801561116f576000805461ffff19166101011790555b61117b622dc6c0610b3c565b60cc80546001600160a01b0385166001600160a01b031990911617905560408051606081018252600080825260208083018290526001838501529251919260c9926111d491016613585a5b9b995d60ca1b815260070190565b60408051808303601f19018152918152815160209283012083528282019390935290820160002083518155838201516001820155928201516002909301805460ff1916931515939093179092555161122e9184910161321b565b60408051601f19818403018152919052805160209091012060cd5580156105ad576000805461ff0019169055505050565b61127760008051602061378f83398151915233610d55565b6112935760405162461bcd60e51b81526004016106559061335f565b6000826040516020016112a6919061321b565b60405160208183030381529060405280519060200120905060cd548114156112e05760405162461bcd60e51b8152600401610655906133f6565b6105ad8183611d85565b60006001600160e01b03198216637965db0b60e01b148061058557506301ffc9a760e01b6001600160e01b0319831614610585565b60008281526065602052604090206001015461133b8133611e24565b6105ad8383611e88565b6000610d4e836001600160a01b038416611f0e565b6001600160a01b03811633146113ca5760405162461bcd60e51b815260206004820152602f60248201527f416363657373436f6e74726f6c3a2063616e206f6e6c792072656e6f756e636560448201526e103937b632b9903337b91039b2b63360891b6064820152608401610655565b6107898282611f5d565b6000610d4e836001600160a01b038416611fc4565b6114016000805160206137ef83398151915233610d55565b61141d5760405162461bcd60e51b81526004016106559061332a565b600081604051602001611430919061321b565b60408051601f198184030181529181528151602092830120600081815260c990935291206002015490915060ff166114a55760405162461bcd60e51b815260206004820152601860248201527710da185a5b881a5cc81b9bdd081a5b9a5d1a585b1a5e995960421b6044820152606401610655565b600090815260c9602052604081208181556001810191909155600201805460ff1916905550565b6000606060005b838110156115c757818585838181106114ee576114ee6136a8565b90506020028101906115009190613508565b61150e906020810190612d3c565b60601b6001600160601b03191686868481811061152d5761152d6136a8565b905060200281019061153f9190613508565b611550906040810190602001612d3c565b60601b6001600160601b03191687878581811061156f5761156f6136a8565b90506020028101906115819190613508565b61158f9060408101906134c2565b6040516020016115a39594939291906131d1565b604051602081830303815290604052915080806115bf90613637565b9150506114d3565b5080516020909101209392505050565b604080518082018252823581526020808401359082015260cc548251632aa77bd360e11b81528351600094610d4e949388936080808a013594938a01359360608b0135936001600160a01b03169263554ef7a6926004808301939192829003018186803b15801561164757600080fd5b505afa15801561165b573d6000803e3d6000fd5b505050506040513d601f19601f8201168201806040525081019061167f919061307d565b6120be565b60006116a86116996040850160208601612d3c565b6001600160a01b03163b151590565b61172b57817f4b7d3908626050c0d998d657e4e6f31cb43ed736bf2b9a1a0192494537ca0e5960405161171b9060208082526026908201527f44657374696e6174696f6e20636f6e7472616374206973206e6f74206120636f6040820152651b9d1c9858dd60d21b606082015260800190565b60405180910390a2506000610d4e565b61173b6040840160208501612d3c565b6001600160a01b031663884cee5a60cb54868660000160208101906117609190612d3c565b61176d60408901896134c2565b6040518663ffffffff1660e01b815260040161178c94939291906132d0565b602060405180830381600088803b1580156117a657600080fd5b5087f1935050505080156117d7575060408051601f3d908101601f191682019092526117d491810190612d59565b60015b6118a7576117e36136d4565b806308c379a0141561184557506117f86136f0565b806118035750611847565b827f4b7d3908626050c0d998d657e4e6f31cb43ed736bf2b9a1a0192494537ca0e59826040516118339190613317565b60405180910390a26000915050610d4e565b505b3d808015611871576040519150601f19603f3d011682016040523d82523d6000602084013e611876565b606091505b50827f4b7d3908626050c0d998d657e4e6f31cb43ed736bf2b9a1a0192494537ca0e59826040516118339190613317565b9050610d4e565b600054610100900460ff16806118c7575060005460ff16155b6118e35760405162461bcd60e51b8152600401610655906133a8565b600054610100900460ff16158015611905576000805461ffff19166101011790555b61190d612288565b611915612288565b61191d612288565b611925612288565b8015611937576000805461ff00191690555b50565b61059582826122f2565b6000808260000151836020015160001b846040015160601b6001600160601b031916856060015160601b6001600160601b0319168660800151604051602001611991959493929190613196565b60408051601f1981840301815291905280516020909101209392505050565b6000610d4e83836122fc565b600083815260c9602052604090206002015460ff166119ed5760405162461bcd60e51b81526004016106559061343a565b3360009081526000805160206137cf833981519152602052604090205460ff1680611a315750600083815260ca6020908152604080832033845290915290205460ff165b611a875760405162461bcd60e51b815260206004820152602160248201527f53656e64657220636f6e7472616374206973206e6f74207265676973746572656044820152601960fa1b6064820152608401610655565b336001600160a01b031660c9600085815260200190815260200160002060010154847f803d7f3ca0e5f93fcce39fa29812ed57a95a151594966e17125220132741c6b08585604051611ada9291906132ac565b60405180910390a4600160c960008581526020019081526020016000206001016000828254611b09919061351e565b9091555050505050565b6000610585825490565b6001600160a01b0381163b611b745760405162461bcd60e51b815260206004820152601f60248201527f476976656e2061646472657373206973206e6f74206120636f6e7472616374006044820152606401610655565b600082815260ca602090815260408083206001600160a01b038516845290915290205460ff1615611bb75760405162461bcd60e51b81526004016106559061347e565b6001600160a01b03811660009081526000805160206137cf833981519152602052604090205460ff1615611c495760405162461bcd60e51b815260206004820152603360248201527f457874726120636f6e747261637420697320616c7265616479207265676973746044820152726572656420666f7220616c6c20636861696e7360681b6064820152608401610655565b600091825260ca602090815260408084206001600160a01b0390931684529190529020805460ff19166001179055565b600082815260656020526040902060010154611c958133611e24565b6105ad8383611f5d565b611cb76000805160206137ef83398151915233610d55565b611cd35760405162461bcd60e51b81526004016106559061332a565b600081815260c9602052604090206002015460ff1615611d355760405162461bcd60e51b815260206004820152601a60248201527f436861696e20697320616c726561647920636f6e6e65637465640000000000006044820152606401610655565b6040805160608101825260008082526020808301828152600184860181815296845260c9909252939091209151825591519181019190915590516002909101805460ff1916911515919091179055565b600082815260ca602090815260408083206001600160a01b038516845290915290205460ff16611df75760405162461bcd60e51b815260206004820181905260248201527f457874726120636f6e7472616374206973206e6f7420726567697374657265646044820152606401610655565b600091825260ca602090815260408084206001600160a01b0390931684529190529020805460ff19169055565b611e2e8282610d55565b61078957611e46816001600160a01b03166014612326565b611e51836020612326565b604051602001611e62929190613237565b60408051601f198184030181529082905262461bcd60e51b825261065591600401613317565b611e928282610d55565b6107895760008281526065602090815260408083206001600160a01b03851684529091529020805460ff19166001179055611eca3390565b6001600160a01b0316816001600160a01b0316837f2f8788117e7eff1d82e926ec794901d17c78024a50270940304540a733656f0d60405160405180910390a45050565b6000818152600183016020526040812054611f5557508154600181810184556000848152602080822090930184905584548482528286019093526040902091909155610585565b506000610585565b611f678282610d55565b156107895760008281526065602090815260408083206001600160a01b0385168085529252808320805460ff1916905551339285917ff6391f5c32d9c69d2a47ea670b442974b53935d1edc7fd64eb21e047a839171b9190a45050565b600081815260018301602052604081205480156120ad576000611fe8600183613569565b8554909150600090611ffc90600190613569565b905081811461206157600086600001828154811061201c5761201c6136a8565b906000526020600020015490508087600001848154811061203f5761203f6136a8565b6000918252602080832090910192909255918252600188019052604090208390555b855486908061207257612072613692565b600190038181906000526020600020016000905590558560010160008681526020019081526020016000206000905560019350505050610585565b6000915050610585565b5092915050565b60006120c9876124c1565b61210e5760405162461bcd60e51b815260206004820152601660248201527514da59db985d1d5c99481a5cc81b9bdd081d985b1a5960521b6044820152606401610655565b61211a868686866124f7565b6121265750600061227e565b600061213588602001516125e3565b9050612145886000015182612608565b6121825760405162461bcd60e51b815260206004820152600e60248201526d5369676e206e6f7420696e20473160901b6044820152606401610655565b61218c8585612608565b6121c95760405162461bcd60e51b815260206004820152600e60248201526d48617368206e6f7420696e20473160901b6044820152606401610655565b60006121d361263e565b90506121de846126fe565b6122215760405162461bcd60e51b8152602060048201526014602482015273283ab13634b19025b2bc903737ba1034b710239960611b6044820152606401610655565b6122798960000151838360000151602001518460000151600001518560200151602001518660200151600001518c8c8c60000151602001518d60000151600001518e60200151602001518f6020015160000151612712565b925050505b9695505050505050565b600054610100900460ff16806122a1575060005460ff16155b6122bd5760405162461bcd60e51b8152600401610655906133a8565b600054610100900460ff16158015611925576000805461ffff19166101011790558015611937576000805461ff001916905550565b6107898282611e88565b6000826000018281548110612313576123136136a8565b9060005260206000200154905092915050565b6060600061233583600261354a565b61234090600261351e565b6001600160401b03811115612357576123576136be565b6040519080825280601f01601f191660200182016040528015612381576020820181803683370190505b509050600360fc1b8160008151811061239c5761239c6136a8565b60200101906001600160f81b031916908160001a905350600f60fb1b816001815181106123cb576123cb6136a8565b60200101906001600160f81b031916908160001a90535060006123ef84600261354a565b6123fa90600161351e565b90505b6001811115612472576f181899199a1a9b1b9c1cb0b131b232b360811b85600f166010811061242e5761242e6136a8565b1a60f81b828281518110612444576124446136a8565b60200101906001600160f81b031916908160001a90535060049490941c9361246b816135b0565b90506123fd565b508315610d4e5760405162461bcd60e51b815260206004820181905260248201527f537472696e67733a20686578206c656e67746820696e73756666696369656e746044820152606401610655565b60006000805160206137af8339815191528260000151108015610585575050602001516000805160206137af8339815191521190565b6000606484111561250a57506000611088565b60006125246000805160206137af83398151915287613652565b90506000805160206137af83398151915261253f868361351e565b6125499190613652565b905060006000805160206137af83398151915260036000805160206137af833981519152846000805160206137af8339815191528687090908905061259d60026000805160206137af833981519152613536565b8410806125bb5750806000805160206137af83398151915285860914155b806125c65750848214155b156125d657600092505050611088565b5060019695505050505050565b60006000805160206137af8339815191526125fe8382613569565b6105859190613652565b60006000805160206137af833981519152806003818681888909090881806126325761263261367c565b84850914949350505050565b612646612bb8565b50604080516080810182527f1800deef121f1e76426a00665e5c4479674322d4f75edadd46debd5cd992f6ed8183019081527f198e9393920d483a7260bfb731fb5d25f1aa493335a9e71297e485b7aef312c26060830152815281518083019092527f12c85ea5db8c6deb4aab71808dcb408fe3d1e7690c43d37b4ce6cc0166fa7daa82527f090689d0585ff075ec9e99ad690c3395bc4b313370b38ef355acdadcd122975b60208381019190915281019190915290565b6000610585826000015183602001516127e2565b60008061271d612bfc565b8e8152602081018e9052604081018d9052606081018c9052608081018b905260a081018a905260c0810189905260e081018890526101008101879052610120810186905261014081018590526101608101849052612779612c1b565b602081610180846008600019fa9250826127cc5760405162461bcd60e51b815260206004820152601460248201527314185a5c9a5b99c818da1958dac819985a5b195960621b6044820152606401610655565b5115159f9e505050505050505050505050505050565b60006127ee83836128b6565b156127fb57506001610585565b6000612806836128e9565b90506000612899612876604080518082018252600080825260209182015281518083019092527f2b149d40ceb8aaae81be18991be06ac3b5b4c5e559dbefa33267e6dc24a138e582527e9713b03af0fed4cd2cafadeed8fdf4a74fa084e52d1852e4a2bd0685c315d29082015290565b61289361288c886128868a6128e9565b9061299f565b8590612ab2565b90612ab2565b80519091501580156128ad57506020810151155b95945050505050565b81516000901580156128ca57506020830151155b80156128d7575081516001145b8015610d4e5750506020015115919050565b60408051808201909152600080825260208201526000805160206137af83398151915260008160208501518551099050600082806129295761292961367c565b83806129375761293761367c565b84806129455761294561367c565b6020880151612955600188613569565b0987510884806129675761296761367c565b6020880151885108099050604051806040016040528082815260200184806129915761299161367c565b848508905295945050505050565b604080518082019091526000808252602082015260006000805160206137af83398151915290506000604051806040016040528083806129e1576129e161367c565b8651885109815260200183806129f9576129f961367c565b8660200151886020015109905290508180612a1657612a1661367c565b8280612a2457612a2461367c565b6020830151612a34600186613569565b0982510883528180612a4857612a4861367c565b8280612a5657612a5661367c565b6020830151835108612a689084613569565b8380612a7657612a7661367c565b8480612a8457612a8461367c565b60208801518851088580612a9a57612a9a61367c565b60208a01518a51080908602084015250909392505050565b6040805180820190915260008082526020820152815183516000805160206137af8339815191529111612b03578080612aed57612aed61367c565b8351612af99083613569565b8551088252612b38565b808180612b1257612b1261367c565b8551612b1e9084613569565b855108612b2b9083613569565b612b359190613652565b82525b8260200151846020015110612b74578080612b5557612b5561367c565b6020840151612b649083613569565b85602001510860208301526120b7565b808180612b8357612b8361367c565b6020860151612b929084613569565b856020015108612ba29083613569565b612bac9190613652565b60208301525092915050565b60408051608081018252600091810182815260608201929092529081908152602001612bf7604051806040016040528060008152602001600081525090565b905290565b604051806101800160405280600c906020820280368337509192915050565b60405180602001604052806001906020820280368337509192915050565b600082601f830112612c4a57600080fd5b81356001600160401b03811115612c6357612c636136be565b604051612c7a601f8301601f19166020018261360b565b818152846020838601011115612c8f57600080fd5b816020850160208301376000918101602001919091529392505050565b60008083601f840112612cbe57600080fd5b5081356001600160401b03811115612cd557600080fd5b602083019150836020828501011115612ced57600080fd5b9250929050565b600060408284031215612d0657600080fd5b604051612d12816135c7565b80915082518152602083015160208201525092915050565b600060a08284031215610d3057600080fd5b600060208284031215612d4e57600080fd5b8135610d4e81613779565b600060208284031215612d6b57600080fd5b8151610d4e81613779565b600060208284031215612d8857600080fd5b5035919050565b60008060408385031215612da257600080fd5b823591506020830135612db481613779565b809150509250929050565b600080600060608486031215612dd457600080fd5b833592506020840135612de681613779565b915060408401356001600160401b03811115612e0157600080fd5b612e0d86828701612c39565b9150509250925092565b60008060408385031215612e2a57600080fd5b50508035926020909101359150565b600060208284031215612e4b57600080fd5b81356001600160e01b031981168114610d4e57600080fd5b60008060408385031215612e7657600080fd5b8235612e8181613779565b915060208301356001600160401b03811115612e9c57600080fd5b612ea885828601612c39565b9150509250929050565b60008060208385031215612ec557600080fd5b82356001600160401b03811115612edb57600080fd5b612ee785828601612cac565b90969095509350505050565b600080600060408486031215612f0857600080fd5b83356001600160401b03811115612f1e57600080fd5b612f2a86828701612cac565b9094509250506020840135612f3e81613779565b809150509250925092565b6000806000806000806101008789031215612f6357600080fd5b86356001600160401b0380821115612f7a57600080fd5b612f868a838b01612cac565b9098509650602089013595506040890135915080821115612fa657600080fd5b818901915089601f830112612fba57600080fd5b813581811115612fc957600080fd5b8a60208260051b8501011115612fde57600080fd5b602083019550809450505050612ff78860608901612d2a565b90509295509295509295565b60006020828403121561301557600080fd5b81356001600160401b0381111561302b57600080fd5b61108884828501612c39565b6000806040838503121561304a57600080fd5b82356001600160401b0381111561306057600080fd5b61306c85828601612c39565b9250506020830135612db481613779565b60006080828403121561308f57600080fd5b60405161309b816135c7565b6130a58484612cf4565b81526130b48460408501612cf4565b60208201529392505050565b6000602082840312156130d257600080fd5b81356001600160401b03808211156130e957600080fd5b9083019060a082860312156130fd57600080fd5b604051613109816135ec565b8235815260208301356020820152604083013561312581613779565b6040820152606083013561313881613779565b606082015260808301358281111561314f57600080fd5b61315b87828601612c39565b60808301525095945050505050565b60008151808452613182816020860160208601613580565b601f01601f19169290920160200192915050565b858152846020820152836040820152826060820152600082516131c0816080850160208701613580565b919091016080019695505050505050565b600086516131e3818460208b01613580565b8201868152602081018690528385604083013760009301604001928352509095945050505050565b8183823760009101908152919050565b6000825161322d818460208701613580565b9190910192915050565b7f416363657373436f6e74726f6c3a206163636f756e742000000000000000000081526000835161326f816017850160208801613580565b7001034b99036b4b9b9b4b733903937b6329607d1b60179184019182015283516132a0816028840160208801613580565b01602801949350505050565b6001600160a01b03831681526040602082018190526000906110889083018461316a565b8481526001600160a01b03841660208201526060604082018190528101829052818360808301376000818301608090810191909152601f909201601f191601019392505050565b602081526000610d4e602083018461316a565b6020808252818101527f434841494e5f434f4e4e4543544f525f524f4c45206973207265717569726564604082015260600190565b60208082526029908201527f45585452415f434f4e54524143545f5245474953545241525f524f4c45206973604082015268081c995c5d5a5c995960ba1b606082015260800190565b6020808252602e908201527f496e697469616c697a61626c653a20636f6e747261637420697320616c72656160408201526d191e481a5b9a5d1a585b1a5e995960921b606082015260800190565b60208082526024908201527f53636861696e20686173682063616e206e6f7420626520657175616c204d61696040820152631b9b995d60e21b606082015260800190565b60208082526024908201527f44657374696e6174696f6e20636861696e206973206e6f7420696e697469616c6040820152631a5e995960e21b606082015260800190565b60208082526024908201527f457874726120636f6e747261637420697320616c726561647920726567697374604082015263195c995960e21b606082015260800190565b6000808335601e198436030181126134d957600080fd5b8301803591506001600160401b038211156134f357600080fd5b602001915036819003821315612ced57600080fd5b60008235605e1983360301811261322d57600080fd5b6000821982111561353157613531613666565b500190565b6000826135455761354561367c565b500490565b600081600019048311821515161561356457613564613666565b500290565b60008282101561357b5761357b613666565b500390565b60005b8381101561359b578181015183820152602001613583565b838111156135aa576000848401525b50505050565b6000816135bf576135bf613666565b506000190190565b604081018181106001600160401b03821117156135e6576135e66136be565b60405250565b60a081018181106001600160401b03821117156135e6576135e66136be565b601f8201601f191681016001600160401b0381118282101715613630576136306136be565b6040525050565b600060001982141561364b5761364b613666565b5060010190565b6000826136615761366161367c565b500690565b634e487b7160e01b600052601160045260246000fd5b634e487b7160e01b600052601260045260246000fd5b634e487b7160e01b600052603160045260246000fd5b634e487b7160e01b600052603260045260246000fd5b634e487b7160e01b600052604160045260246000fd5b600060033d11156136ed5760046000803e5060005160e01c5b90565b600060443d10156136fe5790565b6040516003193d81016004833e81513d6001600160401b03816024840111818411171561372d57505050505090565b82850191508151818111156137455750505050505090565b843d870101602082850101111561375f5750505050505090565b61376e6020828601018761360b565b509095945050505050565b6001600160a01b038116811461193757600080fdfe6155b5aac15ce9aa193c0527a6f43be0a36a7e2e7496c2b615c0e5f92284277330644e72e131a029b85045b68181585d97816a916871ca8d3c208c16d87cfd47992e0e3e7050db88ec37ec33505f46a9813ea5551fe17ef58dc201344bcbaf932785f35fe7d8743aa971942d8474737bb31895d396eff2cc688a481e0221e191a2646970667358221220c4d3644ad77d449f6cfd841b37f7f6fd919c0594d34de6fdb578becad3708d7164736f6c63430008060033",
  "linkReferences": {},
  "deployedLinkReferences": {}
}