{
  "_format": "hh-sol-artifact-1",
  "contractName": "AaveAssetManager",
  "sourceName": "contracts/AaveAssetManager.sol",
  "abi": [
    {
      "anonymous": false,
      "inputs": [
        {
          "indexed": false,
          "internalType": "address",
          "name": "previousAdmin",
          "type": "address"
        },
        {
          "indexed": false,
          "internalType": "address",
          "name": "newAdmin",
          "type": "address"
        }
      ],
      "name": "AdminChanged",
      "type": "event"
    },
    {
      "anonymous": false,
      "inputs": [
        {
          "indexed": true,
          "internalType": "address",
          "name": "beacon",
          "type": "address"
        }
      ],
      "name": "BeaconUpgraded",
      "type": "event"
    },
    {
      "anonymous": false,
      "inputs": [
        {
          "indexed": false,
          "internalType": "bool",
          "name": "positive",
          "type": "bool"
        },
        {
          "indexed": false,
          "internalType": "uint256",
          "name": "amount",
          "type": "uint256"
        }
      ],
      "name": "EarningsDistributed",
      "type": "event"
    },
    {
      "anonymous": false,
      "inputs": [
        {
          "indexed": true,
          "internalType": "enum IPolicyPoolConfig.GovernanceActions",
          "name": "action",
          "type": "uint8"
        },
        {
          "indexed": false,
          "internalType": "uint256",
          "name": "value",
          "type": "uint256"
        }
      ],
      "name": "GovernanceAction",
      "type": "event"
    },
    {
      "anonymous": false,
      "inputs": [
        {
          "indexed": false,
          "internalType": "uint256",
          "name": "amount",
          "type": "uint256"
        }
      ],
      "name": "MoneyDeinvested",
      "type": "event"
    },
    {
      "anonymous": false,
      "inputs": [
        {
          "indexed": false,
          "internalType": "uint256",
          "name": "amount",
          "type": "uint256"
        }
      ],
      "name": "MoneyInvested",
      "type": "event"
    },
    {
      "anonymous": false,
      "inputs": [
        {
          "indexed": false,
          "internalType": "address",
          "name": "account",
          "type": "address"
        }
      ],
      "name": "Paused",
      "type": "event"
    },
    {
      "anonymous": false,
      "inputs": [
        {
          "indexed": false,
          "internalType": "uint256",
          "name": "rewardIn",
          "type": "uint256"
        },
        {
          "indexed": false,
          "internalType": "uint256",
          "name": "currencyOut",
          "type": "uint256"
        }
      ],
      "name": "RewardSwapped",
      "type": "event"
    },
    {
      "anonymous": false,
      "inputs": [
        {
          "indexed": false,
          "internalType": "address",
          "name": "account",
          "type": "address"
        }
      ],
      "name": "Unpaused",
      "type": "event"
    },
    {
      "anonymous": false,
      "inputs": [
        {
          "indexed": true,
          "internalType": "address",
          "name": "implementation",
          "type": "address"
        }
      ],
      "name": "Upgraded",
      "type": "event"
    },
    {
      "inputs": [],
      "name": "GUARDIAN_ROLE",
      "outputs": [
        {
          "internalType": "bytes32",
          "name": "",
          "type": "bytes32"
        }
      ],
      "stateMutability": "view",
      "type": "function"
    },
    {
      "inputs": [],
      "name": "LEVEL1_ROLE",
      "outputs": [
        {
          "internalType": "bytes32",
          "name": "",
          "type": "bytes32"
        }
      ],
      "stateMutability": "view",
      "type": "function"
    },
    {
      "inputs": [],
      "name": "LEVEL2_ROLE",
      "outputs": [
        {
          "internalType": "bytes32",
          "name": "",
          "type": "bytes32"
        }
      ],
      "stateMutability": "view",
      "type": "function"
    },
    {
      "inputs": [],
      "name": "LEVEL3_ROLE",
      "outputs": [
        {
          "internalType": "bytes32",
          "name": "",
          "type": "bytes32"
        }
      ],
      "stateMutability": "view",
      "type": "function"
    },
    {
      "inputs": [],
      "name": "SWAP_REWARDS_ROLE",
      "outputs": [
        {
          "internalType": "bytes32",
          "name": "",
          "type": "bytes32"
        }
      ],
      "stateMutability": "view",
      "type": "function"
    },
    {
      "inputs": [],
      "name": "TWEAK_EXPIRATION",
      "outputs": [
        {
          "internalType": "uint40",
          "name": "",
          "type": "uint40"
        }
      ],
      "stateMutability": "view",
      "type": "function"
    },
    {
      "inputs": [
        {
          "internalType": "contract IPolicyPool",
          "name": "policyPool_",
          "type": "address"
        },
        {
          "internalType": "uint256",
          "name": "liquidityMin_",
          "type": "uint256"
        },
        {
          "internalType": "uint256",
          "name": "liquidityMiddle_",
          "type": "uint256"
        },
        {
          "internalType": "uint256",
          "name": "liquidityMax_",
          "type": "uint256"
        }
      ],
      "name": "__BaseAssetManager_init",
      "outputs": [],
      "stateMutability": "nonpayable",
      "type": "function"
    },
    {
      "inputs": [
        {
          "internalType": "uint256",
          "name": "liquidityMin_",
          "type": "uint256"
        },
        {
          "internalType": "uint256",
          "name": "liquidityMiddle_",
          "type": "uint256"
        },
        {
          "internalType": "uint256",
          "name": "liquidityMax_",
          "type": "uint256"
        }
      ],
      "name": "__BaseAssetManager_init_unchained",
      "outputs": [],
      "stateMutability": "nonpayable",
      "type": "function"
    },
    {
      "inputs": [],
      "name": "aToken",
      "outputs": [
        {
          "internalType": "contract IAToken",
          "name": "",
          "type": "address"
        }
      ],
      "stateMutability": "view",
      "type": "function"
    },
    {
      "inputs": [],
      "name": "checkpoint",
      "outputs": [],
      "stateMutability": "nonpayable",
      "type": "function"
    },
    {
      "inputs": [],
      "name": "claimRewardsMin",
      "outputs": [
        {
          "internalType": "uint256",
          "name": "",
          "type": "uint256"
        }
      ],
      "stateMutability": "view",
      "type": "function"
    },
    {
      "inputs": [],
      "name": "currency",
      "outputs": [
        {
          "internalType": "contract IERC20Metadata",
          "name": "",
          "type": "address"
        }
      ],
      "stateMutability": "view",
      "type": "function"
    },
    {
      "inputs": [],
      "name": "deinvestAll",
      "outputs": [],
      "stateMutability": "nonpayable",
      "type": "function"
    },
    {
      "inputs": [],
      "name": "distibuteEarnings",
      "outputs": [],
      "stateMutability": "nonpayable",
      "type": "function"
    },
    {
      "inputs": [],
      "name": "getInvestmentValue",
      "outputs": [
        {
          "internalType": "uint256",
          "name": "",
          "type": "uint256"
        }
      ],
      "stateMutability": "view",
      "type": "function"
    },
    {
      "inputs": [
        {
          "internalType": "contract IPolicyPool",
          "name": "policyPool_",
          "type": "address"
        },
        {
          "internalType": "uint256",
          "name": "liquidityMin_",
          "type": "uint256"
        },
        {
          "internalType": "uint256",
          "name": "liquidityMiddle_",
          "type": "uint256"
        },
        {
          "internalType": "uint256",
          "name": "liquidityMax_",
          "type": "uint256"
        },
        {
          "internalType": "contract ILendingPoolAddressesProvider",
          "name": "aaveAddrProv_",
          "type": "address"
        },
        {
          "internalType": "contract IUniswapV2Router02",
          "name": "swapRouter_",
          "type": "address"
        },
        {
          "internalType": "uint256",
          "name": "claimRewardsMin_",
          "type": "uint256"
        },
        {
          "internalType": "uint256",
          "name": "reinvestRewardsMin_",
          "type": "uint256"
        },
        {
          "internalType": "uint256",
          "name": "maxSlippage_",
          "type": "uint256"
        }
      ],
      "name": "initialize",
      "outputs": [],
      "stateMutability": "nonpayable",
      "type": "function"
    },
    {
      "inputs": [],
      "name": "lastTweak",
      "outputs": [
        {
          "internalType": "uint40",
          "name": "",
          "type": "uint40"
        },
        {
          "internalType": "uint56",
          "name": "",
          "type": "uint56"
        }
      ],
      "stateMutability": "view",
      "type": "function"
    },
    {
      "inputs": [],
      "name": "lendingPool",
      "outputs": [
        {
          "internalType": "contract ILendingPool",
          "name": "",
          "type": "address"
        }
      ],
      "stateMutability": "view",
      "type": "function"
    },
    {
      "inputs": [],
      "name": "liquidityMax",
      "outputs": [
        {
          "internalType": "uint256",
          "name": "",
          "type": "uint256"
        }
      ],
      "stateMutability": "view",
      "type": "function"
    },
    {
      "inputs": [],
      "name": "liquidityMiddle",
      "outputs": [
        {
          "internalType": "uint256",
          "name": "",
          "type": "uint256"
        }
      ],
      "stateMutability": "view",
      "type": "function"
    },
    {
      "inputs": [],
      "name": "liquidityMin",
      "outputs": [
        {
          "internalType": "uint256",
          "name": "",
          "type": "uint256"
        }
      ],
      "stateMutability": "view",
      "type": "function"
    },
    {
      "inputs": [],
      "name": "maxSlippage",
      "outputs": [
        {
          "internalType": "uint256",
          "name": "",
          "type": "uint256"
        }
      ],
      "stateMutability": "view",
      "type": "function"
    },
    {
      "inputs": [],
      "name": "pause",
      "outputs": [],
      "stateMutability": "nonpayable",
      "type": "function"
    },
    {
      "inputs": [],
      "name": "paused",
      "outputs": [
        {
          "internalType": "bool",
          "name": "",
          "type": "bool"
        }
      ],
      "stateMutability": "view",
      "type": "function"
    },
    {
      "inputs": [],
      "name": "policyPool",
      "outputs": [
        {
          "internalType": "contract IPolicyPool",
          "name": "",
          "type": "address"
        }
      ],
      "stateMutability": "view",
      "type": "function"
    },
    {
      "inputs": [],
      "name": "priceOracle",
      "outputs": [
        {
          "internalType": "contract IPriceOracle",
          "name": "",
          "type": "address"
        }
      ],
      "stateMutability": "view",
      "type": "function"
    },
    {
      "inputs": [],
      "name": "rebalance",
      "outputs": [],
      "stateMutability": "nonpayable",
      "type": "function"
    },
    {
      "inputs": [
        {
          "internalType": "uint256",
          "name": "paymentAmount",
          "type": "uint256"
        }
      ],
      "name": "refillWallet",
      "outputs": [],
      "stateMutability": "nonpayable",
      "type": "function"
    },
    {
      "inputs": [],
      "name": "reinvestRewardToken",
      "outputs": [],
      "stateMutability": "nonpayable",
      "type": "function"
    },
    {
      "inputs": [],
      "name": "reinvestRewardsMin",
      "outputs": [
        {
          "internalType": "uint256",
          "name": "",
          "type": "uint256"
        }
      ],
      "stateMutability": "view",
      "type": "function"
    },
    {
      "inputs": [],
      "name": "rewardAToken",
      "outputs": [
        {
          "internalType": "contract IAToken",
          "name": "",
          "type": "address"
        }
      ],
      "stateMutability": "view",
      "type": "function"
    },
    {
      "inputs": [],
      "name": "rewardToken",
      "outputs": [
        {
          "internalType": "contract IERC20Metadata",
          "name": "",
          "type": "address"
        }
      ],
      "stateMutability": "view",
      "type": "function"
    },
    {
      "inputs": [
        {
          "internalType": "uint256",
          "name": "newValue",
          "type": "uint256"
        }
      ],
      "name": "setClaimRewardsMin",
      "outputs": [],
      "stateMutability": "nonpayable",
      "type": "function"
    },
    {
      "inputs": [
        {
          "internalType": "uint256",
          "name": "newValue",
          "type": "uint256"
        }
      ],
      "name": "setLiquidityMax",
      "outputs": [],
      "stateMutability": "nonpayable",
      "type": "function"
    },
    {
      "inputs": [
        {
          "internalType": "uint256",
          "name": "newValue",
          "type": "uint256"
        }
      ],
      "name": "setLiquidityMiddle",
      "outputs": [],
      "stateMutability": "nonpayable",
      "type": "function"
    },
    {
      "inputs": [
        {
          "internalType": "uint256",
          "name": "newValue",
          "type": "uint256"
        }
      ],
      "name": "setLiquidityMin",
      "outputs": [],
      "stateMutability": "nonpayable",
      "type": "function"
    },
    {
      "inputs": [
        {
          "internalType": "uint256",
          "name": "newValue",
          "type": "uint256"
        }
      ],
      "name": "setMaxSlippage",
      "outputs": [],
      "stateMutability": "nonpayable",
      "type": "function"
    },
    {
      "inputs": [
        {
          "internalType": "uint256",
          "name": "newValue",
          "type": "uint256"
        }
      ],
      "name": "setReinvestRewardsMin",
      "outputs": [],
      "stateMutability": "nonpayable",
      "type": "function"
    },
    {
      "inputs": [
        {
          "internalType": "uint256",
          "name": "amount",
          "type": "uint256"
        }
      ],
      "name": "swapRewards",
      "outputs": [
        {
          "internalType": "uint256",
          "name": "",
          "type": "uint256"
        },
        {
          "internalType": "uint256",
          "name": "",
          "type": "uint256"
        }
      ],
      "stateMutability": "nonpayable",
      "type": "function"
    },
    {
      "inputs": [],
      "name": "totalInvestable",
      "outputs": [
        {
          "internalType": "uint256",
          "name": "",
          "type": "uint256"
        }
      ],
      "stateMutability": "view",
      "type": "function"
    },
    {
      "inputs": [],
      "name": "unclaimedRewards",
      "outputs": [
        {
          "internalType": "uint256",
          "name": "",
          "type": "uint256"
        }
      ],
      "stateMutability": "view",
      "type": "function"
    },
    {
      "inputs": [],
      "name": "unpause",
      "outputs": [],
      "stateMutability": "nonpayable",
      "type": "function"
    },
    {
      "inputs": [
        {
          "internalType": "address",
          "name": "newImplementation",
          "type": "address"
        }
      ],
      "name": "upgradeTo",
      "outputs": [],
      "stateMutability": "nonpayable",
      "type": "function"
    },
    {
      "inputs": [
        {
          "internalType": "address",
          "name": "newImplementation",
          "type": "address"
        },
        {
          "internalType": "bytes",
          "name": "data",
          "type": "bytes"
        }
      ],
      "name": "upgradeToAndCall",
      "outputs": [],
      "stateMutability": "payable",
      "type": "function"
    }
  ],
  "bytecode": "0x60a06040523060601b60805234801561001757600080fd5b5060805160601c6154c161004b60003960008181610b6c01528181610bac0152818161117d01526111bd01526154c16000f3fe6080604052600436106102675760003560e01c806379d372fc11610144578063aba01a2a116100b6578063f67b2bad1161007a578063f67b2bad146106e3578063f7c618c114610717578063f85f91b41461072c578063f9c4fd1b14610741578063fa67e8d414610756578063fba75b941461077657600080fd5b8063aba01a2a14610650578063c2c4c5c114610670578063cec16f3f14610685578063dc3b352c1461069a578063e5a6b10f146106ce57600080fd5b806385a5a1ae1161010857806385a5a1ae146105c75780638c04166f146105e75780638d7ddd90146105fc5780639eb7165b14610611578063a0c1f15e14610626578063a59a99731461063b57600080fd5b806379d372fc146105465780637afa33311461055b5780637d7c2a1c146105705780637ed5acfa146105855780638456cb59146105b257600080fd5b80634a47a3e0116101dd5780635a89c5ac116101a15780635a89c5ac1461046c5780635b494dd51461048c5780635c975abb146104ae5780635e5415ed146104d157806366bcb771146104f15780636ad3902a1461052657600080fd5b80634a47a3e0146103e45780634ae4f248146104065780634d15eb03146104265780634dd93bd3146104445780634f1ef2861461045957600080fd5b80632630c12f1161022f5780632630c12f1461030d5780633659cfe61461033a5780633b6612c81461035a5780633f4ba83a1461036f57806343f68a4914610384578063468a8c9f146103a457600080fd5b8063054001151461026c57806307b6ed84146102945780631014a0c2146102a95780631a2afb1d146102cb57806324ea54f4146102eb575b600080fd5b34801561027857600080fd5b5061028161078b565b6040519081526020015b60405180910390f35b3480156102a057600080fd5b5060d254610281565b3480156102b557600080fd5b506102c96102c4366004614d53565b6107ae565b005b3480156102d757600080fd5b506102c96102e6366004614d53565b61091a565b3480156102f757600080fd5b5061028160008051602061546c83398151915281565b34801561031957600080fd5b50610322610adf565b6040516001600160a01b03909116815260200161028b565b34801561034657600080fd5b506102c9610355366004614a94565b610b61565b34801561036657600080fd5b5060cd54610281565b34801561037b57600080fd5b506102c9610c2a565b34801561039057600080fd5b506102c961039f366004614d53565b610d4b565b3480156103b057600080fd5b5060c95460408051600160a01b830464ffffffffff168152600160c81b90920466ffffffffffffff1660208301520161028b565b3480156103f057600080fd5b5061028160008051602061544c83398151915281565b34801561041257600080fd5b506102c9610421366004614ccd565b610f29565b34801561043257600080fd5b5060c9546001600160a01b0316610322565b34801561045057600080fd5b50610281610fb7565b6102c9610467366004614b1b565b611172565b34801561047857600080fd5b506102c9610487366004614d53565b611228565b34801561049857600080fd5b5061028160008051602061540583398151915281565b3480156104ba57600080fd5b5060975460ff16604051901515815260200161028b565b3480156104dd57600080fd5b506102c96104ec366004614d53565b6113df565b3480156104fd57600080fd5b5061051161050c366004614d53565b611599565b6040805192835260208301919091520161028b565b34801561053257600080fd5b506102c9610541366004614d85565b6117c4565b34801561055257600080fd5b506102c9611849565b34801561056757600080fd5b50610322611bad565b34801561057c57600080fd5b506102c9611c4e565b34801561059157600080fd5b5061059c6201518081565b60405164ffffffffff909116815260200161028b565b3480156105be57600080fd5b506102c9611c8a565b3480156105d357600080fd5b506102c96105e2366004614d53565b611d7c565b3480156105f357600080fd5b5060d354610281565b34801561060857600080fd5b5060cb54610281565b34801561061d57600080fd5b506102c9611f36565b34801561063257600080fd5b506103226120c6565b34801561064757600080fd5b506103226120e7565b34801561065c57600080fd5b506102c961066b366004614d53565b61212c565b34801561067c57600080fd5b506102c96122ee565b34801561069157600080fd5b506102c96122fe565b3480156106a657600080fd5b506102817fed3e8296abddb00b3f563f774140321369479c87c471890eb52f2e412b5de74c81565b3480156106da57600080fd5b50610322612341565b3480156106ef57600080fd5b506102817fbf372ca3ebecfe59ac256f17697941bbe63302aced610e8b0e3646f743c7beb281565b34801561072357600080fd5b50610322612386565b34801561073857600080fd5b50610281612438565b34801561074d57600080fd5b5060cc54610281565b34801561076257600080fd5b506102c9610771366004614c92565b6125c6565b34801561078257600080fd5b5060d154610281565b600080600061079861264a565b90925090506107a7818361516a565b9250505090565b60c9546001600160a01b0316336001600160a01b0316146107ea5760405162461bcd60e51b81526004016107e190615062565b60405180910390fd5b60006107f4612341565b60c9546040516370a0823160e01b81526001600160a01b0391821660048201529116906370a082319060240160206040518083038186803b15801561083857600080fd5b505afa15801561084c573d6000803e3d6000fd5b505050506040513d601f19601f820116820180604052508101906108709190614d6c565b90508181106108d75760405162461bcd60e51b815260206004820152602d60248201527f4e6f206e65656420746f20726566696c6c207468652077616c6c657420666f7260448201526c081d1a1a5cc81c185e5b595b9d609a1b60648201526084016107e1565b60006108e1610fb7565b905060008260cc54856108f4919061516a565b6108fe91906152f0565b90508181111561090b5750805b61091481612882565b50505050565b60008051602061544c83398151915260008051602061540583398151915260c960009054906101000a90046001600160a01b03166001600160a01b03166379502c556040518163ffffffff1660e01b815260040160206040518083038186803b15801561098657600080fd5b505afa15801561099a573d6000803e3d6000fd5b505050506040513d601f19601f820116820180604052508101906109be9190614ab1565b6001600160a01b031663c5b8f5cf8383336040518463ffffffff1660e01b81526004016109ed93929190614ebe565b60006040518083038186803b158015610a0557600080fd5b505afa158015610a19573d6000803e3d6000fd5b505050506000610a3660008051602061544c833981519152612acc565b159050801580610a595750610a5960cb54856af8277896582678ac000000612bcf565b610ac05760405162461bcd60e51b815260206004820152603260248201527f547765616b2065786365656465643a206c69717569646974794d696e20747765604482015271616b73206f6e6c7920757020746f2033302560701b60648201526084016107e1565b60cb849055610ad160138583612c64565b50610ada612cbd565b505050565b60cf5460408051631f94a27560e31b815290516000926001600160a01b03169163fca513a8916004808301926020929190829003018186803b158015610b2457600080fd5b505afa158015610b38573d6000803e3d6000fd5b505050506040513d601f19601f82011682018060405250810190610b5c9190614ab1565b905090565b306001600160a01b037f0000000000000000000000000000000000000000000000000000000000000000161415610baa5760405162461bcd60e51b81526004016107e190614f10565b7f00000000000000000000000000000000000000000000000000000000000000006001600160a01b0316610bdc612d32565b6001600160a01b031614610c025760405162461bcd60e51b81526004016107e190614f5c565b610c0b81612d60565b60408051600080825260208201909252610c2791839190612e71565b50565b60008051602061546c8339815191527fbf372ca3ebecfe59ac256f17697941bbe63302aced610e8b0e3646f743c7beb260c960009054906101000a90046001600160a01b03166001600160a01b03166379502c556040518163ffffffff1660e01b815260040160206040518083038186803b158015610ca857600080fd5b505afa158015610cbc573d6000803e3d6000fd5b505050506040513d601f19601f82011682018060405250810190610ce09190614ab1565b6001600160a01b031663c5b8f5cf8383336040518463ffffffff1660e01b8152600401610d0f93929190614ebe565b60006040518083038186803b158015610d2757600080fd5b505afa158015610d3b573d6000803e3d6000fd5b50505050610d47612fb5565b5050565b60008051602061544c83398151915260008051602061540583398151915260c960009054906101000a90046001600160a01b03166001600160a01b03166379502c556040518163ffffffff1660e01b815260040160206040518083038186803b158015610db757600080fd5b505afa158015610dcb573d6000803e3d6000fd5b505050506040513d601f19601f82011682018060405250810190610def9190614ab1565b6001600160a01b031663c5b8f5cf8383336040518463ffffffff1660e01b8152600401610e1e93929190614ebe565b60006040518083038186803b158015610e3657600080fd5b505afa158015610e4a573d6000803e3d6000fd5b5050505067016345785d8a0000831115610e765760405162461bcd60e51b81526004016107e190615020565b6000610e8f60008051602061544c833981519152612acc565b159050801580610eb25750610eb260d354856af8277896582678ac000000613048565b610f185760405162461bcd60e51b815260206004820152603160248201527f547765616b2065786365656465643a206d6178536c69707061676520747765616044820152706b73206f6e6c7920757020746f2033302560781b60648201526084016107e1565b60d384905561091460188583612c64565b600054610100900460ff1680610f42575060005460ff16155b610f5e5760405162461bcd60e51b81526004016107e190614fd2565b600054610100900460ff16158015610f80576000805461ffff19166101011790555b610f8c8a8a8a8a6125c6565b610f9986868686866130b7565b8015610fab576000805461ff00191690555b50505050505050505050565b600080610fc26120c6565b6040516370a0823160e01b81523060048201526001600160a01b0391909116906370a082319060240160206040518083038186803b15801561100357600080fd5b505afa158015611017573d6000803e3d6000fd5b505050506040513d601f19601f8201168201806040525081019061103b9190614d6c565b90506000611047612438565b61104f611bad565b6040516370a0823160e01b81523060048201526001600160a01b0391909116906370a082319060240160206040518083038186803b15801561109057600080fd5b505afa1580156110a4573d6000803e3d6000fd5b505050506040513d601f19601f820116820180604052508101906110c89190614d6c565b6110d0612386565b6040516370a0823160e01b81523060048201526001600160a01b0391909116906370a082319060240160206040518083038186803b15801561111157600080fd5b505afa158015611125573d6000803e3d6000fd5b505050506040513d601f19601f820116820180604052508101906111499190614d6c565b611153919061516a565b61115d919061516a565b90506111688161318f565b6107a7908361516a565b306001600160a01b037f00000000000000000000000000000000000000000000000000000000000000001614156111bb5760405162461bcd60e51b81526004016107e190614f10565b7f00000000000000000000000000000000000000000000000000000000000000006001600160a01b03166111ed612d32565b6001600160a01b0316146112135760405162461bcd60e51b81526004016107e190614f5c565b61121c82612d60565b610d4782826001612e71565b60008051602061544c83398151915260008051602061540583398151915260c960009054906101000a90046001600160a01b03166001600160a01b03166379502c556040518163ffffffff1660e01b815260040160206040518083038186803b15801561129457600080fd5b505afa1580156112a8573d6000803e3d6000fd5b505050506040513d601f19601f820116820180604052508101906112cc9190614ab1565b6001600160a01b031663c5b8f5cf8383336040518463ffffffff1660e01b81526004016112fb93929190614ebe565b60006040518083038186803b15801561131357600080fd5b505afa158015611327573d6000803e3d6000fd5b50505050600061134460008051602061544c833981519152612acc565b159050801580611367575061136760cd54856af8277896582678ac000000612bcf565b6113ce5760405162461bcd60e51b815260206004820152603260248201527f547765616b2065786365656465643a206c69717569646974794d617820747765604482015271616b73206f6e6c7920757020746f2033302560701b60648201526084016107e1565b60cd849055610ad160158583612c64565b60008051602061544c83398151915260008051602061540583398151915260c960009054906101000a90046001600160a01b03166001600160a01b03166379502c556040518163ffffffff1660e01b815260040160206040518083038186803b15801561144b57600080fd5b505afa15801561145f573d6000803e3d6000fd5b505050506040513d601f19601f820116820180604052508101906114839190614ab1565b6001600160a01b031663c5b8f5cf8383336040518463ffffffff1660e01b81526004016114b293929190614ebe565b60006040518083038186803b1580156114ca57600080fd5b505afa1580156114de573d6000803e3d6000fd5b5050505060006114fb60008051602061544c833981519152612acc565b15905080158061151e575061151e60d154856af8277896582678ac000000613048565b6115885760405162461bcd60e51b815260206004820152603560248201527f547765616b2065786365656465643a20636c61696d526577617264734d696e20604482015274747765616b73206f6e6c7920757020746f2033302560581b60648201526084016107e1565b60d184905561091460168583612c64565b6000807fed3e8296abddb00b3f563f774140321369479c87c471890eb52f2e412b5de74c60c960009054906101000a90046001600160a01b03166001600160a01b03166379502c556040518163ffffffff1660e01b815260040160206040518083038186803b15801561160b57600080fd5b505afa15801561161f573d6000803e3d6000fd5b505050506040513d601f19601f820116820180604052508101906116439190614ab1565b6040516312d9a6ad60e01b8152600481018390523360248201526001600160a01b0391909116906312d9a6ad9060440160006040518083038186803b15801561168b57600080fd5b505afa15801561169f573d6000803e3d6000fd5b505050506000806116b086306135bf565b9150915060006116be6120e7565b905060006116ca612341565b60405163095ea7b360e01b81526001600160a01b038481166004830152602482018690529192509082169063095ea7b390604401602060405180830381600087803b15801561171857600080fd5b505af115801561172c573d6000803e3d6000fd5b505050506040513d601f19601f820116820180604052508101906117509190614c70565b5060405163e8eda9df60e01b81526001600160a01b0383169063e8eda9df9061178490849087903090600090600401614e34565b600060405180830381600087803b15801561179e57600080fd5b505af11580156117b2573d6000803e3d6000fd5b50959850939650505050505050915091565b600054610100900460ff16806117dd575060005460ff16155b6117f95760405162461bcd60e51b81526004016107e190614fd2565b600054610100900460ff1615801561181b576000805461ffff19166101011790555b60cb84905560cc83905560cd829055611832612cbd565b8015610914576000805461ff001916905550505050565b60975460ff161561186c5760405162461bcd60e51b81526004016107e190614fa8565b6000611876610fb7565b905060008060ce5483111561189d5760ce5461189290846152f0565b9050600191506118bc565b60ce54831015610ada578260ce546118b591906152f0565b9050600091505b6000806118c761264a565b909250905060006118d8828461516a565b60c9549091506001600160a01b031663ab600169611900836118fa88886139c2565b90613a93565b6040516001600160e01b031960e084901b16815260048101919091528715156024820152604401600060405180830381600087803b15801561194157600080fd5b505af1158015611955573d6000803e3d6000fd5b5050505060005b60c960009054906101000a90046001600160a01b03166001600160a01b031663dea167d56040518163ffffffff1660e01b815260040160206040518083038186803b1580156119aa57600080fd5b505afa1580156119be573d6000803e3d6000fd5b505050506040513d601f19601f820116820180604052508101906119e29190614d6c565b811015611b635760c95460405163b0ec4bcf60e01b8152600481018390526000916001600160a01b03169063b0ec4bcf9060240160206040518083038186803b158015611a2e57600080fd5b505afa158015611a42573d6000803e3d6000fd5b505050506040513d601f19601f82011682018060405250810190611a669190614ab1565b9050806001600160a01b031663ab600169611af6856118fa856001600160a01b03166365e29c7e6040518163ffffffff1660e01b815260040160206040518083038186803b158015611ab757600080fd5b505afa158015611acb573d6000803e3d6000fd5b505050506040513d601f19601f82011682018060405250810190611aef9190614d6c565b8b906139c2565b6040516001600160e01b031960e084901b16815260048101919091528915156024820152604401600060405180830381600087803b158015611b3757600080fd5b505af1158015611b4b573d6000803e3d6000fd5b50505050508080611b5b9061537c565b91505061195c565b5060ce869055604080518615158152602081018690527f91a6cbd27bc7cdd21da57fbb08ebfaf5cece633ca7dd5f1741bff39f4be3ad4f910160405180910390a15050505050505b565b600080611bb8613b9b565b6001600160a01b031663d2493b6c611bce612386565b6040516001600160e01b031960e084901b1681526001600160a01b03909116600482015260240160606040518083038186803b158015611c0d57600080fd5b505afa158015611c21573d6000803e3d6000fd5b505050506040513d601f19601f82011682018060405250810190611c459190614ace565b50909392505050565b60975460ff1615611c715760405162461bcd60e51b81526004016107e190614fa8565b611c79613be3565b50611c82613d6b565b611bab611f36565b60c954604080516379502c5560e01b8152905160008051602061546c833981519152926001600160a01b0316916379502c55916004808301926020929190829003018186803b158015611cdc57600080fd5b505afa158015611cf0573d6000803e3d6000fd5b505050506040513d601f19601f82011682018060405250810190611d149190614ab1565b6040516312d9a6ad60e01b8152600481018390523360248201526001600160a01b0391909116906312d9a6ad9060440160006040518083038186803b158015611d5c57600080fd5b505afa158015611d70573d6000803e3d6000fd5b50505050610c27613e51565b60008051602061544c83398151915260008051602061540583398151915260c960009054906101000a90046001600160a01b03166001600160a01b03166379502c556040518163ffffffff1660e01b815260040160206040518083038186803b158015611de857600080fd5b505afa158015611dfc573d6000803e3d6000fd5b505050506040513d601f19601f82011682018060405250810190611e209190614ab1565b6001600160a01b031663c5b8f5cf8383336040518463ffffffff1660e01b8152600401611e4f93929190614ebe565b60006040518083038186803b158015611e6757600080fd5b505afa158015611e7b573d6000803e3d6000fd5b505050506000611e9860008051602061544c833981519152612acc565b159050801580611ebb5750611ebb60cc54856af8277896582678ac000000612bcf565b611f255760405162461bcd60e51b815260206004820152603560248201527f547765616b2065786365656465643a206c69717569646974794d6964646c6520604482015274747765616b73206f6e6c7920757020746f2033302560581b60648201526084016107e1565b60cc849055610ad160148583612c64565b6000611f406120e7565b90506000611f4c612386565b6040516370a0823160e01b81523060048201529091506000906001600160a01b038316906370a082319060240160206040518083038186803b158015611f9157600080fd5b505afa158015611fa5573d6000803e3d6000fd5b505050506040513d601f19601f82011682018060405250810190611fc99190614d6c565b905060d2548111611fd957505050565b60405163095ea7b360e01b81526001600160a01b0384811660048301526024820183905283169063095ea7b390604401602060405180830381600087803b15801561202357600080fd5b505af1158015612037573d6000803e3d6000fd5b505050506040513d601f19601f8201168201806040525081019061205b9190614c70565b5060405163e8eda9df60e01b81526001600160a01b0384169063e8eda9df9061208f90859085903090600090600401614e34565b600060405180830381600087803b1580156120a957600080fd5b505af11580156120bd573d6000803e3d6000fd5b50505050505050565b6000806120d1613b9b565b6001600160a01b031663d2493b6c611bce612341565b60cf5460408051630261bf8b60e01b815290516000926001600160a01b031691630261bf8b916004808301926020929190829003018186803b158015610b2457600080fd5b60008051602061544c83398151915260008051602061540583398151915260c960009054906101000a90046001600160a01b03166001600160a01b03166379502c556040518163ffffffff1660e01b815260040160206040518083038186803b15801561219857600080fd5b505afa1580156121ac573d6000803e3d6000fd5b505050506040513d601f19601f820116820180604052508101906121d09190614ab1565b6001600160a01b031663c5b8f5cf8383336040518463ffffffff1660e01b81526004016121ff93929190614ebe565b60006040518083038186803b15801561221757600080fd5b505afa15801561222b573d6000803e3d6000fd5b50505050600061224860008051602061544c833981519152612acc565b15905080158061226b575061226b60d254856af8277896582678ac000000613048565b6122dd5760405162461bcd60e51b815260206004820152603860248201527f547765616b2065786365656465643a207265696e76657374526577617264734d60448201527f696e20747765616b73206f6e6c7920757020746f20333025000000000000000060648201526084016107e1565b60d284905561091460178583612c64565b6122f6611849565b611bab611c4e565b60c9546001600160a01b0316336001600160a01b0316146123315760405162461bcd60e51b81526004016107e190615062565b611bab61233c610fb7565b612882565b60c9546040805163e5a6b10f60e01b815290516000926001600160a01b03169163e5a6b10f916004808301926020929190829003018186803b158015610b2457600080fd5b60006123906120c6565b6001600160a01b03166375d264136040518163ffffffff1660e01b815260040160206040518083038186803b1580156123c857600080fd5b505afa1580156123dc573d6000803e3d6000fd5b505050506040513d601f19601f820116820180604052508101906124009190614ab1565b6001600160a01b03166399248ea76040518163ffffffff1660e01b815260040160206040518083038186803b158015610b2457600080fd5b6000806124436120c6565b6040805160028082526060820183529293506000929091602083019080368337019050509050818160008151811061247d5761247d6153c3565b60200260200101906001600160a01b031690816001600160a01b0316815250506124a5611bad565b816001815181106124b8576124b86153c3565b60200260200101906001600160a01b031690816001600160a01b031681525050816001600160a01b03166375d264136040518163ffffffff1660e01b815260040160206040518083038186803b15801561251157600080fd5b505afa158015612525573d6000803e3d6000fd5b505050506040513d601f19601f820116820180604052508101906125499190614ab1565b6001600160a01b0316638b599f2682306040518363ffffffff1660e01b8152600401612576929190614e61565b60206040518083038186803b15801561258e57600080fd5b505afa1580156125a2573d6000803e3d6000fd5b505050506040513d601f19601f820116820180604052508101906107a79190614d6c565b600054610100900460ff16806125df575060005460ff16155b6125fb5760405162461bcd60e51b81526004016107e190614fd2565b600054610100900460ff1615801561261d576000805461ffff19166101011790555b61262685613ea9565b6126318484846117c4565b8015612643576000805461ff00191690555b5050505050565b600080600060c960009054906101000a90046001600160a01b03166001600160a01b03166365e29c7e6040518163ffffffff1660e01b815260040160206040518083038186803b15801561269d57600080fd5b505afa1580156126b1573d6000803e3d6000fd5b505050506040513d601f19601f820116820180604052508101906126d59190614d6c565b90506000805b60c960009054906101000a90046001600160a01b03166001600160a01b031663dea167d56040518163ffffffff1660e01b815260040160206040518083038186803b15801561272957600080fd5b505afa15801561273d573d6000803e3d6000fd5b505050506040513d601f19601f820116820180604052508101906127619190614d6c565b8110156128785760c95460405163b0ec4bcf60e01b8152600481018390526000916001600160a01b03169063b0ec4bcf9060240160206040518083038186803b1580156127ad57600080fd5b505afa1580156127c1573d6000803e3d6000fd5b505050506040513d601f19601f820116820180604052508101906127e59190614ab1565b9050806001600160a01b03166365e29c7e6040518163ffffffff1660e01b815260040160206040518083038186803b15801561282057600080fd5b505afa158015612834573d6000803e3d6000fd5b505050506040513d601f19601f820116820180604052508101906128589190614d6c565b612862908461516a565b92505080806128709061537c565b9150506126db565b5090939092509050565b80808061288d6120c6565b6040516370a0823160e01b81523060048201526001600160a01b0391909116906370a082319060240160206040518083038186803b1580156128ce57600080fd5b505afa1580156128e2573d6000803e3d6000fd5b505050506040513d601f19601f820116820180604052508101906129069190614d6c565b101561291157506000195b6129196120e7565b6001600160a01b03166369328dec61292f612341565b60c95460405160e084901b6001600160e01b03191681526001600160a01b0392831660048201526024810186905291166044820152606401602060405180830381600087803b15801561298157600080fd5b505af1158015612995573d6000803e3d6000fd5b505050506040513d601f19601f820116820180604052508101906129b99190614d6c565b6129c390836152f0565b91508115612aba5760d0546000906001600160a01b0316631f00ca74846129e8613f2e565b6040518363ffffffff1660e01b8152600401612a059291906150a3565b60006040518083038186803b158015612a1d57600080fd5b505afa158015612a31573d6000803e3d6000fd5b505050506040513d6000823e601f3d908101601f19168201604052612a599190810190614bc3565b600081518110612a6b57612a6b6153c3565b602002602001015190506000612a968260c960009054906101000a90046001600160a01b03166135bf565b91505083811015612ab257612aab81856152f0565b9350612ab7565b600093505b50505b610ada612ac783856152f0565b613fc6565b60c954604080516379502c5560e01b815290516000926001600160a01b0316916379502c55916004808301926020929190829003018186803b158015612b1157600080fd5b505afa158015612b25573d6000803e3d6000fd5b505050506040513d601f19601f82011682018060405250810190612b499190614ab1565b604051632474521560e21b8152600481018490523360248201526001600160a01b0391909116906391d148549060440160206040518083038186803b158015612b9157600080fd5b505afa158015612ba5573d6000803e3d6000fd5b505050506040513d601f19601f82011682018060405250810190612bc99190614c70565b92915050565b600082841415612be157506001612c5d565b83612bfc57506b033b2e3c9fd0803ce8000000811015612c5d565b82612c0957506000612c5d565b82841015612c3c57816b033b2e3c9fd0803ce8000000612c298587614037565b612c3391906152f0565b11159050612c5d565b81612c478486614037565b612c33906b033b2e3c9fd0803ce80000006152f0565b9392505050565b8015612c7357612c738361412b565b826019811115612c8557612c856153ad565b6040518381527f7bc647fe5043209e2019aa3503b79c1b0dd83eb61c56013d373a7584ff6bfb139060200160405180910390a2505050565b60cc5460cb5411158015612cd5575060cd5460cc5411155b611bab5760405162461bcd60e51b815260206004820152602860248201527f56616c69646174696f6e3a204c6971756964697479206c696d69747320617265604482015267081a5b9d985b1a5960c21b60648201526084016107e1565b7f360894a13ba1a3210667c828492db98dca3e2076cc3735a920a3ca505d382bbc546001600160a01b031690565b60008051602061546c8339815191527fbf372ca3ebecfe59ac256f17697941bbe63302aced610e8b0e3646f743c7beb260c960009054906101000a90046001600160a01b03166001600160a01b03166379502c556040518163ffffffff1660e01b815260040160206040518083038186803b158015612dde57600080fd5b505afa158015612df2573d6000803e3d6000fd5b505050506040513d601f19601f82011682018060405250810190612e169190614ab1565b6001600160a01b031663c5b8f5cf8383336040518463ffffffff1660e01b8152600401612e4593929190614ebe565b60006040518083038186803b158015612e5d57600080fd5b505afa1580156120bd573d6000803e3d6000fd5b6000612e7b612d32565b9050612e86846142aa565b600083511180612e935750815b15612ea457612ea2848461434f565b505b7f4910fdfa16fed3260ed0e7147f7cc6da11a60208b5b9406d12a635614ffd9143805460ff1661264357805460ff191660011781556040516001600160a01b0383166024820152612f2390869060440160408051601f198184030181529190526020810180516001600160e01b0316631b2ce7f360e11b17905261434f565b50805460ff19168155612f34612d32565b6001600160a01b0316826001600160a01b031614612fac5760405162461bcd60e51b815260206004820152602f60248201527f45524331393637557067726164653a207570677261646520627265616b73206660448201526e75727468657220757067726164657360881b60648201526084016107e1565b6126438561443a565b60975460ff16612ffe5760405162461bcd60e51b815260206004820152601460248201527314185d5cd8589b194e881b9bdd081c185d5cd95960621b60448201526064016107e1565b6097805460ff191690557f5db9ee0a495bf2e6ff9c91a7834c1ba4fdd244a5e8aa4e537bd38aeae4b073aa335b6040516001600160a01b03909116815260200160405180910390a1565b60008284141561305a57506001612c5d565b836130715750670de0b6b3a7640000811015612c5d565b8261307e57506000612c5d565b8284101561309a5781670de0b6b3a7640000612c298587613a93565b816130a58486613a93565b612c3390670de0b6b3a76400006152f0565b600054610100900460ff16806130d0575060005460ff16155b6130ec5760405162461bcd60e51b81526004016107e190614fd2565b600054610100900460ff1615801561310e576000805461ffff19166101011790555b60cf80546001600160a01b038089166001600160a01b03199283161790925560d080549288169290911691909117905560d184905560d283905567016345785d8a00008211156131705760405162461bcd60e51b81526004016107e190615020565b60d38290558015613187576000805461ff00191690555b505050505050565b60008061319a610adf565b905060006131a6612386565b905060006131b2612341565b60405163b3596f0760e01b81526001600160a01b0380831660048301529192506000916132af919086169063b3596f079060240160206040518083038186803b1580156131fe57600080fd5b505afa158015613212573d6000803e3d6000fd5b505050506040513d601f19601f820116820180604052508101906132369190614d6c565b60405163b3596f0760e01b81526001600160a01b03868116600483015287169063b3596f079060240160206040518083038186803b15801561327757600080fd5b505afa15801561328b573d6000803e3d6000fd5b505050506040513d601f19601f820116820180604052508101906118fa9190614d6c565b9050816001600160a01b031663313ce5676040518163ffffffff1660e01b815260040160206040518083038186803b1580156132ea57600080fd5b505afa1580156132fe573d6000803e3d6000fd5b505050506040513d601f19601f820116820180604052508101906133229190614db1565b60ff16836001600160a01b031663313ce5676040518163ffffffff1660e01b815260040160206040518083038186803b15801561335e57600080fd5b505afa158015613372573d6000803e3d6000fd5b505050506040513d601f19601f820116820180604052508101906133969190614db1565b60ff1611156134a757816001600160a01b031663313ce5676040518163ffffffff1660e01b815260040160206040518083038186803b1580156133d857600080fd5b505afa1580156133ec573d6000803e3d6000fd5b505050506040513d601f19601f820116820180604052508101906134109190614db1565b836001600160a01b031663313ce5676040518163ffffffff1660e01b815260040160206040518083038186803b15801561344957600080fd5b505afa15801561345d573d6000803e3d6000fd5b505050506040513d601f19601f820116820180604052508101906134819190614db1565b61348b919061532d565b61349690600a6151e7565b6134a09082615182565b90506135ab565b816001600160a01b031663313ce5676040518163ffffffff1660e01b815260040160206040518083038186803b1580156134e057600080fd5b505afa1580156134f4573d6000803e3d6000fd5b505050506040513d601f19601f820116820180604052508101906135189190614db1565b836001600160a01b031663313ce5676040518163ffffffff1660e01b815260040160206040518083038186803b15801561355157600080fd5b505afa158015613565573d6000803e3d6000fd5b505050506040513d601f19601f820116820180604052508101906135899190614db1565b613593919061532d565b61359e90600a6151e7565b6135a89082615292565b90505b6135b586826139c2565b9695505050505050565b60008060006135cc613f2e565b90506000816000815181106135e3576135e36153c3565b60209081029190910101516040516370a0823160e01b81523060048201526001600160a01b03909116906370a082319060240160206040518083038186803b15801561362e57600080fd5b505afa158015613642573d6000803e3d6000fd5b505050506040513d601f19601f820116820180604052508101906136669190614d6c565b9050858110156137d757600061367c82886152f0565b905080613687611bad565b6040516370a0823160e01b81523060048201526001600160a01b0391909116906370a082319060240160206040518083038186803b1580156136c857600080fd5b505afa1580156136dc573d6000803e3d6000fd5b505050506040513d601f19601f820116820180604052508101906137009190614d6c565b101561370b57506000195b6137136120e7565b6001600160a01b03166369328dec84600081518110613734576137346153c3565b60209081029190910101516040516001600160e01b031960e084901b1681526001600160a01b03909116600482015260248101849052306044820152606401602060405180830381600087803b15801561378d57600080fd5b505af11580156137a1573d6000803e3d6000fd5b505050506040513d601f19601f820116820180604052508101906137c59190614d6c565b6137cf908361516a565b9150506137da565b50845b600061380460d354670de0b6b3a76400006137f591906152f0565b6137fe8461318f565b906139c2565b905082600081518110613819576138196153c3565b602090810291909101015160d05460405163095ea7b360e01b81526001600160a01b0391821660048201526024810185905291169063095ea7b390604401602060405180830381600087803b15801561387157600080fd5b505af1158015613885573d6000803e3d6000fd5b505050506040513d601f19601f820116820180604052508101906138a99190614c70565b5060d0546040516338ed173960e01b81526000916001600160a01b0316906338ed1739906138e3908690869089908d9042906004016150bc565b600060405180830381600087803b1580156138fd57600080fd5b505af1158015613911573d6000803e3d6000fd5b505050506040513d6000823e601f3d908101601f191682016040526139399190810190614bc3565b90507f63b0a0ad718a7c8cb64e4057058462c7495069b51821314a190b025aba7d50198382600181518110613970576139706153c3565b602002602001015160405161398f929190918252602082015260400190565b60405180910390a182816001815181106139ab576139ab6153c3565b602002602001015195509550505050509250929050565b60008215806139cf575081155b156139dc57506000612bc9565b816139f06002670de0b6b3a7640000615182565b6139fc906000196152f0565b613a069190615182565b831115613a615760405162461bcd60e51b8152602060048201526024808201527f7761644d756c3a204d617468204d756c7469706c69636174696f6e204f766572604482015263666c6f7760e01b60648201526084016107e1565b670de0b6b3a7640000613a75600282615182565b613a7f8486615292565b613a89919061516a565b612c5d9190615182565b600081613ae25760405162461bcd60e51b815260206004820152601860248201527f7761644469763a204469766973696f6e206279207a65726f000000000000000060448201526064016107e1565b6000613aef600284615182565b9050670de0b6b3a7640000613b06826000196152f0565b613b109190615182565b841115613b6b5760405162461bcd60e51b8152602060048201526024808201527f7761644469763a204d617468204d756c7469706c69636174696f6e204f766572604482015263666c6f7760e01b60648201526084016107e1565b8281613b7f670de0b6b3a764000087615292565b613b89919061516a565b613b939190615182565b949350505050565b60cf546040516321f8a72160e01b8152600160f81b60048201526000916001600160a01b0316906321f8a7219060240160206040518083038186803b158015610b2457600080fd5b600060d154613bf0612438565b1115613d65576000613c006120c6565b60408051600280825260608201835292935060009290916020830190803683370190505090508181600081518110613c3a57613c3a6153c3565b60200260200101906001600160a01b031690816001600160a01b031681525050613c62611bad565b81600181518110613c7557613c756153c3565b60200260200101906001600160a01b031690816001600160a01b031681525050816001600160a01b03166375d264136040518163ffffffff1660e01b815260040160206040518083038186803b158015613cce57600080fd5b505afa158015613ce2573d6000803e3d6000fd5b505050506040513d601f19601f82011682018060405250810190613d069190614ab1565b6001600160a01b0316633111e7b382600019306040518463ffffffff1660e01b8152600401613d3793929190614e8b565b602060405180830381600087803b158015613d5157600080fd5b505af11580156125a2573d6000803e3d6000fd5b50600090565b60975460ff1615613d8e5760405162461bcd60e51b81526004016107e190614fa8565b6000613d98612341565b60c9546040516370a0823160e01b81526001600160a01b0391821660048201529116906370a082319060240160206040518083038186803b158015613ddc57600080fd5b505afa158015613df0573d6000803e3d6000fd5b505050506040513d601f19601f82011682018060405250810190613e149190614d6c565b905060cd54811115613e3657610c2760cc5482613e3191906152f0565b61447a565b60cb54811015610c2757610c278160cc5461233c91906152f0565b60975460ff1615613e745760405162461bcd60e51b81526004016107e190614fa8565b6097805460ff191660011790557f62e78cea01bee320cd4e420270b5ea74000d11b0c9f74754ebdbfc544b05a25861302b3390565b600054610100900460ff1680613ec2575060005460ff16155b613ede5760405162461bcd60e51b81526004016107e190614fd2565b600054610100900460ff16158015613f00576000805461ffff19166101011790555b613f0861459f565b613f1061461a565b613f1982614681565b8015610d47576000805461ff00191690555050565b60408051600280825260608083018452926000929190602083019080368337019050509050613f5b612386565b81600081518110613f6e57613f6e6153c3565b60200260200101906001600160a01b031690816001600160a01b031681525050613f96612341565b81600181518110613fa957613fa96153c3565b6001600160a01b0390921660209283029190910190910152919050565b8060ca6000828254613fd891906152b1565b909155505060ce54613fea9082614708565b60ce6000828254613ffb91906152f0565b90915550506040518181527fb82d4e0870bf4ae7236ad1de74d6612d04d1b805b47d98c2f40088a193d87c65906020015b60405180910390a150565b6000816140865760405162461bcd60e51b815260206004820152601860248201527f7261794469763a204469766973696f6e206279207a65726f000000000000000060448201526064016107e1565b6000614093600284615182565b90506b033b2e3c9fd0803ce80000006140ae826000196152f0565b6140b89190615182565b8411156141135760405162461bcd60e51b8152602060048201526024808201527f7261794469763a204d617468204d756c7469706c69636174696f6e204f766572604482015263666c6f7760e01b60648201526084016107e1565b8281613b7f6b033b2e3c9fd0803ce800000087615292565b60006001826019811115614141576141416153ad565b61414b919061532d565b60c954600160ff929092169190911b9150620151809061417990600160a01b900464ffffffffff1642615307565b64ffffffffff1611156141c75760c9805466ffffffffffffff8316600160c81b026001600160c81b0364ffffffffff4216600160a01b02166001600160a01b03909216919091171790555050565b60c954600160c81b9004811666ffffffffffffff1661422c5760c9805464ffffffffff4216600160a01b0264ffffffffff60a01b1966ffffffffffffff808616600160c81b808604929092161702166001600160a01b03909216919091171790555050565b60405162461bcd60e51b815260206004820152604760248201527f596f7520616c726561647920747765616b6564207468697320706172616d657460448201527f657220726563656e746c792e2057616974206265666f726520747765616b696e606482015266339030b3b0b4b760c91b608482015260a4016107e1565b803b61430e5760405162461bcd60e51b815260206004820152602d60248201527f455243313936373a206e657720696d706c656d656e746174696f6e206973206e60448201526c1bdd08184818dbdb9d1c9858dd609a1b60648201526084016107e1565b7f360894a13ba1a3210667c828492db98dca3e2076cc3735a920a3ca505d382bbc80546001600160a01b0319166001600160a01b0392909216919091179055565b6060823b6143ae5760405162461bcd60e51b815260206004820152602660248201527f416464726573733a2064656c65676174652063616c6c20746f206e6f6e2d636f6044820152651b9d1c9858dd60d21b60648201526084016107e1565b600080846001600160a01b0316846040516143c99190614e18565b600060405180830381855af49150503d8060008114614404576040519150601f19603f3d011682016040523d82523d6000602084013e614409565b606091505b509150915061443182826040518060600160405280602781526020016154256027913961471e565b95945050505050565b614443816142aa565b6040516001600160a01b038216907fbc7cd75a20ee27fd9adebab32041f755214dbc6bffa90cc0225b39da2e5c2d3b90600090a250565b60006144846120e7565b90506000614490612341565b60c9549091506144ae906001600160a01b0380841691163086614757565b60405163095ea7b360e01b81526001600160a01b0383811660048301526024820185905282169063095ea7b390604401602060405180830381600087803b1580156144f857600080fd5b505af115801561450c573d6000803e3d6000fd5b505050506040513d601f19601f820116820180604052508101906145309190614c70565b5060405163e8eda9df60e01b81526001600160a01b0383169063e8eda9df9061456490849087903090600090600401614e34565b600060405180830381600087803b15801561457e57600080fd5b505af1158015614592573d6000803e3d6000fd5b50505050610ada836147b1565b600054610100900460ff16806145b8575060005460ff16155b6145d45760405162461bcd60e51b81526004016107e190614fd2565b600054610100900460ff161580156145f6576000805461ffff19166101011790555b6145fe614811565b614606614811565b8015610c27576000805461ff001916905550565b600054610100900460ff1680614633575060005460ff16155b61464f5760405162461bcd60e51b81526004016107e190614fd2565b600054610100900460ff16158015614671576000805461ffff19166101011790555b614679614811565b61460661487b565b600054610100900460ff168061469a575060005460ff16155b6146b65760405162461bcd60e51b81526004016107e190614fd2565b600054610100900460ff161580156146d8576000805461ffff19166101011790555b60c980546001600160a01b0319166001600160a01b0384161790558015610d47576000805461ff00191690555050565b60008183106147175781612c5d565b5090919050565b6060831561472d575081612c5d565b82511561473d5782518084602001fd5b8160405162461bcd60e51b81526004016107e19190614edd565b604080516001600160a01b0385811660248301528416604482015260648082018490528251808303909101815260849091019091526020810180516001600160e01b03166323b872dd60e01b1790526109149085906148f0565b8060ca60008282546147c39190615129565b925050819055508060ce60008282546147dc919061516a565b90915550506040518181527f0f0cdeac88e111e1dd9b9f043e8c671053dedfbaeccabfb144fd51a4f870fcf49060200161402c565b600054610100900460ff168061482a575060005460ff16155b6148465760405162461bcd60e51b81526004016107e190614fd2565b600054610100900460ff16158015614606576000805461ffff19166101011790558015610c27576000805461ff001916905550565b600054610100900460ff1680614894575060005460ff16155b6148b05760405162461bcd60e51b81526004016107e190614fd2565b600054610100900460ff161580156148d2576000805461ffff19166101011790555b6097805460ff191690558015610c27576000805461ff001916905550565b6000614945826040518060400160405280602081526020017f5361666545524332303a206c6f772d6c6576656c2063616c6c206661696c6564815250856001600160a01b03166149c29092919063ffffffff16565b805190915015610ada57808060200190518101906149639190614c70565b610ada5760405162461bcd60e51b815260206004820152602a60248201527f5361666545524332303a204552433230206f7065726174696f6e20646964206e6044820152691bdd081cdd58d8d9595960b21b60648201526084016107e1565b6060613b93848460008585843b614a1b5760405162461bcd60e51b815260206004820152601d60248201527f416464726573733a2063616c6c20746f206e6f6e2d636f6e747261637400000060448201526064016107e1565b600080866001600160a01b03168587604051614a379190614e18565b60006040518083038185875af1925050503d8060008114614a74576040519150601f19603f3d011682016040523d82523d6000602084013e614a79565b606091505b5091509150614a8982828661471e565b979650505050505050565b600060208284031215614aa657600080fd5b8135612c5d816153ef565b600060208284031215614ac357600080fd5b8151612c5d816153ef565b600080600060608486031215614ae357600080fd5b8351614aee816153ef565b6020850151909350614aff816153ef565b6040850151909250614b10816153ef565b809150509250925092565b60008060408385031215614b2e57600080fd5b8235614b39816153ef565b915060208381013567ffffffffffffffff80821115614b5757600080fd5b818601915086601f830112614b6b57600080fd5b813581811115614b7d57614b7d6153d9565b614b8f601f8201601f191685016150f8565b91508082528784828501011115614ba557600080fd5b80848401858401376000848284010152508093505050509250929050565b60006020808385031215614bd657600080fd5b825167ffffffffffffffff80821115614bee57600080fd5b818501915085601f830112614c0257600080fd5b815181811115614c1457614c146153d9565b8060051b9150614c258483016150f8565b8181528481019084860184860187018a1015614c4057600080fd5b600095505b83861015614c63578051835260019590950194918601918601614c45565b5098975050505050505050565b600060208284031215614c8257600080fd5b81518015158114612c5d57600080fd5b60008060008060808587031215614ca857600080fd5b8435614cb3816153ef565b966020860135965060408601359560600135945092505050565b60008060008060008060008060006101208a8c031215614cec57600080fd5b8935614cf7816153ef565b985060208a0135975060408a0135965060608a0135955060808a0135614d1c816153ef565b945060a08a0135614d2c816153ef565b8094505060c08a0135925060e08a013591506101008a013590509295985092959850929598565b600060208284031215614d6557600080fd5b5035919050565b600060208284031215614d7e57600080fd5b5051919050565b600080600060608486031215614d9a57600080fd5b505081359360208301359350604090920135919050565b600060208284031215614dc357600080fd5b815160ff81168114612c5d57600080fd5b600081518084526020808501945080840160005b83811015614e0d5781516001600160a01b031687529582019590820190600101614de8565b509495945050505050565b60008251614e2a818460208701615350565b9190910192915050565b6001600160a01b03948516815260208101939093529216604082015261ffff909116606082015260800190565b604081526000614e746040830185614dd4565b905060018060a01b03831660208301529392505050565b606081526000614e9e6060830186614dd4565b6020830194909452506001600160a01b0391909116604090910152919050565b92835260208301919091526001600160a01b0316604082015260600190565b6020815260008251806020840152614efc816040850160208701615350565b601f01601f19169190910160400192915050565b6020808252602c908201527f46756e6374696f6e206d7573742062652063616c6c6564207468726f7567682060408201526b19195b1959d85d1958d85b1b60a21b606082015260800190565b6020808252602c908201527f46756e6374696f6e206d7573742062652063616c6c6564207468726f7567682060408201526b6163746976652070726f787960a01b606082015260800190565b60208082526010908201526f14185d5cd8589b194e881c185d5cd95960821b604082015260600190565b6020808252602e908201527f496e697469616c697a61626c653a20636f6e747261637420697320616c72656160408201526d191e481a5b9a5d1a585b1a5e995960921b606082015260800190565b60208082526022908201527f6d6178536c6970706167652063616e2774206265206d6f7265207468616e2031604082015261302560f01b606082015260800190565b60208082526021908201527f5468652063616c6c6572206d7573742062652074686520506f6c696379506f6f6040820152601b60fa1b606082015260800190565b828152604060208201526000613b936040830184614dd4565b85815284602082015260a0604082015260006150db60a0830186614dd4565b6001600160a01b0394909416606083015250608001529392505050565b604051601f8201601f1916810167ffffffffffffffff81118282101715615121576151216153d9565b604052919050565b600080821280156001600160ff1b038490038513161561514b5761514b615397565b600160ff1b839003841281161561516457615164615397565b50500190565b6000821982111561517d5761517d615397565b500190565b60008261519f57634e487b7160e01b600052601260045260246000fd5b500490565b600181815b808511156151df5781600019048211156151c5576151c5615397565b808516156151d257918102915b93841c93908002906151a9565b509250929050565b6000612c5d60ff84168360008261520057506001612bc9565b8161520d57506000612bc9565b8160018114615223576002811461522d57615249565b6001915050612bc9565b60ff84111561523e5761523e615397565b50506001821b612bc9565b5060208310610133831016604e8410600b841016171561526c575081810a612bc9565b61527683836151a4565b806000190482111561528a5761528a615397565b029392505050565b60008160001904831182151516156152ac576152ac615397565b500290565b60008083128015600160ff1b8501841216156152cf576152cf615397565b6001600160ff1b03840183138116156152ea576152ea615397565b50500390565b60008282101561530257615302615397565b500390565b600064ffffffffff8381169083168181101561532557615325615397565b039392505050565b600060ff821660ff84168082101561534757615347615397565b90039392505050565b60005b8381101561536b578181015183820152602001615353565b838111156109145750506000910152565b600060001982141561539057615390615397565b5060010190565b634e487b7160e01b600052601160045260246000fd5b634e487b7160e01b600052602160045260246000fd5b634e487b7160e01b600052603260045260246000fd5b634e487b7160e01b600052604160045260246000fd5b6001600160a01b0381168114610c2757600080fdfe5ec196419322369c6bac572d883f4d990ae5ec82f7d93cdf89b85dbb05b63c27416464726573733a206c6f772d6c6576656c2064656c65676174652063616c6c206661696c6564a82e22387fca439f316d78ca566f383218ab8ae1b3e830178c9c82cbd16749c055435dd261a4b9b3364963f7738a7a662ad9c84396d64be3365284bb7f0a5041a2646970667358221220c1f4d663301c9362dbc5c1e662781b74958d27780570f965f86e3805a7e2d5c064736f6c63430008060033",
  "linkReferences": {},
  "deployedLinkReferences": {}
}