{
  "_format": "hh-sol-artifact-1",
  "contractName": "LPManualWhitelist",
  "sourceName": "contracts/LPManualWhitelist.sol",
  "abi": [
    {
      "anonymous": false,
      "inputs": [
        {
          "indexed": false,
          "internalType": "address",
          "name": "previousAdmin",
          "type": "address"
        },
        {
          "indexed": false,
          "internalType": "address",
          "name": "newAdmin",
          "type": "address"
        }
      ],
      "name": "AdminChanged",
      "type": "event"
    },
    {
      "anonymous": false,
      "inputs": [
        {
          "indexed": true,
          "internalType": "address",
          "name": "beacon",
          "type": "address"
        }
      ],
      "name": "BeaconUpgraded",
      "type": "event"
    },
    {
      "anonymous": false,
      "inputs": [
        {
          "indexed": true,
          "internalType": "enum IPolicyPoolConfig.GovernanceActions",
          "name": "action",
          "type": "uint8"
        },
        {
          "indexed": false,
          "internalType": "uint256",
          "name": "value",
          "type": "uint256"
        }
      ],
      "name": "GovernanceAction",
      "type": "event"
    },
    {
      "anonymous": false,
      "inputs": [
        {
          "indexed": false,
          "internalType": "address",
          "name": "provider",
          "type": "address"
        },
        {
          "indexed": false,
          "internalType": "bool",
          "name": "whitelisted",
          "type": "bool"
        }
      ],
      "name": "LPWhitelisted",
      "type": "event"
    },
    {
      "anonymous": false,
      "inputs": [
        {
          "indexed": false,
          "internalType": "address",
          "name": "account",
          "type": "address"
        }
      ],
      "name": "Paused",
      "type": "event"
    },
    {
      "anonymous": false,
      "inputs": [
        {
          "indexed": false,
          "internalType": "address",
          "name": "account",
          "type": "address"
        }
      ],
      "name": "Unpaused",
      "type": "event"
    },
    {
      "anonymous": false,
      "inputs": [
        {
          "indexed": true,
          "internalType": "address",
          "name": "implementation",
          "type": "address"
        }
      ],
      "name": "Upgraded",
      "type": "event"
    },
    {
      "inputs": [],
      "name": "GUARDIAN_ROLE",
      "outputs": [
        {
          "internalType": "bytes32",
          "name": "",
          "type": "bytes32"
        }
      ],
      "stateMutability": "view",
      "type": "function"
    },
    {
      "inputs": [],
      "name": "LEVEL1_ROLE",
      "outputs": [
        {
          "internalType": "bytes32",
          "name": "",
          "type": "bytes32"
        }
      ],
      "stateMutability": "view",
      "type": "function"
    },
    {
      "inputs": [],
      "name": "LEVEL2_ROLE",
      "outputs": [
        {
          "internalType": "bytes32",
          "name": "",
          "type": "bytes32"
        }
      ],
      "stateMutability": "view",
      "type": "function"
    },
    {
      "inputs": [],
      "name": "LEVEL3_ROLE",
      "outputs": [
        {
          "internalType": "bytes32",
          "name": "",
          "type": "bytes32"
        }
      ],
      "stateMutability": "view",
      "type": "function"
    },
    {
      "inputs": [],
      "name": "LP_WHITELIST_ROLE",
      "outputs": [
        {
          "internalType": "bytes32",
          "name": "",
          "type": "bytes32"
        }
      ],
      "stateMutability": "view",
      "type": "function"
    },
    {
      "inputs": [],
      "name": "TWEAK_EXPIRATION",
      "outputs": [
        {
          "internalType": "uint40",
          "name": "",
          "type": "uint40"
        }
      ],
      "stateMutability": "view",
      "type": "function"
    },
    {
      "inputs": [
        {
          "internalType": "contract IEToken",
          "name": "",
          "type": "address"
        },
        {
          "internalType": "address",
          "name": "provider",
          "type": "address"
        },
        {
          "internalType": "uint256",
          "name": "",
          "type": "uint256"
        }
      ],
      "name": "acceptsDeposit",
      "outputs": [
        {
          "internalType": "bool",
          "name": "",
          "type": "bool"
        }
      ],
      "stateMutability": "view",
      "type": "function"
    },
    {
      "inputs": [
        {
          "internalType": "contract IEToken",
          "name": "",
          "type": "address"
        },
        {
          "internalType": "address",
          "name": "",
          "type": "address"
        },
        {
          "internalType": "address",
          "name": "providerTo",
          "type": "address"
        },
        {
          "internalType": "uint256",
          "name": "",
          "type": "uint256"
        }
      ],
      "name": "acceptsTransfer",
      "outputs": [
        {
          "internalType": "bool",
          "name": "",
          "type": "bool"
        }
      ],
      "stateMutability": "view",
      "type": "function"
    },
    {
      "inputs": [],
      "name": "currency",
      "outputs": [
        {
          "internalType": "contract IERC20Metadata",
          "name": "",
          "type": "address"
        }
      ],
      "stateMutability": "view",
      "type": "function"
    },
    {
      "inputs": [
        {
          "internalType": "contract IPolicyPool",
          "name": "policyPool_",
          "type": "address"
        }
      ],
      "name": "initialize",
      "outputs": [],
      "stateMutability": "nonpayable",
      "type": "function"
    },
    {
      "inputs": [],
      "name": "lastTweak",
      "outputs": [
        {
          "internalType": "uint40",
          "name": "",
          "type": "uint40"
        },
        {
          "internalType": "uint56",
          "name": "",
          "type": "uint56"
        }
      ],
      "stateMutability": "view",
      "type": "function"
    },
    {
      "inputs": [],
      "name": "pause",
      "outputs": [],
      "stateMutability": "nonpayable",
      "type": "function"
    },
    {
      "inputs": [],
      "name": "paused",
      "outputs": [
        {
          "internalType": "bool",
          "name": "",
          "type": "bool"
        }
      ],
      "stateMutability": "view",
      "type": "function"
    },
    {
      "inputs": [],
      "name": "policyPool",
      "outputs": [
        {
          "internalType": "contract IPolicyPool",
          "name": "",
          "type": "address"
        }
      ],
      "stateMutability": "view",
      "type": "function"
    },
    {
      "inputs": [],
      "name": "unpause",
      "outputs": [],
      "stateMutability": "nonpayable",
      "type": "function"
    },
    {
      "inputs": [
        {
          "internalType": "address",
          "name": "newImplementation",
          "type": "address"
        }
      ],
      "name": "upgradeTo",
      "outputs": [],
      "stateMutability": "nonpayable",
      "type": "function"
    },
    {
      "inputs": [
        {
          "internalType": "address",
          "name": "newImplementation",
          "type": "address"
        },
        {
          "internalType": "bytes",
          "name": "data",
          "type": "bytes"
        }
      ],
      "name": "upgradeToAndCall",
      "outputs": [],
      "stateMutability": "payable",
      "type": "function"
    },
    {
      "inputs": [
        {
          "internalType": "address",
          "name": "provider",
          "type": "address"
        },
        {
          "internalType": "bool",
          "name": "whitelisted",
          "type": "bool"
        }
      ],
      "name": "whitelistAddress",
      "outputs": [],
      "stateMutability": "nonpayable",
      "type": "function"
    }
  ],
  "bytecode": "0x60a06040523060601b60805234801561001757600080fd5b5060805160601c61164e61004b600039600081816103f60152818161043f015281816106150152610655015261164e6000f3fe6080604052600436106101095760003560e01c80635c975abb11610095578063aad4148c11610064578063aad4148c1461032e578063b9a45aac14610362578063c4d66de814610382578063e5a6b10f146103a2578063f67b2bad146103b757600080fd5b80635c975abb146102975780635fcdca37146102af5780637ed5acfa146102ec5780638456cb591461031957600080fd5b8063468a8c9f116100dc578063468a8c9f146101aa5780634a47a3e0146101ea5780634d15eb031461021e5780634f1ef286146102505780635b494dd51461026357600080fd5b806324ea54f41461010e5780633659cfe61461014357806337ee20dd146101655780633f4ba83a14610195575b600080fd5b34801561011a57600080fd5b506101306000805160206115f983398151915281565b6040519081526020015b60405180910390f35b34801561014f57600080fd5b5061016361015e366004611273565b6103eb565b005b34801561017157600080fd5b50610185610180366004611400565b6104bd565b604051901515815260200161013a565b3480156101a157600080fd5b506101636104e1565b3480156101b657600080fd5b5060c95460408051600160a01b830464ffffffffff168152600160c81b90920466ffffffffffffff1660208301520161013a565b3480156101f657600080fd5b506101307fa82e22387fca439f316d78ca566f383218ab8ae1b3e830178c9c82cbd16749c081565b34801561022a57600080fd5b5060c9546001600160a01b03165b6040516001600160a01b03909116815260200161013a565b61016361025e3660046112ce565b61060a565b34801561026f57600080fd5b506101307f5ec196419322369c6bac572d883f4d990ae5ec82f7d93cdf89b85dbb05b63c2781565b3480156102a357600080fd5b5060975460ff16610185565b3480156102bb57600080fd5b506101856102ca3660046113af565b506001600160a01b0316600090815260ca602052604090205460ff1692915050565b3480156102f857600080fd5b506103036201518081565b60405164ffffffffff909116815260200161013a565b34801561032557600080fd5b506101636106c0565b34801561033a57600080fd5b506101307fb494869573b0a0ce9caac5394e1d0d255d146ec7e2d30d643a4e1d78980f323581565b34801561036e57600080fd5b5061016361037d366004611290565b6107b2565b34801561038e57600080fd5b5061016361039d366004611273565b610912565b3480156103ae57600080fd5b50610238610987565b3480156103c357600080fd5b506101307fbf372ca3ebecfe59ac256f17697941bbe63302aced610e8b0e3646f743c7beb281565b306001600160a01b037f000000000000000000000000000000000000000000000000000000000000000016141561043d5760405162461bcd60e51b815260040161043490611490565b60405180910390fd5b7f00000000000000000000000000000000000000000000000000000000000000006001600160a01b031661046f610a09565b6001600160a01b0316146104955760405162461bcd60e51b8152600401610434906114dc565b61049e81610a37565b604080516000808252602082019092526104ba91839190610b59565b50565b6001600160a01b038216600090815260ca602052604090205460ff165b9392505050565b6000805160206115f98339815191527fbf372ca3ebecfe59ac256f17697941bbe63302aced610e8b0e3646f743c7beb260c960009054906101000a90046001600160a01b03166001600160a01b03166379502c556040518163ffffffff1660e01b815260040160206040518083038186803b15801561055f57600080fd5b505afa158015610573573d6000803e3d6000fd5b505050506040513d601f19601f820116820180604052508101906105979190611392565b60405163c5b8f5cf60e01b815260048101849052602481018390523360448201526001600160a01b03919091169063c5b8f5cf9060640160006040518083038186803b1580156105e657600080fd5b505afa1580156105fa573d6000803e3d6000fd5b50505050610606610ca4565b5050565b306001600160a01b037f00000000000000000000000000000000000000000000000000000000000000001614156106535760405162461bcd60e51b815260040161043490611490565b7f00000000000000000000000000000000000000000000000000000000000000006001600160a01b0316610685610a09565b6001600160a01b0316146106ab5760405162461bcd60e51b8152600401610434906114dc565b6106b482610a37565b61060682826001610b59565b60c954604080516379502c5560e01b815290516000805160206115f9833981519152926001600160a01b0316916379502c55916004808301926020929190829003018186803b15801561071257600080fd5b505afa158015610726573d6000803e3d6000fd5b505050506040513d601f19601f8201168201806040525081019061074a9190611392565b6040516312d9a6ad60e01b8152600481018390523360248201526001600160a01b0391909116906312d9a6ad9060440160006040518083038186803b15801561079257600080fd5b505afa1580156107a6573d6000803e3d6000fd5b505050506104ba610d37565b60c954604080516379502c5560e01b815290517fb494869573b0a0ce9caac5394e1d0d255d146ec7e2d30d643a4e1d78980f3235926001600160a01b0316916379502c55916004808301926020929190829003018186803b15801561081657600080fd5b505afa15801561082a573d6000803e3d6000fd5b505050506040513d601f19601f8201168201806040525081019061084e9190611392565b6040516312d9a6ad60e01b8152600481018390523360248201526001600160a01b0391909116906312d9a6ad9060440160006040518083038186803b15801561089657600080fd5b505afa1580156108aa573d6000803e3d6000fd5b505050506001600160a01b038316600081815260ca6020908152604091829020805460ff19168615159081179091558251938452908301527f8ef34cf5cfaa6ce2f80f1ba2912749c912a8b07c4fb8e9949e928e7cb592918f910160405180910390a1505050565b600054610100900460ff168061092b575060005460ff16155b6109475760405162461bcd60e51b815260040161043490611528565b600054610100900460ff16158015610969576000805461ffff19166101011790555b61097282610db2565b8015610606576000805461ff00191690555050565b60c9546040805163e5a6b10f60e01b815290516000926001600160a01b03169163e5a6b10f916004808301926020929190829003018186803b1580156109cc57600080fd5b505afa1580156109e0573d6000803e3d6000fd5b505050506040513d601f19601f82011682018060405250810190610a049190611392565b905090565b7f360894a13ba1a3210667c828492db98dca3e2076cc3735a920a3ca505d382bbc546001600160a01b031690565b6000805160206115f98339815191527fbf372ca3ebecfe59ac256f17697941bbe63302aced610e8b0e3646f743c7beb260c960009054906101000a90046001600160a01b03166001600160a01b03166379502c556040518163ffffffff1660e01b815260040160206040518083038186803b158015610ab557600080fd5b505afa158015610ac9573d6000803e3d6000fd5b505050506040513d601f19601f82011682018060405250810190610aed9190611392565b60405163c5b8f5cf60e01b815260048101849052602481018390523360448201526001600160a01b03919091169063c5b8f5cf9060640160006040518083038186803b158015610b3c57600080fd5b505afa158015610b50573d6000803e3d6000fd5b50505050505050565b6000610b63610a09565b9050610b6e84610e22565b600083511180610b7b5750815b15610b8c57610b8a8484610ec7565b505b7f4910fdfa16fed3260ed0e7147f7cc6da11a60208b5b9406d12a635614ffd9143805460ff16610c9d57805460ff191660011781556040516001600160a01b0383166024820152610c0b90869060440160408051601f198184030181529190526020810180516001600160e01b0316631b2ce7f360e11b179052610ec7565b50805460ff19168155610c1c610a09565b6001600160a01b0316826001600160a01b031614610c945760405162461bcd60e51b815260206004820152602f60248201527f45524331393637557067726164653a207570677261646520627265616b73206660448201526e75727468657220757067726164657360881b6064820152608401610434565b610c9d85610fb2565b5050505050565b60975460ff16610ced5760405162461bcd60e51b815260206004820152601460248201527314185d5cd8589b194e881b9bdd081c185d5cd95960621b6044820152606401610434565b6097805460ff191690557f5db9ee0a495bf2e6ff9c91a7834c1ba4fdd244a5e8aa4e537bd38aeae4b073aa335b6040516001600160a01b03909116815260200160405180910390a1565b60975460ff1615610d7d5760405162461bcd60e51b815260206004820152601060248201526f14185d5cd8589b194e881c185d5cd95960821b6044820152606401610434565b6097805460ff191660011790557f62e78cea01bee320cd4e420270b5ea74000d11b0c9f74754ebdbfc544b05a258610d1a3390565b600054610100900460ff1680610dcb575060005460ff16155b610de75760405162461bcd60e51b815260040161043490611528565b600054610100900460ff16158015610e09576000805461ffff19166101011790555b610e11610ff2565b610e1961106d565b610972826110d4565b803b610e865760405162461bcd60e51b815260206004820152602d60248201527f455243313936373a206e657720696d706c656d656e746174696f6e206973206e60448201526c1bdd08184818dbdb9d1c9858dd609a1b6064820152608401610434565b7f360894a13ba1a3210667c828492db98dca3e2076cc3735a920a3ca505d382bbc80546001600160a01b0319166001600160a01b0392909216919091179055565b6060823b610f265760405162461bcd60e51b815260206004820152602660248201527f416464726573733a2064656c65676174652063616c6c20746f206e6f6e2d636f6044820152651b9d1c9858dd60d21b6064820152608401610434565b600080846001600160a01b031684604051610f419190611441565b600060405180830381855af49150503d8060008114610f7c576040519150601f19603f3d011682016040523d82523d6000602084013e610f81565b606091505b5091509150610fa982826040518060600160405280602781526020016115d26027913961115b565b95945050505050565b610fbb81610e22565b6040516001600160a01b038216907fbc7cd75a20ee27fd9adebab32041f755214dbc6bffa90cc0225b39da2e5c2d3b90600090a250565b600054610100900460ff168061100b575060005460ff16155b6110275760405162461bcd60e51b815260040161043490611528565b600054610100900460ff16158015611049576000805461ffff19166101011790555b611051611194565b611059611194565b80156104ba576000805461ff001916905550565b600054610100900460ff1680611086575060005460ff16155b6110a25760405162461bcd60e51b815260040161043490611528565b600054610100900460ff161580156110c4576000805461ffff19166101011790555b6110cc611194565b6110596111fe565b600054610100900460ff16806110ed575060005460ff16155b6111095760405162461bcd60e51b815260040161043490611528565b600054610100900460ff1615801561112b576000805461ffff19166101011790555b60c980546001600160a01b0319166001600160a01b0384161790558015610606576000805461ff00191690555050565b6060831561116a5750816104da565b82511561117a5782518084602001fd5b8160405162461bcd60e51b8152600401610434919061145d565b600054610100900460ff16806111ad575060005460ff16155b6111c95760405162461bcd60e51b815260040161043490611528565b600054610100900460ff16158015611059576000805461ffff191661010117905580156104ba576000805461ff001916905550565b600054610100900460ff1680611217575060005460ff16155b6112335760405162461bcd60e51b815260040161043490611528565b600054610100900460ff16158015611255576000805461ffff19166101011790555b6097805460ff1916905580156104ba576000805461ff001916905550565b60006020828403121561128557600080fd5b81356104da816115bc565b600080604083850312156112a357600080fd5b82356112ae816115bc565b9150602083013580151581146112c357600080fd5b809150509250929050565b600080604083850312156112e157600080fd5b82356112ec816115bc565b9150602083013567ffffffffffffffff8082111561130957600080fd5b818501915085601f83011261131d57600080fd5b81358181111561132f5761132f6115a6565b604051601f8201601f19908116603f01168101908382118183101715611357576113576115a6565b8160405282815288602084870101111561137057600080fd5b8260208601602083013760006020848301015280955050505050509250929050565b6000602082840312156113a457600080fd5b81516104da816115bc565b600080600080608085870312156113c557600080fd5b84356113d0816115bc565b935060208501356113e0816115bc565b925060408501356113f0816115bc565b9396929550929360600135925050565b60008060006060848603121561141557600080fd5b8335611420816115bc565b92506020840135611430816115bc565b929592945050506040919091013590565b60008251611453818460208701611576565b9190910192915050565b602081526000825180602084015261147c816040850160208701611576565b601f01601f19169190910160400192915050565b6020808252602c908201527f46756e6374696f6e206d7573742062652063616c6c6564207468726f7567682060408201526b19195b1959d85d1958d85b1b60a21b606082015260800190565b6020808252602c908201527f46756e6374696f6e206d7573742062652063616c6c6564207468726f7567682060408201526b6163746976652070726f787960a01b606082015260800190565b6020808252602e908201527f496e697469616c697a61626c653a20636f6e747261637420697320616c72656160408201526d191e481a5b9a5d1a585b1a5e995960921b606082015260800190565b60005b83811015611591578181015183820152602001611579565b838111156115a0576000848401525b50505050565b634e487b7160e01b600052604160045260246000fd5b6001600160a01b03811681146104ba57600080fdfe416464726573733a206c6f772d6c6576656c2064656c65676174652063616c6c206661696c656455435dd261a4b9b3364963f7738a7a662ad9c84396d64be3365284bb7f0a5041a2646970667358221220d8282837bc0ff8ac93cfbbd3242627d6d27531ad0f3e7eda7d95b05e256c342464736f6c63430008060033",
  "linkReferences": {},
  "deployedLinkReferences": {}
}