{
  "_format": "hh-sol-artifact-1",
  "contractName": "PolicyPoolConfig",
  "sourceName": "contracts/PolicyPoolConfig.sol",
  "abi": [
    {
      "anonymous": false,
      "inputs": [
        {
          "indexed": false,
          "internalType": "address",
          "name": "previousAdmin",
          "type": "address"
        },
        {
          "indexed": false,
          "internalType": "address",
          "name": "newAdmin",
          "type": "address"
        }
      ],
      "name": "AdminChanged",
      "type": "event"
    },
    {
      "anonymous": false,
      "inputs": [
        {
          "indexed": true,
          "internalType": "address",
          "name": "beacon",
          "type": "address"
        }
      ],
      "name": "BeaconUpgraded",
      "type": "event"
    },
    {
      "anonymous": false,
      "inputs": [
        {
          "indexed": true,
          "internalType": "enum IPolicyPoolConfig.GovernanceActions",
          "name": "action",
          "type": "uint8"
        },
        {
          "indexed": false,
          "internalType": "address",
          "name": "value",
          "type": "address"
        }
      ],
      "name": "ComponentChanged",
      "type": "event"
    },
    {
      "anonymous": false,
      "inputs": [
        {
          "indexed": true,
          "internalType": "contract IRiskModule",
          "name": "riskModule",
          "type": "address"
        },
        {
          "indexed": false,
          "internalType": "enum IPolicyPoolConfig.RiskModuleStatus",
          "name": "newStatus",
          "type": "uint8"
        }
      ],
      "name": "RiskModuleStatusChanged",
      "type": "event"
    },
    {
      "anonymous": false,
      "inputs": [
        {
          "indexed": true,
          "internalType": "bytes32",
          "name": "role",
          "type": "bytes32"
        },
        {
          "indexed": true,
          "internalType": "bytes32",
          "name": "previousAdminRole",
          "type": "bytes32"
        },
        {
          "indexed": true,
          "internalType": "bytes32",
          "name": "newAdminRole",
          "type": "bytes32"
        }
      ],
      "name": "RoleAdminChanged",
      "type": "event"
    },
    {
      "anonymous": false,
      "inputs": [
        {
          "indexed": true,
          "internalType": "bytes32",
          "name": "role",
          "type": "bytes32"
        },
        {
          "indexed": true,
          "internalType": "address",
          "name": "account",
          "type": "address"
        },
        {
          "indexed": true,
          "internalType": "address",
          "name": "sender",
          "type": "address"
        }
      ],
      "name": "RoleGranted",
      "type": "event"
    },
    {
      "anonymous": false,
      "inputs": [
        {
          "indexed": true,
          "internalType": "bytes32",
          "name": "role",
          "type": "bytes32"
        },
        {
          "indexed": true,
          "internalType": "address",
          "name": "account",
          "type": "address"
        },
        {
          "indexed": true,
          "internalType": "address",
          "name": "sender",
          "type": "address"
        }
      ],
      "name": "RoleRevoked",
      "type": "event"
    },
    {
      "anonymous": false,
      "inputs": [
        {
          "indexed": true,
          "internalType": "address",
          "name": "implementation",
          "type": "address"
        }
      ],
      "name": "Upgraded",
      "type": "event"
    },
    {
      "inputs": [],
      "name": "DEFAULT_ADMIN_ROLE",
      "outputs": [
        {
          "internalType": "bytes32",
          "name": "",
          "type": "bytes32"
        }
      ],
      "stateMutability": "view",
      "type": "function"
    },
    {
      "inputs": [],
      "name": "GUARDIAN_ROLE",
      "outputs": [
        {
          "internalType": "bytes32",
          "name": "",
          "type": "bytes32"
        }
      ],
      "stateMutability": "view",
      "type": "function"
    },
    {
      "inputs": [],
      "name": "L2_RM_LIMIT",
      "outputs": [
        {
          "internalType": "uint256",
          "name": "",
          "type": "uint256"
        }
      ],
      "stateMutability": "view",
      "type": "function"
    },
    {
      "inputs": [],
      "name": "LEVEL1_ROLE",
      "outputs": [
        {
          "internalType": "bytes32",
          "name": "",
          "type": "bytes32"
        }
      ],
      "stateMutability": "view",
      "type": "function"
    },
    {
      "inputs": [],
      "name": "LEVEL2_ROLE",
      "outputs": [
        {
          "internalType": "bytes32",
          "name": "",
          "type": "bytes32"
        }
      ],
      "stateMutability": "view",
      "type": "function"
    },
    {
      "inputs": [],
      "name": "LEVEL3_ROLE",
      "outputs": [
        {
          "internalType": "bytes32",
          "name": "",
          "type": "bytes32"
        }
      ],
      "stateMutability": "view",
      "type": "function"
    },
    {
      "inputs": [
        {
          "internalType": "contract IRiskModule",
          "name": "riskModule",
          "type": "address"
        }
      ],
      "name": "addRiskModule",
      "outputs": [],
      "stateMutability": "nonpayable",
      "type": "function"
    },
    {
      "inputs": [],
      "name": "assetManager",
      "outputs": [
        {
          "internalType": "contract IAssetManager",
          "name": "",
          "type": "address"
        }
      ],
      "stateMutability": "view",
      "type": "function"
    },
    {
      "inputs": [
        {
          "internalType": "contract IRiskModule",
          "name": "riskModule",
          "type": "address"
        },
        {
          "internalType": "enum IPolicyPoolConfig.RiskModuleStatus",
          "name": "newStatus",
          "type": "uint8"
        }
      ],
      "name": "changeRiskModuleStatus",
      "outputs": [],
      "stateMutability": "nonpayable",
      "type": "function"
    },
    {
      "inputs": [
        {
          "internalType": "contract IRiskModule",
          "name": "riskModule",
          "type": "address"
        }
      ],
      "name": "checkAcceptsNewPolicy",
      "outputs": [],
      "stateMutability": "view",
      "type": "function"
    },
    {
      "inputs": [
        {
          "internalType": "contract IRiskModule",
          "name": "riskModule",
          "type": "address"
        }
      ],
      "name": "checkAcceptsResolvePolicy",
      "outputs": [],
      "stateMutability": "view",
      "type": "function"
    },
    {
      "inputs": [
        {
          "internalType": "bytes32",
          "name": "role",
          "type": "bytes32"
        },
        {
          "internalType": "address",
          "name": "account",
          "type": "address"
        }
      ],
      "name": "checkRole",
      "outputs": [],
      "stateMutability": "view",
      "type": "function"
    },
    {
      "inputs": [
        {
          "internalType": "bytes32",
          "name": "role1",
          "type": "bytes32"
        },
        {
          "internalType": "bytes32",
          "name": "role2",
          "type": "bytes32"
        },
        {
          "internalType": "address",
          "name": "account",
          "type": "address"
        }
      ],
      "name": "checkRole2",
      "outputs": [],
      "stateMutability": "view",
      "type": "function"
    },
    {
      "inputs": [],
      "name": "connect",
      "outputs": [],
      "stateMutability": "nonpayable",
      "type": "function"
    },
    {
      "inputs": [
        {
          "internalType": "bytes32",
          "name": "role",
          "type": "bytes32"
        }
      ],
      "name": "getRoleAdmin",
      "outputs": [
        {
          "internalType": "bytes32",
          "name": "",
          "type": "bytes32"
        }
      ],
      "stateMutability": "view",
      "type": "function"
    },
    {
      "inputs": [
        {
          "internalType": "bytes32",
          "name": "role",
          "type": "bytes32"
        },
        {
          "internalType": "address",
          "name": "account",
          "type": "address"
        }
      ],
      "name": "grantRole",
      "outputs": [],
      "stateMutability": "nonpayable",
      "type": "function"
    },
    {
      "inputs": [
        {
          "internalType": "bytes32",
          "name": "role",
          "type": "bytes32"
        },
        {
          "internalType": "address",
          "name": "account",
          "type": "address"
        }
      ],
      "name": "hasRole",
      "outputs": [
        {
          "internalType": "bool",
          "name": "",
          "type": "bool"
        }
      ],
      "stateMutability": "view",
      "type": "function"
    },
    {
      "inputs": [
        {
          "internalType": "contract IPolicyPool",
          "name": "policyPool_",
          "type": "address"
        },
        {
          "internalType": "address",
          "name": "treasury_",
          "type": "address"
        }
      ],
      "name": "initialize",
      "outputs": [],
      "stateMutability": "nonpayable",
      "type": "function"
    },
    {
      "inputs": [],
      "name": "insolvencyHook",
      "outputs": [
        {
          "internalType": "contract IInsolvencyHook",
          "name": "",
          "type": "address"
        }
      ],
      "stateMutability": "view",
      "type": "function"
    },
    {
      "inputs": [],
      "name": "lpWhitelist",
      "outputs": [
        {
          "internalType": "contract ILPWhitelist",
          "name": "",
          "type": "address"
        }
      ],
      "stateMutability": "view",
      "type": "function"
    },
    {
      "inputs": [
        {
          "internalType": "contract IRiskModule",
          "name": "riskModule",
          "type": "address"
        }
      ],
      "name": "removeRiskModule",
      "outputs": [],
      "stateMutability": "nonpayable",
      "type": "function"
    },
    {
      "inputs": [
        {
          "internalType": "bytes32",
          "name": "role",
          "type": "bytes32"
        },
        {
          "internalType": "address",
          "name": "account",
          "type": "address"
        }
      ],
      "name": "renounceRole",
      "outputs": [],
      "stateMutability": "nonpayable",
      "type": "function"
    },
    {
      "inputs": [
        {
          "internalType": "bytes32",
          "name": "role",
          "type": "bytes32"
        },
        {
          "internalType": "address",
          "name": "account",
          "type": "address"
        }
      ],
      "name": "revokeRole",
      "outputs": [],
      "stateMutability": "nonpayable",
      "type": "function"
    },
    {
      "inputs": [
        {
          "internalType": "contract IAssetManager",
          "name": "assetManager_",
          "type": "address"
        }
      ],
      "name": "setAssetManager",
      "outputs": [],
      "stateMutability": "nonpayable",
      "type": "function"
    },
    {
      "inputs": [
        {
          "internalType": "contract IInsolvencyHook",
          "name": "insolvencyHook_",
          "type": "address"
        }
      ],
      "name": "setInsolvencyHook",
      "outputs": [],
      "stateMutability": "nonpayable",
      "type": "function"
    },
    {
      "inputs": [
        {
          "internalType": "contract ILPWhitelist",
          "name": "lpWhitelist_",
          "type": "address"
        }
      ],
      "name": "setLPWhitelist",
      "outputs": [],
      "stateMutability": "nonpayable",
      "type": "function"
    },
    {
      "inputs": [
        {
          "internalType": "address",
          "name": "treasury_",
          "type": "address"
        }
      ],
      "name": "setTreasury",
      "outputs": [],
      "stateMutability": "nonpayable",
      "type": "function"
    },
    {
      "inputs": [
        {
          "internalType": "bytes4",
          "name": "interfaceId",
          "type": "bytes4"
        }
      ],
      "name": "supportsInterface",
      "outputs": [
        {
          "internalType": "bool",
          "name": "",
          "type": "bool"
        }
      ],
      "stateMutability": "view",
      "type": "function"
    },
    {
      "inputs": [],
      "name": "treasury",
      "outputs": [
        {
          "internalType": "address",
          "name": "",
          "type": "address"
        }
      ],
      "stateMutability": "view",
      "type": "function"
    },
    {
      "inputs": [
        {
          "internalType": "address",
          "name": "newImplementation",
          "type": "address"
        }
      ],
      "name": "upgradeTo",
      "outputs": [],
      "stateMutability": "nonpayable",
      "type": "function"
    },
    {
      "inputs": [
        {
          "internalType": "address",
          "name": "newImplementation",
          "type": "address"
        },
        {
          "internalType": "bytes",
          "name": "data",
          "type": "bytes"
        }
      ],
      "name": "upgradeToAndCall",
      "outputs": [],
      "stateMutability": "payable",
      "type": "function"
    }
  ],
  "bytecode": "0x60a06040523060601b60805234801561001757600080fd5b5060805160601c61279d61004b6000396000818161082c0152818161086c01528181610c270152610c67015261279d6000f3fe6080604052600436106101d85760003560e01c806361d027b311610102578063a217fddf11610095578063d547741f11610064578063d547741f1461056e578063f0f442601461058e578063f67b2bad146105ae578063f7d72a25146105d057600080fd5b8063a217fddf146104f9578063bbfb8bae1461050e578063c5b8f5cf1461052e578063ccdcd9cf1461054e57600080fd5b80639042cf68116100d15780639042cf681461048657806391d14854146104a657806394217ad1146104c6578063948cb719146104e457600080fd5b806361d027b31461040f57806363b12da81461042d578063878ccf781461044b5780638def80e31461046b57600080fd5b806336568abe1161017a578063485cc95511610149578063485cc955146103865780634a47a3e0146103a65780634f1ef286146103c85780635b494dd5146103db57600080fd5b806336568abe146103065780633659cfe614610326578063398ae8e614610346578063430602371461036657600080fd5b8063248a9ca3116101b6578063248a9ca31461026657806324ea54f4146102a45780632c08296b146102c65780632f2ff15d146102e657600080fd5b806301ffc9a7146101dd57806312d9a6ad146102125780631455cd2814610234575b600080fd5b3480156101e957600080fd5b506101fd6101f836600461226d565b6105f0565b60405190151581526020015b60405180910390f35b34801561021e57600080fd5b5061023261022d366004612204565b610627565b005b34801561024057600080fd5b5060fd546001600160a01b03165b6040516001600160a01b039091168152602001610209565b34801561027257600080fd5b506102966102813660046121eb565b60009081526065602052604090206001015490565b604051908152602001610209565b3480156102b057600080fd5b5061029660008051602061274883398151915281565b3480156102d257600080fd5b506102326102e136600461210a565b610635565b3480156102f257600080fd5b50610232610301366004612204565b61077c565b34801561031257600080fd5b50610232610321366004612204565b6107a7565b34801561033257600080fd5b5061023261034136600461210a565b610821565b34801561035257600080fd5b5061023261036136600461210a565b6108ea565b34801561037257600080fd5b5061023261038136600461210a565b610a1f565b34801561039257600080fd5b506102326103a13660046122b4565b610b95565b3480156103b257600080fd5b5061029660008051602061272883398151915281565b6102326103d6366004612127565b610c1c565b3480156103e757600080fd5b506102967f5ec196419322369c6bac572d883f4d990ae5ec82f7d93cdf89b85dbb05b63c2781565b34801561041b57600080fd5b5060fb546001600160a01b031661024e565b34801561043957600080fd5b5060ff546001600160a01b031661024e565b34801561045757600080fd5b5061023261046636600461210a565b610cd2565b34801561047757600080fd5b5061029666b1a2bc2ec5000081565b34801561049257600080fd5b506102326104a136600461210a565b610d92565b3480156104b257600080fd5b506101fd6104c1366004612204565b611113565b3480156104d257600080fd5b5060fc546001600160a01b031661024e565b3480156104f057600080fd5b5061023261113e565b34801561050557600080fd5b50610296600081565b34801561051a57600080fd5b5061023261052936600461210a565b6111c0565b34801561053a57600080fd5b50610232610549366004612234565b611248565b34801561055a57600080fd5b5061023261056936600461210a565b611260565b34801561057a57600080fd5b50610232610589366004612204565b61140c565b34801561059a57600080fd5b506102326105a936600461210a565b611432565b3480156105ba57600080fd5b506102966000805160206126e183398151915281565b3480156105dc57600080fd5b506102326105eb3660046122e2565b611493565b60006001600160e01b03198216637965db0b60e01b148061062157506301ffc9a760e01b6001600160e01b03198316145b92915050565b6106318282611790565b5050565b6000805160206127488339815191526000805160206126e183398151915261065d8233611113565b61066b5761066b8133611790565b6001600160a01b0383161580610706575060fe5460408051634d15eb0360e01b815290516001600160a01b0392831692861691634d15eb03916004808301926020929190829003018186803b1580156106c357600080fd5b505afa1580156106d7573d6000803e3d6000fd5b505050506040513d601f19601f820116820180604052508101906106fb9190612297565b6001600160a01b0316145b61072b5760405162461bcd60e51b815260040161072290612419565b60405180910390fd5b60fd80546001600160a01b0319166001600160a01b038516179055600360fd546040516001600160a01b0390911681526000805160206126c1833981519152906020015b60405180910390a2505050565b6000828152606560205260409020600101546107988133611790565b6107a283836117f4565b505050565b6001600160a01b03811633146108175760405162461bcd60e51b815260206004820152602f60248201527f416363657373436f6e74726f6c3a2063616e206f6e6c792072656e6f756e636560448201526e103937b632b9903337b91039b2b63360891b6064820152608401610722565b610631828261187a565b306001600160a01b037f000000000000000000000000000000000000000000000000000000000000000016141561086a5760405162461bcd60e51b815260040161072290612460565b7f00000000000000000000000000000000000000000000000000000000000000006001600160a01b031661089c6118e1565b6001600160a01b0316146108c25760405162461bcd60e51b815260040161072290612502565b6108cb8161190f565b604080516000808252602082019092526108e791839190611945565b50565b6000805160206127488339815191526000805160206126e18339815191526109128233611113565b610920576109208133611790565b6001600160a01b03831615806109bb575060fe5460408051634d15eb0360e01b815290516001600160a01b0392831692861691634d15eb03916004808301926020929190829003018186803b15801561097857600080fd5b505afa15801561098c573d6000803e3d6000fd5b505050506040513d601f19601f820116820180604052508101906109b09190612297565b6001600160a01b0316145b6109d75760405162461bcd60e51b815260040161072290612419565b60ff80546001600160a01b0319166001600160a01b038516179055600460ff546040516001600160a01b0390911681526000805160206126c18339815191529060200161076f565b6000805160206126e1833981519152610a388133611790565b6001600160a01b0382161580610ad3575060fe5460408051634d15eb0360e01b815290516001600160a01b0392831692851691634d15eb03916004808301926020929190829003018186803b158015610a9057600080fd5b505afa158015610aa4573d6000803e3d6000fd5b505050506040513d601f19601f82011682018060405250810190610ac89190612297565b6001600160a01b0316145b610aef5760405162461bcd60e51b815260040161072290612419565b60fe54604051634306023760e01b81526001600160a01b03848116600483015290911690634306023790602401600060405180830381600087803b158015610b3657600080fd5b505af1158015610b4a573d6000803e3d6000fd5b505060fc80546001600160a01b0319166001600160a01b038616908117909155604051908152600292506000805160206126c183398151915291506020015b60405180910390a25050565b600054610100900460ff1680610bae575060005460ff16155b610bca5760405162461bcd60e51b81526004016107229061254e565b600054610100900460ff16158015610bec576000805461ffff19166101011790555b610bf4611a90565b610bfc611b13565b610c068383611b71565b80156107a2576000805461ff0019169055505050565b306001600160a01b037f0000000000000000000000000000000000000000000000000000000000000000161415610c655760405162461bcd60e51b815260040161072290612460565b7f00000000000000000000000000000000000000000000000000000000000000006001600160a01b0316610c976118e1565b6001600160a01b031614610cbd5760405162461bcd60e51b815260040161072290612502565b610cc68261190f565b61063182826001611945565b6001600160a01b0381166000908152610100602052604090205460ff166001816003811115610d0357610d03612669565b1480610d2057506002816003811115610d1e57610d1e612669565b145b6106315760405162461bcd60e51b815260206004820152603a60248201527f4d6f64756c65206d75737420626520616374697665206f72206465707265636160448201527f74656420746f2070726f63657373207265736f6c7574696f6e730000000000006064820152608401610722565b6000805160206126e1833981519152600080516020612728833981519152610dba8233611113565b610dc857610dc88133611790565b6001600160a01b0383166000908152610100602052604081205460ff166003811115610df657610df6612669565b14610e435760405162461bcd60e51b815260206004820152601f60248201527f5269736b204d6f64756c6520616c726561647920696e2074686520706f6f6c006044820152606401610722565b6001600160a01b038316610e995760405162461bcd60e51b815260206004820152601860248201527f7269736b4d6f64756c652063616e2774206265207a65726f00000000000000006044820152606401610722565b60fe5460408051634d15eb0360e01b815290516001600160a01b0392831692861691634d15eb03916004808301926020929190829003018186803b158015610ee057600080fd5b505afa158015610ef4573d6000803e3d6000fd5b505050506040513d601f19601f82011682018060405250810190610f189190612297565b6001600160a01b031614610f795760405162461bcd60e51b815260206004820152602260248201527f5269736b4d6f64756c65206e6f74206c696e6b656420746f207468697320706f6044820152611bdb60f21b6064820152608401610722565b610f916000805160206126e183398151915233611113565b806110a1575061101966b1a2bc2ec50000846001600160a01b03166341ea6a0f6040518163ffffffff1660e01b815260040160206040518083038186803b158015610fdb57600080fd5b505afa158015610fef573d6000803e3d6000fd5b505050506040513d601f19601f820116820180604052508101906110139190612314565b90611c19565b60fe60009054906101000a90046001600160a01b03166001600160a01b031663b77ddfea6040518163ffffffff1660e01b815260040160206040518083038186803b15801561106757600080fd5b505afa15801561107b573d6000803e3d6000fd5b505050506040513d601f19601f8201168201806040525081019061109f9190612314565b115b6110bd5760405162461bcd60e51b8152600401610722906124ac565b6001600160a01b0383166000818152610100602052604090819020805460ff1916600190811790915590517fd53eb6b3f6b4537d457cf1ef5020afc3e8cef610aa1472d19e442e9a62fef4b29161076f916123be565b60009182526065602090815260408084206001600160a01b0393909316845291905290205460ff1690565b60fe546001600160a01b03161580611160575060fe546001600160a01b031633145b6111ac5760405162461bcd60e51b815260206004820152601c60248201527f506f6c696379506f6f6c20616c726561647920636f6e6e6563746564000000006044820152606401610722565b60fe80546001600160a01b03191633179055565b6001600160a01b0381166000908152610100602052604090205460ff1660018160038111156111f1576111f1612669565b146106315760405162461bcd60e51b815260206004820152602160248201527f524d206d6f64756c65206e6f7420666f756e64206f72206e6f742061637469766044820152606560f81b6064820152608401610722565b6112528382611113565b6107a2576107a28282611790565b6000805160206127288339815191526112798133611790565b6001600160a01b0382166000908152610100602052604081205460ff1660038111156112a7576112a7612669565b14156112ed5760405162461bcd60e51b8152602060048201526015602482015274149a5cdac8135bd91d5b19481b9bdd08199bdd5b99605a1b6044820152606401610722565b816001600160a01b031663ca996de36040518163ffffffff1660e01b815260040160206040518083038186803b15801561132657600080fd5b505afa15801561133a573d6000803e3d6000fd5b505050506040513d601f19601f8201168201806040525081019061135e9190612314565b156113be5760405162461bcd60e51b815260206004820152602a60248201527f43616e27742072656d6f76652061206d6f64756c6520776974682061637469766044820152696520706f6c696369657360b01b6064820152608401610722565b6001600160a01b03821660008181526101006020526040808220805460ff19169055517fd53eb6b3f6b4537d457cf1ef5020afc3e8cef610aa1472d19e442e9a62fef4b291610b89916123be565b6000828152606560205260409020600101546114288133611790565b6107a2838361187a565b6000805160206126e183398151915261144b8133611790565b60fb80546001600160a01b0319166001600160a01b038416179055600160fb546040516001600160a01b0390911681526000805160206126c183398151915290602001610b89565b6000805160206127488339815191526000805160206126e18339815191526000805160206127288339815191526114ca8333611113565b1580156114de57506114dc8233611113565b155b156114ed576114ed8133611790565b6001600160a01b0385166000908152610100602052604081205460ff16600381111561151b5761151b612669565b14156115615760405162461bcd60e51b8152602060048201526015602482015274149a5cdac8135bd91d5b19481b9bdd08199bdd5b99605a1b6044820152606401610722565b600384600381111561157557611575612669565b141580611595575061159560008051602061274883398151915233611113565b6115eb5760405162461bcd60e51b815260206004820152602160248201527f4f6e6c7920475541524449414e2063616e2073757370656e64206d6f64756c656044820152607360f81b6064820152608401610722565b60018460038111156115ff576115ff612669565b14158061161f575061161f6000805160206126e183398151915233611113565b806116f1575061166966b1a2bc2ec50000866001600160a01b03166341ea6a0f6040518163ffffffff1660e01b815260040160206040518083038186803b158015610fdb57600080fd5b60fe60009054906101000a90046001600160a01b03166001600160a01b031663b77ddfea6040518163ffffffff1660e01b815260040160206040518083038186803b1580156116b757600080fd5b505afa1580156116cb573d6000803e3d6000fd5b505050506040513d601f19601f820116820180604052508101906116ef9190612314565b115b61170d5760405162461bcd60e51b8152600401610722906124ac565b6001600160a01b038516600090815261010060205260409020805485919060ff1916600183600381111561174357611743612669565b0217905550846001600160a01b03167fd53eb6b3f6b4537d457cf1ef5020afc3e8cef610aa1472d19e442e9a62fef4b28560405161178191906123be565b60405180910390a25050505050565b61179a8282611113565b610631576117b2816001600160a01b03166014611cf1565b6117bd836020611cf1565b6040516020016117ce929190612349565b60408051601f198184030181529082905262461bcd60e51b8252610722916004016123e6565b6117fe8282611113565b6106315760008281526065602090815260408083206001600160a01b03851684529091529020805460ff191660011790556118363390565b6001600160a01b0316816001600160a01b0316837f2f8788117e7eff1d82e926ec794901d17c78024a50270940304540a733656f0d60405160405180910390a45050565b6118848282611113565b156106315760008281526065602090815260408083206001600160a01b0385168085529252808320805460ff1916905551339285917ff6391f5c32d9c69d2a47ea670b442974b53935d1edc7fd64eb21e047a839171b9190a45050565b7f360894a13ba1a3210667c828492db98dca3e2076cc3735a920a3ca505d382bbc546001600160a01b031690565b6000805160206127488339815191526000805160206126e18339815191526119378233611113565b6107a2576107a28133611790565b600061194f6118e1565b905061195a84611e8d565b6000835111806119675750815b15611978576119768484611f32565b505b7f4910fdfa16fed3260ed0e7147f7cc6da11a60208b5b9406d12a635614ffd9143805460ff16611a8957805460ff191660011781556040516001600160a01b03831660248201526119f790869060440160408051601f198184030181529190526020810180516001600160e01b0316631b2ce7f360e11b179052611f32565b50805460ff19168155611a086118e1565b6001600160a01b0316826001600160a01b031614611a805760405162461bcd60e51b815260206004820152602f60248201527f45524331393637557067726164653a207570677261646520627265616b73206660448201526e75727468657220757067726164657360881b6064820152608401610722565b611a898561201d565b5050505050565b600054610100900460ff1680611aa9575060005460ff16155b611ac55760405162461bcd60e51b81526004016107229061254e565b600054610100900460ff16158015611ae7576000805461ffff19166101011790555b611aef61205d565b611af761205d565b611aff61205d565b80156108e7576000805461ff001916905550565b600054610100900460ff1680611b2c575060005460ff16155b611b485760405162461bcd60e51b81526004016107229061254e565b600054610100900460ff16158015611aef576000805461ffff1916610101179055611af761205d565b600054610100900460ff1680611b8a575060005460ff16155b611ba65760405162461bcd60e51b81526004016107229061254e565b600054610100900460ff16158015611bc8576000805461ffff19166101011790555b611bd36000336120c7565b60fe80546001600160a01b038086166001600160a01b03199283161790925560fb80549285169290911691909117905580156107a2576000805461ff0019169055505050565b6000821580611c26575081155b15611c3357506000610621565b81611c476002670de0b6b3a76400006125b4565b611c53906000196125f5565b611c5d91906125b4565b831115611cb85760405162461bcd60e51b8152602060048201526024808201527f7761644d756c3a204d617468204d756c7469706c69636174696f6e204f766572604482015263666c6f7760e01b6064820152608401610722565b670de0b6b3a7640000611ccc6002826125b4565b611cd684866125d6565b611ce0919061259c565b611cea91906125b4565b9392505050565b60606000611d008360026125d6565b611d0b90600261259c565b67ffffffffffffffff811115611d2357611d23612695565b6040519080825280601f01601f191660200182016040528015611d4d576020820181803683370190505b509050600360fc1b81600081518110611d6857611d6861267f565b60200101906001600160f81b031916908160001a905350600f60fb1b81600181518110611d9757611d9761267f565b60200101906001600160f81b031916908160001a9053506000611dbb8460026125d6565b611dc690600161259c565b90505b6001811115611e3e576f181899199a1a9b1b9c1cb0b131b232b360811b85600f1660108110611dfa57611dfa61267f565b1a60f81b828281518110611e1057611e1061267f565b60200101906001600160f81b031916908160001a90535060049490941c93611e378161263c565b9050611dc9565b508315611cea5760405162461bcd60e51b815260206004820181905260248201527f537472696e67733a20686578206c656e67746820696e73756666696369656e746044820152606401610722565b803b611ef15760405162461bcd60e51b815260206004820152602d60248201527f455243313936373a206e657720696d706c656d656e746174696f6e206973206e60448201526c1bdd08184818dbdb9d1c9858dd609a1b6064820152608401610722565b7f360894a13ba1a3210667c828492db98dca3e2076cc3735a920a3ca505d382bbc80546001600160a01b0319166001600160a01b0392909216919091179055565b6060823b611f915760405162461bcd60e51b815260206004820152602660248201527f416464726573733a2064656c65676174652063616c6c20746f206e6f6e2d636f6044820152651b9d1c9858dd60d21b6064820152608401610722565b600080846001600160a01b031684604051611fac919061232d565b600060405180830381855af49150503d8060008114611fe7576040519150601f19603f3d011682016040523d82523d6000602084013e611fec565b606091505b50915091506120148282604051806060016040528060278152602001612701602791396120d1565b95945050505050565b61202681611e8d565b6040516001600160a01b038216907fbc7cd75a20ee27fd9adebab32041f755214dbc6bffa90cc0225b39da2e5c2d3b90600090a250565b600054610100900460ff1680612076575060005460ff16155b6120925760405162461bcd60e51b81526004016107229061254e565b600054610100900460ff16158015611aff576000805461ffff191661010117905580156108e7576000805461ff001916905550565b61063182826117f4565b606083156120e0575081611cea565b8251156120f05782518084602001fd5b8160405162461bcd60e51b815260040161072291906123e6565b60006020828403121561211c57600080fd5b8135611cea816126ab565b6000806040838503121561213a57600080fd5b8235612145816126ab565b9150602083013567ffffffffffffffff8082111561216257600080fd5b818501915085601f83011261217657600080fd5b81358181111561218857612188612695565b604051601f8201601f19908116603f011681019083821181831017156121b0576121b0612695565b816040528281528860208487010111156121c957600080fd5b8260208601602083013760006020848301015280955050505050509250929050565b6000602082840312156121fd57600080fd5b5035919050565b6000806040838503121561221757600080fd5b823591506020830135612229816126ab565b809150509250929050565b60008060006060848603121561224957600080fd5b83359250602084013591506040840135612262816126ab565b809150509250925092565b60006020828403121561227f57600080fd5b81356001600160e01b031981168114611cea57600080fd5b6000602082840312156122a957600080fd5b8151611cea816126ab565b600080604083850312156122c757600080fd5b82356122d2816126ab565b91506020830135612229816126ab565b600080604083850312156122f557600080fd5b8235612300816126ab565b915060208301356004811061222957600080fd5b60006020828403121561232657600080fd5b5051919050565b6000825161233f81846020870161260c565b9190910192915050565b7f416363657373436f6e74726f6c3a206163636f756e742000000000000000000081526000835161238181601785016020880161260c565b7001034b99036b4b9b9b4b733903937b6329607d1b60179184019182015283516123b281602884016020880161260c565b01602801949350505050565b60208101600483106123e057634e487b7160e01b600052602160045260246000fd5b91905290565b602081526000825180602084015261240581604085016020870161260c565b601f01601f19169190910160400192915050565b60208082526027908201527f436f6d706f6e656e74206e6f74206c696e6b656420746f207468697320506f6c6040820152661a58de541bdbdb60ca1b606082015260800190565b6020808252602c908201527f46756e6374696f6e206d7573742062652063616c6c6564207468726f7567682060408201526b19195b1959d85d1958d85b1b60a21b606082015260800190565b60208082526036908201527f5269736b4d6f64756c6520534352204c696d6974206578636565647320746865604082015275103634b6b4ba103337b9102622ab22a619103ab9b2b960511b606082015260800190565b6020808252602c908201527f46756e6374696f6e206d7573742062652063616c6c6564207468726f7567682060408201526b6163746976652070726f787960a01b606082015260800190565b6020808252602e908201527f496e697469616c697a61626c653a20636f6e747261637420697320616c72656160408201526d191e481a5b9a5d1a585b1a5e995960921b606082015260800190565b600082198211156125af576125af612653565b500190565b6000826125d157634e487b7160e01b600052601260045260246000fd5b500490565b60008160001904831182151516156125f0576125f0612653565b500290565b60008282101561260757612607612653565b500390565b60005b8381101561262757818101518382015260200161260f565b83811115612636576000848401525b50505050565b60008161264b5761264b612653565b506000190190565b634e487b7160e01b600052601160045260246000fd5b634e487b7160e01b600052602160045260246000fd5b634e487b7160e01b600052603260045260246000fd5b634e487b7160e01b600052604160045260246000fd5b6001600160a01b03811681146108e757600080fdfeb6bdbd44472629fc24a00b6f4ee3348b72c9eff333d0e9c16d78c49da1323c8fbf372ca3ebecfe59ac256f17697941bbe63302aced610e8b0e3646f743c7beb2416464726573733a206c6f772d6c6576656c2064656c65676174652063616c6c206661696c6564a82e22387fca439f316d78ca566f383218ab8ae1b3e830178c9c82cbd16749c055435dd261a4b9b3364963f7738a7a662ad9c84396d64be3365284bb7f0a5041a26469706673582212203745efbddffdb46e7ec7f20f7a18a4ed3e5b4c5dca8bea9152142b68fca88c3264736f6c63430008060033",
  "linkReferences": {},
  "deployedLinkReferences": {}
}