{
  "_format": "hh-sol-artifact-1",
  "contractName": "FixedRateAssetManager",
  "sourceName": "contracts/mocks/FixedRateAssetManager.sol",
  "abi": [
    {
      "anonymous": false,
      "inputs": [
        {
          "indexed": false,
          "internalType": "address",
          "name": "previousAdmin",
          "type": "address"
        },
        {
          "indexed": false,
          "internalType": "address",
          "name": "newAdmin",
          "type": "address"
        }
      ],
      "name": "AdminChanged",
      "type": "event"
    },
    {
      "anonymous": false,
      "inputs": [
        {
          "indexed": true,
          "internalType": "address",
          "name": "beacon",
          "type": "address"
        }
      ],
      "name": "BeaconUpgraded",
      "type": "event"
    },
    {
      "anonymous": false,
      "inputs": [
        {
          "indexed": false,
          "internalType": "bool",
          "name": "positive",
          "type": "bool"
        },
        {
          "indexed": false,
          "internalType": "uint256",
          "name": "amount",
          "type": "uint256"
        }
      ],
      "name": "EarningsDistributed",
      "type": "event"
    },
    {
      "anonymous": false,
      "inputs": [
        {
          "indexed": true,
          "internalType": "enum IPolicyPoolConfig.GovernanceActions",
          "name": "action",
          "type": "uint8"
        },
        {
          "indexed": false,
          "internalType": "uint256",
          "name": "value",
          "type": "uint256"
        }
      ],
      "name": "GovernanceAction",
      "type": "event"
    },
    {
      "anonymous": false,
      "inputs": [
        {
          "indexed": false,
          "internalType": "uint256",
          "name": "amount",
          "type": "uint256"
        }
      ],
      "name": "MoneyDeinvested",
      "type": "event"
    },
    {
      "anonymous": false,
      "inputs": [
        {
          "indexed": false,
          "internalType": "uint256",
          "name": "amount",
          "type": "uint256"
        }
      ],
      "name": "MoneyInvested",
      "type": "event"
    },
    {
      "anonymous": false,
      "inputs": [
        {
          "indexed": false,
          "internalType": "address",
          "name": "account",
          "type": "address"
        }
      ],
      "name": "Paused",
      "type": "event"
    },
    {
      "anonymous": false,
      "inputs": [
        {
          "indexed": false,
          "internalType": "address",
          "name": "account",
          "type": "address"
        }
      ],
      "name": "Unpaused",
      "type": "event"
    },
    {
      "anonymous": false,
      "inputs": [
        {
          "indexed": true,
          "internalType": "address",
          "name": "implementation",
          "type": "address"
        }
      ],
      "name": "Upgraded",
      "type": "event"
    },
    {
      "inputs": [],
      "name": "GUARDIAN_ROLE",
      "outputs": [
        {
          "internalType": "bytes32",
          "name": "",
          "type": "bytes32"
        }
      ],
      "stateMutability": "view",
      "type": "function"
    },
    {
      "inputs": [],
      "name": "LEVEL1_ROLE",
      "outputs": [
        {
          "internalType": "bytes32",
          "name": "",
          "type": "bytes32"
        }
      ],
      "stateMutability": "view",
      "type": "function"
    },
    {
      "inputs": [],
      "name": "LEVEL2_ROLE",
      "outputs": [
        {
          "internalType": "bytes32",
          "name": "",
          "type": "bytes32"
        }
      ],
      "stateMutability": "view",
      "type": "function"
    },
    {
      "inputs": [],
      "name": "LEVEL3_ROLE",
      "outputs": [
        {
          "internalType": "bytes32",
          "name": "",
          "type": "bytes32"
        }
      ],
      "stateMutability": "view",
      "type": "function"
    },
    {
      "inputs": [],
      "name": "TWEAK_EXPIRATION",
      "outputs": [
        {
          "internalType": "uint40",
          "name": "",
          "type": "uint40"
        }
      ],
      "stateMutability": "view",
      "type": "function"
    },
    {
      "inputs": [
        {
          "internalType": "contract IPolicyPool",
          "name": "policyPool_",
          "type": "address"
        },
        {
          "internalType": "uint256",
          "name": "liquidityMin_",
          "type": "uint256"
        },
        {
          "internalType": "uint256",
          "name": "liquidityMiddle_",
          "type": "uint256"
        },
        {
          "internalType": "uint256",
          "name": "liquidityMax_",
          "type": "uint256"
        }
      ],
      "name": "__BaseAssetManager_init",
      "outputs": [],
      "stateMutability": "nonpayable",
      "type": "function"
    },
    {
      "inputs": [
        {
          "internalType": "uint256",
          "name": "liquidityMin_",
          "type": "uint256"
        },
        {
          "internalType": "uint256",
          "name": "liquidityMiddle_",
          "type": "uint256"
        },
        {
          "internalType": "uint256",
          "name": "liquidityMax_",
          "type": "uint256"
        }
      ],
      "name": "__BaseAssetManager_init_unchained",
      "outputs": [],
      "stateMutability": "nonpayable",
      "type": "function"
    },
    {
      "inputs": [],
      "name": "checkpoint",
      "outputs": [],
      "stateMutability": "nonpayable",
      "type": "function"
    },
    {
      "inputs": [],
      "name": "currency",
      "outputs": [
        {
          "internalType": "contract IERC20Metadata",
          "name": "",
          "type": "address"
        }
      ],
      "stateMutability": "view",
      "type": "function"
    },
    {
      "inputs": [],
      "name": "deinvestAll",
      "outputs": [],
      "stateMutability": "nonpayable",
      "type": "function"
    },
    {
      "inputs": [],
      "name": "distibuteEarnings",
      "outputs": [],
      "stateMutability": "nonpayable",
      "type": "function"
    },
    {
      "inputs": [],
      "name": "getInvestmentValue",
      "outputs": [
        {
          "internalType": "uint256",
          "name": "",
          "type": "uint256"
        }
      ],
      "stateMutability": "view",
      "type": "function"
    },
    {
      "inputs": [
        {
          "internalType": "contract IPolicyPool",
          "name": "policyPool_",
          "type": "address"
        },
        {
          "internalType": "uint256",
          "name": "liquidityMin_",
          "type": "uint256"
        },
        {
          "internalType": "uint256",
          "name": "liquidityMiddle_",
          "type": "uint256"
        },
        {
          "internalType": "uint256",
          "name": "liquidityMax_",
          "type": "uint256"
        },
        {
          "internalType": "uint256",
          "name": "interestRate_",
          "type": "uint256"
        }
      ],
      "name": "initialize",
      "outputs": [],
      "stateMutability": "nonpayable",
      "type": "function"
    },
    {
      "inputs": [],
      "name": "interestRate",
      "outputs": [
        {
          "internalType": "uint256",
          "name": "",
          "type": "uint256"
        }
      ],
      "stateMutability": "view",
      "type": "function"
    },
    {
      "inputs": [],
      "name": "lastMintBurn",
      "outputs": [
        {
          "internalType": "uint256",
          "name": "",
          "type": "uint256"
        }
      ],
      "stateMutability": "view",
      "type": "function"
    },
    {
      "inputs": [],
      "name": "lastTweak",
      "outputs": [
        {
          "internalType": "uint40",
          "name": "",
          "type": "uint40"
        },
        {
          "internalType": "uint56",
          "name": "",
          "type": "uint56"
        }
      ],
      "stateMutability": "view",
      "type": "function"
    },
    {
      "inputs": [],
      "name": "liquidityMax",
      "outputs": [
        {
          "internalType": "uint256",
          "name": "",
          "type": "uint256"
        }
      ],
      "stateMutability": "view",
      "type": "function"
    },
    {
      "inputs": [],
      "name": "liquidityMiddle",
      "outputs": [
        {
          "internalType": "uint256",
          "name": "",
          "type": "uint256"
        }
      ],
      "stateMutability": "view",
      "type": "function"
    },
    {
      "inputs": [],
      "name": "liquidityMin",
      "outputs": [
        {
          "internalType": "uint256",
          "name": "",
          "type": "uint256"
        }
      ],
      "stateMutability": "view",
      "type": "function"
    },
    {
      "inputs": [],
      "name": "pause",
      "outputs": [],
      "stateMutability": "nonpayable",
      "type": "function"
    },
    {
      "inputs": [],
      "name": "paused",
      "outputs": [
        {
          "internalType": "bool",
          "name": "",
          "type": "bool"
        }
      ],
      "stateMutability": "view",
      "type": "function"
    },
    {
      "inputs": [],
      "name": "policyPool",
      "outputs": [
        {
          "internalType": "contract IPolicyPool",
          "name": "",
          "type": "address"
        }
      ],
      "stateMutability": "view",
      "type": "function"
    },
    {
      "inputs": [],
      "name": "rebalance",
      "outputs": [],
      "stateMutability": "nonpayable",
      "type": "function"
    },
    {
      "inputs": [
        {
          "internalType": "uint256",
          "name": "paymentAmount",
          "type": "uint256"
        }
      ],
      "name": "refillWallet",
      "outputs": [],
      "stateMutability": "nonpayable",
      "type": "function"
    },
    {
      "inputs": [
        {
          "internalType": "uint256",
          "name": "newValue",
          "type": "uint256"
        }
      ],
      "name": "setLiquidityMax",
      "outputs": [],
      "stateMutability": "nonpayable",
      "type": "function"
    },
    {
      "inputs": [
        {
          "internalType": "uint256",
          "name": "newValue",
          "type": "uint256"
        }
      ],
      "name": "setLiquidityMiddle",
      "outputs": [],
      "stateMutability": "nonpayable",
      "type": "function"
    },
    {
      "inputs": [
        {
          "internalType": "uint256",
          "name": "newValue",
          "type": "uint256"
        }
      ],
      "name": "setLiquidityMin",
      "outputs": [],
      "stateMutability": "nonpayable",
      "type": "function"
    },
    {
      "inputs": [],
      "name": "totalInvestable",
      "outputs": [
        {
          "internalType": "uint256",
          "name": "",
          "type": "uint256"
        }
      ],
      "stateMutability": "view",
      "type": "function"
    },
    {
      "inputs": [],
      "name": "unpause",
      "outputs": [],
      "stateMutability": "nonpayable",
      "type": "function"
    },
    {
      "inputs": [
        {
          "internalType": "address",
          "name": "newImplementation",
          "type": "address"
        }
      ],
      "name": "upgradeTo",
      "outputs": [],
      "stateMutability": "nonpayable",
      "type": "function"
    },
    {
      "inputs": [
        {
          "internalType": "address",
          "name": "newImplementation",
          "type": "address"
        },
        {
          "internalType": "bytes",
          "name": "data",
          "type": "bytes"
        }
      ],
      "name": "upgradeToAndCall",
      "outputs": [],
      "stateMutability": "payable",
      "type": "function"
    }
  ],
  "bytecode": "0x60a06040523060601b60805234801561001757600080fd5b5060805160601c6135b561004b600039600081816108e80152818161092801528181610bca0152610c0a01526135b56000f3fe6080604052600436106101d85760003560e01c80636ad3902a11610102578063bb79839111610095578063f67b2bad11610064578063f67b2bad14610500578063f92ad21914610534578063f9c4fd1b14610554578063fa67e8d41461056957600080fd5b8063bb798391146104ab578063c2c4c5c1146104c1578063cec16f3f146104d6578063e5a6b10f146104eb57600080fd5b80637ed5acfa116100d15780637ed5acfa146104345780638456cb591461046157806385a5a1ae146104765780638d7ddd901461049657600080fd5b80636ad3902a146103d457806379d372fc146103f45780637c3a00fd146104095780637d7c2a1c1461041f57600080fd5b8063468a8c9f1161017a5780634f1ef286116101495780634f1ef2861461035c5780635a89c5ac1461036f5780635b494dd51461038f5780635c975abb146103b157600080fd5b8063468a8c9f146102b35780634a47a3e0146102f35780634d15eb03146103155780634dd93bd31461034757600080fd5b806324ea54f4116101b657806324ea54f4146102475780633659cfe6146102695780633b6612c8146102895780633f4ba83a1461029e57600080fd5b806305400115146101dd5780631014a0c2146102055780631a2afb1d14610227575b600080fd5b3480156101e957600080fd5b506101f2610589565b6040519081526020015b60405180910390f35b34801561021157600080fd5b50610225610220366004613104565b6105ac565b005b34801561023357600080fd5b50610225610242366004613104565b610718565b34801561025357600080fd5b506101f260008051602061356083398151915281565b34801561027557600080fd5b50610225610284366004612f65565b6108dd565b34801561029557600080fd5b5060cd546101f2565b3480156102aa57600080fd5b506102256109a6565b3480156102bf57600080fd5b5060c95460408051600160a01b830464ffffffffff168152600160c81b90920466ffffffffffffff166020830152016101fc565b3480156102ff57600080fd5b506101f260008051602061354083398151915281565b34801561032157600080fd5b5060c9546001600160a01b03165b6040516001600160a01b0390911681526020016101fc565b34801561035357600080fd5b506101f2610ac7565b61022561036a366004612f82565b610bbf565b34801561037b57600080fd5b5061022561038a366004613104565b610c75565b34801561039b57600080fd5b506101f26000805160206134f983398151915281565b3480156103bd57600080fd5b5060975460ff1660405190151581526020016101fc565b3480156103e057600080fd5b506102256103ef366004613136565b610e2c565b34801561040057600080fd5b50610225610eb1565b34801561041557600080fd5b506101f260cf5481565b34801561042b57600080fd5b50610225611215565b34801561044057600080fd5b5061044b6201518081565b60405164ffffffffff90911681526020016101fc565b34801561046d57600080fd5b50610225611300565b34801561048257600080fd5b50610225610491366004613104565b6113f2565b3480156104a257600080fd5b5060cb546101f2565b3480156104b757600080fd5b506101f260d05481565b3480156104cd57600080fd5b506102256115ac565b3480156104e257600080fd5b506102256115bc565b3480156104f757600080fd5b5061032f6115fa565b34801561050c57600080fd5b506101f27fbf372ca3ebecfe59ac256f17697941bbe63302aced610e8b0e3646f743c7beb281565b34801561054057600080fd5b5061022561054f3660046130c0565b61167c565b34801561056057600080fd5b5060cc546101f2565b34801561057557600080fd5b50610225610584366004613085565b611702565b6000806000610596611786565b90925090506105a58183613362565b9250505090565b60c9546001600160a01b0316336001600160a01b0316146105e85760405162461bcd60e51b81526004016105df906132e0565b60405180910390fd5b60006105f26115fa565b60c9546040516370a0823160e01b81526001600160a01b0391821660048201529116906370a082319060240160206040518083038186803b15801561063657600080fd5b505afa15801561064a573d6000803e3d6000fd5b505050506040513d601f19601f8201168201806040525081019061066e919061311d565b90508181106106d55760405162461bcd60e51b815260206004820152602d60248201527f4e6f206e65656420746f20726566696c6c207468652077616c6c657420666f7260448201526c081d1a1a5cc81c185e5b595b9d609a1b60648201526084016105df565b60006106df610ac7565b905060008260cc54856106f29190613362565b6106fc91906133fa565b9050818111156107095750805b610712816119be565b50505050565b6000805160206135408339815191526000805160206134f983398151915260c960009054906101000a90046001600160a01b03166001600160a01b03166379502c556040518163ffffffff1660e01b815260040160206040518083038186803b15801561078457600080fd5b505afa158015610798573d6000803e3d6000fd5b505050506040513d601f19601f820116820180604052508101906107bc9190613068565b6001600160a01b031663c5b8f5cf8383336040518463ffffffff1660e01b81526004016107eb9392919061317e565b60006040518083038186803b15801561080357600080fd5b505afa158015610817573d6000803e3d6000fd5b505050506000610834600080516020613540833981519152611a61565b159050801580610857575061085760cb54856af8277896582678ac000000611b64565b6108be5760405162461bcd60e51b815260206004820152603260248201527f547765616b2065786365656465643a206c69717569646974794d696e20747765604482015271616b73206f6e6c7920757020746f2033302560701b60648201526084016105df565b60cb8490556108cf60138583611bf9565b506108d8611c52565b505050565b306001600160a01b037f00000000000000000000000000000000000000000000000000000000000000001614156109265760405162461bcd60e51b81526004016105df906131d0565b7f00000000000000000000000000000000000000000000000000000000000000006001600160a01b0316610958611cc7565b6001600160a01b03161461097e5760405162461bcd60e51b81526004016105df9061321c565b61098781611cf5565b604080516000808252602082019092526109a391839190611e0f565b50565b6000805160206135608339815191527fbf372ca3ebecfe59ac256f17697941bbe63302aced610e8b0e3646f743c7beb260c960009054906101000a90046001600160a01b03166001600160a01b03166379502c556040518163ffffffff1660e01b815260040160206040518083038186803b158015610a2457600080fd5b505afa158015610a38573d6000803e3d6000fd5b505050506040513d601f19601f82011682018060405250810190610a5c9190613068565b6001600160a01b031663c5b8f5cf8383336040518463ffffffff1660e01b8152600401610a8b9392919061317e565b60006040518083038186803b158015610aa357600080fd5b505afa158015610ab7573d6000803e3d6000fd5b50505050610ac3611f53565b5050565b600080610ad26115fa565b6040516370a0823160e01b81523060048201526001600160a01b0391909116906370a082319060240160206040518083038186803b158015610b1357600080fd5b505afa158015610b27573d6000803e3d6000fd5b505050506040513d601f19601f82011682018060405250810190610b4b919061311d565b90504260d05410610b5b57919050565b600060d05442610b6b91906133fa565b905060006301e133808260cf54610b82919061339c565b610b8c919061337a565b610ba2906b033b2e3c9fd0803ce8000000613362565b9050610bb7610bb082611fe6565b849061206e565b935050505090565b306001600160a01b037f0000000000000000000000000000000000000000000000000000000000000000161415610c085760405162461bcd60e51b81526004016105df906131d0565b7f00000000000000000000000000000000000000000000000000000000000000006001600160a01b0316610c3a611cc7565b6001600160a01b031614610c605760405162461bcd60e51b81526004016105df9061321c565b610c6982611cf5565b610ac382826001611e0f565b6000805160206135408339815191526000805160206134f983398151915260c960009054906101000a90046001600160a01b03166001600160a01b03166379502c556040518163ffffffff1660e01b815260040160206040518083038186803b158015610ce157600080fd5b505afa158015610cf5573d6000803e3d6000fd5b505050506040513d601f19601f82011682018060405250810190610d199190613068565b6001600160a01b031663c5b8f5cf8383336040518463ffffffff1660e01b8152600401610d489392919061317e565b60006040518083038186803b158015610d6057600080fd5b505afa158015610d74573d6000803e3d6000fd5b505050506000610d91600080516020613540833981519152611a61565b159050801580610db45750610db460cd54856af8277896582678ac000000611b64565b610e1b5760405162461bcd60e51b815260206004820152603260248201527f547765616b2065786365656465643a206c69717569646974794d617820747765604482015271616b73206f6e6c7920757020746f2033302560701b60648201526084016105df565b60cd8490556108cf60158583611bf9565b600054610100900460ff1680610e45575060005460ff16155b610e615760405162461bcd60e51b81526004016105df90613292565b600054610100900460ff16158015610e83576000805461ffff19166101011790555b60cb84905560cc83905560cd829055610e9a611c52565b8015610712576000805461ff001916905550505050565b60975460ff1615610ed45760405162461bcd60e51b81526004016105df90613268565b6000610ede610ac7565b905060008060ce54831115610f055760ce54610efa90846133fa565b905060019150610f24565b60ce548310156108d8578260ce54610f1d91906133fa565b9050600091505b600080610f2f611786565b90925090506000610f408284613362565b60c9549091506001600160a01b031663ab600169610f6883610f62888861206e565b9061213f565b6040516001600160e01b031960e084901b16815260048101919091528715156024820152604401600060405180830381600087803b158015610fa957600080fd5b505af1158015610fbd573d6000803e3d6000fd5b5050505060005b60c960009054906101000a90046001600160a01b03166001600160a01b031663dea167d56040518163ffffffff1660e01b815260040160206040518083038186803b15801561101257600080fd5b505afa158015611026573d6000803e3d6000fd5b505050506040513d601f19601f8201168201806040525081019061104a919061311d565b8110156111cb5760c95460405163b0ec4bcf60e01b8152600481018390526000916001600160a01b03169063b0ec4bcf9060240160206040518083038186803b15801561109657600080fd5b505afa1580156110aa573d6000803e3d6000fd5b505050506040513d601f19601f820116820180604052508101906110ce9190613068565b9050806001600160a01b031663ab60016961115e85610f62856001600160a01b03166365e29c7e6040518163ffffffff1660e01b815260040160206040518083038186803b15801561111f57600080fd5b505afa158015611133573d6000803e3d6000fd5b505050506040513d601f19601f82011682018060405250810190611157919061311d565b8b9061206e565b6040516001600160e01b031960e084901b16815260048101919091528915156024820152604401600060405180830381600087803b15801561119f57600080fd5b505af11580156111b3573d6000803e3d6000fd5b505050505080806111c390613486565b915050610fc4565b5060ce869055604080518615158152602081018690527f91a6cbd27bc7cdd21da57fbb08ebfaf5cece633ca7dd5f1741bff39f4be3ad4f910160405180910390a15050505050505b565b60975460ff16156112385760405162461bcd60e51b81526004016105df90613268565b60006112426115fa565b60c9546040516370a0823160e01b81526001600160a01b0391821660048201529116906370a082319060240160206040518083038186803b15801561128657600080fd5b505afa15801561129a573d6000803e3d6000fd5b505050506040513d601f19601f820116820180604052508101906112be919061311d565b905060cd548111156112e0576109a360cc54826112db91906133fa565b61223f565b60cb548110156109a3576109a38160cc546112fb91906133fa565b6119be565b60c954604080516379502c5560e01b81529051600080516020613560833981519152926001600160a01b0316916379502c55916004808301926020929190829003018186803b15801561135257600080fd5b505afa158015611366573d6000803e3d6000fd5b505050506040513d601f19601f8201168201806040525081019061138a9190613068565b6040516312d9a6ad60e01b8152600481018390523360248201526001600160a01b0391909116906312d9a6ad9060440160006040518083038186803b1580156113d257600080fd5b505afa1580156113e6573d6000803e3d6000fd5b505050506109a36122e6565b6000805160206135408339815191526000805160206134f983398151915260c960009054906101000a90046001600160a01b03166001600160a01b03166379502c556040518163ffffffff1660e01b815260040160206040518083038186803b15801561145e57600080fd5b505afa158015611472573d6000803e3d6000fd5b505050506040513d601f19601f820116820180604052508101906114969190613068565b6001600160a01b031663c5b8f5cf8383336040518463ffffffff1660e01b81526004016114c59392919061317e565b60006040518083038186803b1580156114dd57600080fd5b505afa1580156114f1573d6000803e3d6000fd5b50505050600061150e600080516020613540833981519152611a61565b159050801580611531575061153160cc54856af8277896582678ac000000611b64565b61159b5760405162461bcd60e51b815260206004820152603560248201527f547765616b2065786365656465643a206c69717569646974794d6964646c6520604482015274747765616b73206f6e6c7920757020746f2033302560581b60648201526084016105df565b60cc8490556108cf60148583611bf9565b6115b4610eb1565b611213611215565b60c9546001600160a01b0316336001600160a01b0316146115ef5760405162461bcd60e51b81526004016105df906132e0565b6112136112fb610ac7565b60c9546040805163e5a6b10f60e01b815290516000926001600160a01b03169163e5a6b10f916004808301926020929190829003018186803b15801561163f57600080fd5b505afa158015611653573d6000803e3d6000fd5b505050506040513d601f19601f820116820180604052508101906116779190613068565b905090565b600054610100900460ff1680611695575060005460ff16155b6116b15760405162461bcd60e51b81526004016105df90613292565b600054610100900460ff161580156116d3576000805461ffff19166101011790555b6116df86868686611702565b60cf8290554260d05580156116fa576000805461ff00191690555b505050505050565b600054610100900460ff168061171b575060005460ff16155b6117375760405162461bcd60e51b81526004016105df90613292565b600054610100900460ff16158015611759576000805461ffff19166101011790555b6117628561233e565b61176d848484610e2c565b801561177f576000805461ff00191690555b5050505050565b600080600060c960009054906101000a90046001600160a01b03166001600160a01b03166365e29c7e6040518163ffffffff1660e01b815260040160206040518083038186803b1580156117d957600080fd5b505afa1580156117ed573d6000803e3d6000fd5b505050506040513d601f19601f82011682018060405250810190611811919061311d565b90506000805b60c960009054906101000a90046001600160a01b03166001600160a01b031663dea167d56040518163ffffffff1660e01b815260040160206040518083038186803b15801561186557600080fd5b505afa158015611879573d6000803e3d6000fd5b505050506040513d601f19601f8201168201806040525081019061189d919061311d565b8110156119b45760c95460405163b0ec4bcf60e01b8152600481018390526000916001600160a01b03169063b0ec4bcf9060240160206040518083038186803b1580156118e957600080fd5b505afa1580156118fd573d6000803e3d6000fd5b505050506040513d601f19601f820116820180604052508101906119219190613068565b9050806001600160a01b03166365e29c7e6040518163ffffffff1660e01b815260040160206040518083038186803b15801561195c57600080fd5b505afa158015611970573d6000803e3d6000fd5b505050506040513d601f19601f82011682018060405250810190611994919061311d565b61199e9084613362565b92505080806119ac90613486565b915050611817565b5090939092509050565b6119c66123c3565b6119cf8161257b565b60c9546040805163e5a6b10f60e01b815290516109a3926001600160a01b0316918491839163e5a6b10f916004808301926020929190829003018186803b158015611a1957600080fd5b505afa158015611a2d573d6000803e3d6000fd5b505050506040513d601f19601f82011682018060405250810190611a519190613068565b6001600160a01b031691906125ec565b60c954604080516379502c5560e01b815290516000926001600160a01b0316916379502c55916004808301926020929190829003018186803b158015611aa657600080fd5b505afa158015611aba573d6000803e3d6000fd5b505050506040513d601f19601f82011682018060405250810190611ade9190613068565b604051632474521560e21b8152600481018490523360248201526001600160a01b0391909116906391d148549060440160206040518083038186803b158015611b2657600080fd5b505afa158015611b3a573d6000803e3d6000fd5b505050506040513d601f19601f82011682018060405250810190611b5e9190613046565b92915050565b600082841415611b7657506001611bf2565b83611b9157506b033b2e3c9fd0803ce8000000811015611bf2565b82611b9e57506000611bf2565b82841015611bd157816b033b2e3c9fd0803ce8000000611bbe858761264f565b611bc891906133fa565b11159050611bf2565b81611bdc848661264f565b611bc8906b033b2e3c9fd0803ce80000006133fa565b9392505050565b8015611c0857611c0883612743565b826019811115611c1a57611c1a6134b7565b6040518381527f7bc647fe5043209e2019aa3503b79c1b0dd83eb61c56013d373a7584ff6bfb139060200160405180910390a2505050565b60cc5460cb5411158015611c6a575060cd5460cc5411155b6112135760405162461bcd60e51b815260206004820152602860248201527f56616c69646174696f6e3a204c6971756964697479206c696d69747320617265604482015267081a5b9d985b1a5960c21b60648201526084016105df565b7f360894a13ba1a3210667c828492db98dca3e2076cc3735a920a3ca505d382bbc546001600160a01b031690565b6000805160206135608339815191527fbf372ca3ebecfe59ac256f17697941bbe63302aced610e8b0e3646f743c7beb260c960009054906101000a90046001600160a01b03166001600160a01b03166379502c556040518163ffffffff1660e01b815260040160206040518083038186803b158015611d7357600080fd5b505afa158015611d87573d6000803e3d6000fd5b505050506040513d601f19601f82011682018060405250810190611dab9190613068565b6001600160a01b031663c5b8f5cf8383336040518463ffffffff1660e01b8152600401611dda9392919061317e565b60006040518083038186803b158015611df257600080fd5b505afa158015611e06573d6000803e3d6000fd5b50505050505050565b6000611e19611cc7565b9050611e24846128c2565b600083511180611e315750815b15611e4257611e408484612967565b505b7f4910fdfa16fed3260ed0e7147f7cc6da11a60208b5b9406d12a635614ffd9143805460ff1661177f57805460ff191660011781556040516001600160a01b0383166024820152611ec190869060440160408051601f198184030181529190526020810180516001600160e01b0316631b2ce7f360e11b179052612967565b50805460ff19168155611ed2611cc7565b6001600160a01b0316826001600160a01b031614611f4a5760405162461bcd60e51b815260206004820152602f60248201527f45524331393637557067726164653a207570677261646520627265616b73206660448201526e75727468657220757067726164657360881b60648201526084016105df565b61177f85612a52565b60975460ff16611f9c5760405162461bcd60e51b815260206004820152601460248201527314185d5cd8589b194e881b9bdd081c185d5cd95960621b60448201526064016105df565b6097805460ff191690557f5db9ee0a495bf2e6ff9c91a7834c1ba4fdd244a5e8aa4e537bd38aeae4b073aa335b6040516001600160a01b03909116815260200160405180910390a1565b600080611ff86002633b9aca0061337a565b905060006120068483613362565b9050818110156120585760405162461bcd60e51b815260206004820181905260248201527f726179546f5761643a204d617468204164646974696f6e204f766572666c6f7760448201526064016105df565b612066633b9aca008261337a565b949350505050565b600082158061207b575081155b1561208857506000611b5e565b8161209c6002670de0b6b3a764000061337a565b6120a8906000196133fa565b6120b2919061337a565b83111561210d5760405162461bcd60e51b8152602060048201526024808201527f7761644d756c3a204d617468204d756c7469706c69636174696f6e204f766572604482015263666c6f7760e01b60648201526084016105df565b670de0b6b3a764000061212160028261337a565b61212b848661339c565b6121359190613362565b611bf2919061337a565b60008161218e5760405162461bcd60e51b815260206004820152601860248201527f7761644469763a204469766973696f6e206279207a65726f000000000000000060448201526064016105df565b600061219b60028461337a565b9050670de0b6b3a76400006121b2826000196133fa565b6121bc919061337a565b8411156122175760405162461bcd60e51b8152602060048201526024808201527f7761644469763a204d617468204d756c7469706c69636174696f6e204f766572604482015263666c6f7760e01b60648201526084016105df565b828161222b670de0b6b3a76400008761339c565b6122359190613362565b612066919061337a565b6122476123c3565b61225081612a92565b60c9546040805163e5a6b10f60e01b815290516109a3926001600160a01b03169130918591849163e5a6b10f91600480820192602092909190829003018186803b15801561229d57600080fd5b505afa1580156122b1573d6000803e3d6000fd5b505050506040513d601f19601f820116820180604052508101906122d59190613068565b6001600160a01b0316929190612af2565b60975460ff16156123095760405162461bcd60e51b81526004016105df90613268565b6097805460ff191660011790557f62e78cea01bee320cd4e420270b5ea74000d11b0c9f74754ebdbfc544b05a258611fc93390565b600054610100900460ff1680612357575060005460ff16155b6123735760405162461bcd60e51b81526004016105df90613292565b600054610100900460ff16158015612395576000805461ffff19166101011790555b61239d612b2a565b6123a5612ba5565b6123ae82612c0c565b8015610ac3576000805461ff00191690555050565b4260d054106123ce57565b60006123d86115fa565b6040516370a0823160e01b81523060048201526001600160a01b0391909116906370a082319060240160206040518083038186803b15801561241957600080fd5b505afa15801561242d573d6000803e3d6000fd5b505050506040513d601f19601f82011682018060405250810190612451919061311d565b9050600061245d610ac7565b9050818111156124eb5761246f6115fa565b6001600160a01b03166340c10f193061248885856133fa565b6040516001600160e01b031960e085901b1681526001600160a01b0390921660048301526024820152604401600060405180830381600087803b1580156124ce57600080fd5b505af11580156124e2573d6000803e3d6000fd5b50505050612573565b81811015612573576124fb6115fa565b6001600160a01b0316639dc29fac3061251484866133fa565b6040516001600160e01b031960e085901b1681526001600160a01b0390921660048301526024820152604401600060405180830381600087803b15801561255a57600080fd5b505af115801561256e573d6000803e3d6000fd5b505050505b50504260d055565b8060ca600082825461258d91906133bb565b909155505060ce5461259f9082612c93565b60ce60008282546125b091906133fa565b90915550506040518181527fb82d4e0870bf4ae7236ad1de74d6612d04d1b805b47d98c2f40088a193d87c65906020015b60405180910390a150565b6040516001600160a01b0383166024820152604481018290526108d890849063a9059cbb60e01b906064015b60408051601f198184030181529190526020810180516001600160e01b03166001600160e01b031990931692909217909152612ca9565b60008161269e5760405162461bcd60e51b815260206004820152601860248201527f7261794469763a204469766973696f6e206279207a65726f000000000000000060448201526064016105df565b60006126ab60028461337a565b90506b033b2e3c9fd0803ce80000006126c6826000196133fa565b6126d0919061337a565b84111561272b5760405162461bcd60e51b8152602060048201526024808201527f7261794469763a204d617468204d756c7469706c69636174696f6e204f766572604482015263666c6f7760e01b60648201526084016105df565b828161222b6b033b2e3c9fd0803ce80000008761339c565b60006001826019811115612759576127596134b7565b6127639190613437565b60c954600160ff929092169190911b9150620151809061279190600160a01b900464ffffffffff1642613411565b64ffffffffff1611156127df5760c9805466ffffffffffffff8316600160c81b026001600160c81b0364ffffffffff4216600160a01b02166001600160a01b03909216919091171790555050565b60c954600160c81b9004811666ffffffffffffff166128445760c9805464ffffffffff4216600160a01b0264ffffffffff60a01b1966ffffffffffffff808616600160c81b808604929092161702166001600160a01b03909216919091171790555050565b60405162461bcd60e51b815260206004820152604760248201527f596f7520616c726561647920747765616b6564207468697320706172616d657460448201527f657220726563656e746c792e2057616974206265666f726520747765616b696e606482015266339030b3b0b4b760c91b608482015260a4016105df565b803b6129265760405162461bcd60e51b815260206004820152602d60248201527f455243313936373a206e657720696d706c656d656e746174696f6e206973206e60448201526c1bdd08184818dbdb9d1c9858dd609a1b60648201526084016105df565b7f360894a13ba1a3210667c828492db98dca3e2076cc3735a920a3ca505d382bbc80546001600160a01b0319166001600160a01b0392909216919091179055565b6060823b6129c65760405162461bcd60e51b815260206004820152602660248201527f416464726573733a2064656c65676174652063616c6c20746f206e6f6e2d636f6044820152651b9d1c9858dd60d21b60648201526084016105df565b600080846001600160a01b0316846040516129e19190613162565b600060405180830381855af49150503d8060008114612a1c576040519150601f19603f3d011682016040523d82523d6000602084013e612a21565b606091505b5091509150612a49828260405180606001604052806027815260200161351960279139612d7b565b95945050505050565b612a5b816128c2565b6040516001600160a01b038216907fbc7cd75a20ee27fd9adebab32041f755214dbc6bffa90cc0225b39da2e5c2d3b90600090a250565b8060ca6000828254612aa49190613321565b925050819055508060ce6000828254612abd9190613362565b90915550506040518181527f0f0cdeac88e111e1dd9b9f043e8c671053dedfbaeccabfb144fd51a4f870fcf4906020016125e1565b6040516001600160a01b03808516602483015283166044820152606481018290526107129085906323b872dd60e01b90608401612618565b600054610100900460ff1680612b43575060005460ff16155b612b5f5760405162461bcd60e51b81526004016105df90613292565b600054610100900460ff16158015612b81576000805461ffff19166101011790555b612b89612db4565b612b91612db4565b80156109a3576000805461ff001916905550565b600054610100900460ff1680612bbe575060005460ff16155b612bda5760405162461bcd60e51b81526004016105df90613292565b600054610100900460ff16158015612bfc576000805461ffff19166101011790555b612c04612db4565b612b91612e1e565b600054610100900460ff1680612c25575060005460ff16155b612c415760405162461bcd60e51b81526004016105df90613292565b600054610100900460ff16158015612c63576000805461ffff19166101011790555b60c980546001600160a01b0319166001600160a01b0384161790558015610ac3576000805461ff00191690555050565b6000818310612ca25781611bf2565b5090919050565b6000612cfe826040518060400160405280602081526020017f5361666545524332303a206c6f772d6c6576656c2063616c6c206661696c6564815250856001600160a01b0316612e939092919063ffffffff16565b8051909150156108d85780806020019051810190612d1c9190613046565b6108d85760405162461bcd60e51b815260206004820152602a60248201527f5361666545524332303a204552433230206f7065726174696f6e20646964206e6044820152691bdd081cdd58d8d9595960b21b60648201526084016105df565b60608315612d8a575081611bf2565b825115612d9a5782518084602001fd5b8160405162461bcd60e51b81526004016105df919061319d565b600054610100900460ff1680612dcd575060005460ff16155b612de95760405162461bcd60e51b81526004016105df90613292565b600054610100900460ff16158015612b91576000805461ffff191661010117905580156109a3576000805461ff001916905550565b600054610100900460ff1680612e37575060005460ff16155b612e535760405162461bcd60e51b81526004016105df90613292565b600054610100900460ff16158015612e75576000805461ffff19166101011790555b6097805460ff1916905580156109a3576000805461ff001916905550565b6060612066848460008585843b612eec5760405162461bcd60e51b815260206004820152601d60248201527f416464726573733a2063616c6c20746f206e6f6e2d636f6e747261637400000060448201526064016105df565b600080866001600160a01b03168587604051612f089190613162565b60006040518083038185875af1925050503d8060008114612f45576040519150601f19603f3d011682016040523d82523d6000602084013e612f4a565b606091505b5091509150612f5a828286612d7b565b979650505050505050565b600060208284031215612f7757600080fd5b8135611bf2816134e3565b60008060408385031215612f9557600080fd5b8235612fa0816134e3565b9150602083013567ffffffffffffffff80821115612fbd57600080fd5b818501915085601f830112612fd157600080fd5b813581811115612fe357612fe36134cd565b604051601f8201601f19908116603f0116810190838211818310171561300b5761300b6134cd565b8160405282815288602084870101111561302457600080fd5b8260208601602083013760006020848301015280955050505050509250929050565b60006020828403121561305857600080fd5b81518015158114611bf257600080fd5b60006020828403121561307a57600080fd5b8151611bf2816134e3565b6000806000806080858703121561309b57600080fd5b84356130a6816134e3565b966020860135965060408601359560600135945092505050565b600080600080600060a086880312156130d857600080fd5b85356130e3816134e3565b97602087013597506040870135966060810135965060800135945092505050565b60006020828403121561311657600080fd5b5035919050565b60006020828403121561312f57600080fd5b5051919050565b60008060006060848603121561314b57600080fd5b505081359360208301359350604090920135919050565b6000825161317481846020870161345a565b9190910192915050565b92835260208301919091526001600160a01b0316604082015260600190565b60208152600082518060208401526131bc81604085016020870161345a565b601f01601f19169190910160400192915050565b6020808252602c908201527f46756e6374696f6e206d7573742062652063616c6c6564207468726f7567682060408201526b19195b1959d85d1958d85b1b60a21b606082015260800190565b6020808252602c908201527f46756e6374696f6e206d7573742062652063616c6c6564207468726f7567682060408201526b6163746976652070726f787960a01b606082015260800190565b60208082526010908201526f14185d5cd8589b194e881c185d5cd95960821b604082015260600190565b6020808252602e908201527f496e697469616c697a61626c653a20636f6e747261637420697320616c72656160408201526d191e481a5b9a5d1a585b1a5e995960921b606082015260800190565b60208082526021908201527f5468652063616c6c6572206d7573742062652074686520506f6c696379506f6f6040820152601b60fa1b606082015260800190565b600080821280156001600160ff1b0384900385131615613343576133436134a1565b600160ff1b839003841281161561335c5761335c6134a1565b50500190565b60008219821115613375576133756134a1565b500190565b60008261339757634e487b7160e01b600052601260045260246000fd5b500490565b60008160001904831182151516156133b6576133b66134a1565b500290565b60008083128015600160ff1b8501841216156133d9576133d96134a1565b6001600160ff1b03840183138116156133f4576133f46134a1565b50500390565b60008282101561340c5761340c6134a1565b500390565b600064ffffffffff8381169083168181101561342f5761342f6134a1565b039392505050565b600060ff821660ff841680821015613451576134516134a1565b90039392505050565b60005b8381101561347557818101518382015260200161345d565b838111156107125750506000910152565b600060001982141561349a5761349a6134a1565b5060010190565b634e487b7160e01b600052601160045260246000fd5b634e487b7160e01b600052602160045260246000fd5b634e487b7160e01b600052604160045260246000fd5b6001600160a01b03811681146109a357600080fdfe5ec196419322369c6bac572d883f4d990ae5ec82f7d93cdf89b85dbb05b63c27416464726573733a206c6f772d6c6576656c2064656c65676174652063616c6c206661696c6564a82e22387fca439f316d78ca566f383218ab8ae1b3e830178c9c82cbd16749c055435dd261a4b9b3364963f7738a7a662ad9c84396d64be3365284bb7f0a5041a2646970667358221220d4735ea03bc23ab94d3f0bb3b6ab42072c2d069af8d3e8ec4013a615e827341064736f6c63430008060033",
  "linkReferences": {},
  "deployedLinkReferences": {}
}