{
  "_format": "hh-sol-artifact-1",
  "contractName": "EToken",
  "sourceName": "contracts/EToken.sol",
  "abi": [
    {
      "anonymous": false,
      "inputs": [
        {
          "indexed": false,
          "internalType": "address",
          "name": "previousAdmin",
          "type": "address"
        },
        {
          "indexed": false,
          "internalType": "address",
          "name": "newAdmin",
          "type": "address"
        }
      ],
      "name": "AdminChanged",
      "type": "event"
    },
    {
      "anonymous": false,
      "inputs": [
        {
          "indexed": true,
          "internalType": "address",
          "name": "owner",
          "type": "address"
        },
        {
          "indexed": true,
          "internalType": "address",
          "name": "spender",
          "type": "address"
        },
        {
          "indexed": false,
          "internalType": "uint256",
          "name": "value",
          "type": "uint256"
        }
      ],
      "name": "Approval",
      "type": "event"
    },
    {
      "anonymous": false,
      "inputs": [
        {
          "indexed": true,
          "internalType": "address",
          "name": "beacon",
          "type": "address"
        }
      ],
      "name": "BeaconUpgraded",
      "type": "event"
    },
    {
      "anonymous": false,
      "inputs": [
        {
          "indexed": true,
          "internalType": "enum IPolicyPoolConfig.GovernanceActions",
          "name": "action",
          "type": "uint8"
        },
        {
          "indexed": false,
          "internalType": "uint256",
          "name": "value",
          "type": "uint256"
        }
      ],
      "name": "GovernanceAction",
      "type": "event"
    },
    {
      "anonymous": false,
      "inputs": [
        {
          "indexed": false,
          "internalType": "address",
          "name": "account",
          "type": "address"
        }
      ],
      "name": "Paused",
      "type": "event"
    },
    {
      "anonymous": false,
      "inputs": [
        {
          "indexed": false,
          "internalType": "uint256",
          "name": "value",
          "type": "uint256"
        }
      ],
      "name": "PoolLoan",
      "type": "event"
    },
    {
      "anonymous": false,
      "inputs": [
        {
          "indexed": false,
          "internalType": "uint256",
          "name": "value",
          "type": "uint256"
        }
      ],
      "name": "PoolLoanRepaid",
      "type": "event"
    },
    {
      "anonymous": false,
      "inputs": [
        {
          "indexed": false,
          "internalType": "uint256",
          "name": "interestRate",
          "type": "uint256"
        },
        {
          "indexed": false,
          "internalType": "uint256",
          "name": "value",
          "type": "uint256"
        }
      ],
      "name": "SCRLocked",
      "type": "event"
    },
    {
      "anonymous": false,
      "inputs": [
        {
          "indexed": false,
          "internalType": "uint256",
          "name": "interestRate",
          "type": "uint256"
        },
        {
          "indexed": false,
          "internalType": "uint256",
          "name": "value",
          "type": "uint256"
        }
      ],
      "name": "SCRUnlocked",
      "type": "event"
    },
    {
      "anonymous": false,
      "inputs": [
        {
          "indexed": true,
          "internalType": "address",
          "name": "from",
          "type": "address"
        },
        {
          "indexed": true,
          "internalType": "address",
          "name": "to",
          "type": "address"
        },
        {
          "indexed": false,
          "internalType": "uint256",
          "name": "value",
          "type": "uint256"
        }
      ],
      "name": "Transfer",
      "type": "event"
    },
    {
      "anonymous": false,
      "inputs": [
        {
          "indexed": false,
          "internalType": "address",
          "name": "account",
          "type": "address"
        }
      ],
      "name": "Unpaused",
      "type": "event"
    },
    {
      "anonymous": false,
      "inputs": [
        {
          "indexed": true,
          "internalType": "address",
          "name": "implementation",
          "type": "address"
        }
      ],
      "name": "Upgraded",
      "type": "event"
    },
    {
      "inputs": [],
      "name": "GUARDIAN_ROLE",
      "outputs": [
        {
          "internalType": "bytes32",
          "name": "",
          "type": "bytes32"
        }
      ],
      "stateMutability": "view",
      "type": "function"
    },
    {
      "inputs": [],
      "name": "LEVEL1_ROLE",
      "outputs": [
        {
          "internalType": "bytes32",
          "name": "",
          "type": "bytes32"
        }
      ],
      "stateMutability": "view",
      "type": "function"
    },
    {
      "inputs": [],
      "name": "LEVEL2_ROLE",
      "outputs": [
        {
          "internalType": "bytes32",
          "name": "",
          "type": "bytes32"
        }
      ],
      "stateMutability": "view",
      "type": "function"
    },
    {
      "inputs": [],
      "name": "LEVEL3_ROLE",
      "outputs": [
        {
          "internalType": "bytes32",
          "name": "",
          "type": "bytes32"
        }
      ],
      "stateMutability": "view",
      "type": "function"
    },
    {
      "inputs": [],
      "name": "MIN_SCALE",
      "outputs": [
        {
          "internalType": "uint256",
          "name": "",
          "type": "uint256"
        }
      ],
      "stateMutability": "view",
      "type": "function"
    },
    {
      "inputs": [],
      "name": "TWEAK_EXPIRATION",
      "outputs": [
        {
          "internalType": "uint40",
          "name": "",
          "type": "uint40"
        }
      ],
      "stateMutability": "view",
      "type": "function"
    },
    {
      "inputs": [
        {
          "internalType": "string",
          "name": "name_",
          "type": "string"
        },
        {
          "internalType": "string",
          "name": "symbol_",
          "type": "string"
        },
        {
          "internalType": "uint40",
          "name": "expirationPeriod",
          "type": "uint40"
        },
        {
          "internalType": "uint256",
          "name": "liquidityRequirement_",
          "type": "uint256"
        },
        {
          "internalType": "uint256",
          "name": "maxUtilizationRate_",
          "type": "uint256"
        },
        {
          "internalType": "uint256",
          "name": "poolLoanInterestRate_",
          "type": "uint256"
        }
      ],
      "name": "__EToken_init_unchained",
      "outputs": [],
      "stateMutability": "nonpayable",
      "type": "function"
    },
    {
      "inputs": [
        {
          "internalType": "uint40",
          "name": "policyExpiration",
          "type": "uint40"
        }
      ],
      "name": "accepts",
      "outputs": [
        {
          "internalType": "bool",
          "name": "",
          "type": "bool"
        }
      ],
      "stateMutability": "view",
      "type": "function"
    },
    {
      "inputs": [
        {
          "internalType": "address",
          "name": "owner",
          "type": "address"
        },
        {
          "internalType": "address",
          "name": "spender",
          "type": "address"
        }
      ],
      "name": "allowance",
      "outputs": [
        {
          "internalType": "uint256",
          "name": "",
          "type": "uint256"
        }
      ],
      "stateMutability": "view",
      "type": "function"
    },
    {
      "inputs": [
        {
          "internalType": "address",
          "name": "spender",
          "type": "address"
        },
        {
          "internalType": "uint256",
          "name": "amount",
          "type": "uint256"
        }
      ],
      "name": "approve",
      "outputs": [
        {
          "internalType": "bool",
          "name": "",
          "type": "bool"
        }
      ],
      "stateMutability": "nonpayable",
      "type": "function"
    },
    {
      "inputs": [
        {
          "internalType": "uint256",
          "name": "amount",
          "type": "uint256"
        },
        {
          "internalType": "bool",
          "name": "positive",
          "type": "bool"
        }
      ],
      "name": "assetEarnings",
      "outputs": [],
      "stateMutability": "nonpayable",
      "type": "function"
    },
    {
      "inputs": [
        {
          "internalType": "address",
          "name": "account",
          "type": "address"
        }
      ],
      "name": "balanceOf",
      "outputs": [
        {
          "internalType": "uint256",
          "name": "",
          "type": "uint256"
        }
      ],
      "stateMutability": "view",
      "type": "function"
    },
    {
      "inputs": [],
      "name": "currency",
      "outputs": [
        {
          "internalType": "contract IERC20Metadata",
          "name": "",
          "type": "address"
        }
      ],
      "stateMutability": "view",
      "type": "function"
    },
    {
      "inputs": [],
      "name": "decimals",
      "outputs": [
        {
          "internalType": "uint8",
          "name": "",
          "type": "uint8"
        }
      ],
      "stateMutability": "view",
      "type": "function"
    },
    {
      "inputs": [
        {
          "internalType": "address",
          "name": "spender",
          "type": "address"
        },
        {
          "internalType": "uint256",
          "name": "subtractedValue",
          "type": "uint256"
        }
      ],
      "name": "decreaseAllowance",
      "outputs": [
        {
          "internalType": "bool",
          "name": "",
          "type": "bool"
        }
      ],
      "stateMutability": "nonpayable",
      "type": "function"
    },
    {
      "inputs": [
        {
          "internalType": "address",
          "name": "provider",
          "type": "address"
        },
        {
          "internalType": "uint256",
          "name": "amount",
          "type": "uint256"
        }
      ],
      "name": "deposit",
      "outputs": [
        {
          "internalType": "uint256",
          "name": "",
          "type": "uint256"
        }
      ],
      "stateMutability": "nonpayable",
      "type": "function"
    },
    {
      "inputs": [
        {
          "internalType": "uint256",
          "name": "amount",
          "type": "uint256"
        },
        {
          "internalType": "bool",
          "name": "positive",
          "type": "bool"
        }
      ],
      "name": "discreteEarning",
      "outputs": [],
      "stateMutability": "nonpayable",
      "type": "function"
    },
    {
      "inputs": [
        {
          "internalType": "bool",
          "name": "updated",
          "type": "bool"
        }
      ],
      "name": "getCurrentScale",
      "outputs": [
        {
          "internalType": "uint256",
          "name": "",
          "type": "uint256"
        }
      ],
      "stateMutability": "view",
      "type": "function"
    },
    {
      "inputs": [],
      "name": "getInvestable",
      "outputs": [
        {
          "internalType": "uint256",
          "name": "",
          "type": "uint256"
        }
      ],
      "stateMutability": "view",
      "type": "function"
    },
    {
      "inputs": [],
      "name": "getPoolLoan",
      "outputs": [
        {
          "internalType": "uint256",
          "name": "",
          "type": "uint256"
        }
      ],
      "stateMutability": "view",
      "type": "function"
    },
    {
      "inputs": [
        {
          "internalType": "address",
          "name": "spender",
          "type": "address"
        },
        {
          "internalType": "uint256",
          "name": "addedValue",
          "type": "uint256"
        }
      ],
      "name": "increaseAllowance",
      "outputs": [
        {
          "internalType": "bool",
          "name": "",
          "type": "bool"
        }
      ],
      "stateMutability": "nonpayable",
      "type": "function"
    },
    {
      "inputs": [
        {
          "internalType": "string",
          "name": "name_",
          "type": "string"
        },
        {
          "internalType": "string",
          "name": "symbol_",
          "type": "string"
        },
        {
          "internalType": "contract IPolicyPool",
          "name": "policyPool_",
          "type": "address"
        },
        {
          "internalType": "uint40",
          "name": "expirationPeriod",
          "type": "uint40"
        },
        {
          "internalType": "uint256",
          "name": "liquidityRequirement_",
          "type": "uint256"
        },
        {
          "internalType": "uint256",
          "name": "maxUtilizationRate_",
          "type": "uint256"
        },
        {
          "internalType": "uint256",
          "name": "poolLoanInterestRate_",
          "type": "uint256"
        }
      ],
      "name": "initialize",
      "outputs": [],
      "stateMutability": "nonpayable",
      "type": "function"
    },
    {
      "inputs": [],
      "name": "lastTweak",
      "outputs": [
        {
          "internalType": "uint40",
          "name": "",
          "type": "uint40"
        },
        {
          "internalType": "uint56",
          "name": "",
          "type": "uint56"
        }
      ],
      "stateMutability": "view",
      "type": "function"
    },
    {
      "inputs": [
        {
          "internalType": "uint256",
          "name": "amount",
          "type": "uint256"
        },
        {
          "internalType": "bool",
          "name": "fromOcean",
          "type": "bool"
        }
      ],
      "name": "lendToPool",
      "outputs": [
        {
          "internalType": "uint256",
          "name": "",
          "type": "uint256"
        }
      ],
      "stateMutability": "nonpayable",
      "type": "function"
    },
    {
      "inputs": [],
      "name": "liquidityRequirement",
      "outputs": [
        {
          "internalType": "uint256",
          "name": "",
          "type": "uint256"
        }
      ],
      "stateMutability": "view",
      "type": "function"
    },
    {
      "inputs": [
        {
          "internalType": "uint256",
          "name": "policyInterestRate",
          "type": "uint256"
        },
        {
          "internalType": "uint256",
          "name": "scrAmount",
          "type": "uint256"
        }
      ],
      "name": "lockScr",
      "outputs": [],
      "stateMutability": "nonpayable",
      "type": "function"
    },
    {
      "inputs": [],
      "name": "maxUtilizationRate",
      "outputs": [
        {
          "internalType": "uint256",
          "name": "",
          "type": "uint256"
        }
      ],
      "stateMutability": "view",
      "type": "function"
    },
    {
      "inputs": [],
      "name": "name",
      "outputs": [
        {
          "internalType": "string",
          "name": "",
          "type": "string"
        }
      ],
      "stateMutability": "view",
      "type": "function"
    },
    {
      "inputs": [],
      "name": "ocean",
      "outputs": [
        {
          "internalType": "uint256",
          "name": "",
          "type": "uint256"
        }
      ],
      "stateMutability": "view",
      "type": "function"
    },
    {
      "inputs": [],
      "name": "oceanForNewScr",
      "outputs": [
        {
          "internalType": "uint256",
          "name": "",
          "type": "uint256"
        }
      ],
      "stateMutability": "view",
      "type": "function"
    },
    {
      "inputs": [],
      "name": "pause",
      "outputs": [],
      "stateMutability": "nonpayable",
      "type": "function"
    },
    {
      "inputs": [],
      "name": "paused",
      "outputs": [
        {
          "internalType": "bool",
          "name": "",
          "type": "bool"
        }
      ],
      "stateMutability": "view",
      "type": "function"
    },
    {
      "inputs": [],
      "name": "policyPool",
      "outputs": [
        {
          "internalType": "contract IPolicyPool",
          "name": "",
          "type": "address"
        }
      ],
      "stateMutability": "view",
      "type": "function"
    },
    {
      "inputs": [],
      "name": "poolLoanInterestRate",
      "outputs": [
        {
          "internalType": "uint256",
          "name": "",
          "type": "uint256"
        }
      ],
      "stateMutability": "view",
      "type": "function"
    },
    {
      "inputs": [
        {
          "internalType": "uint256",
          "name": "amount",
          "type": "uint256"
        }
      ],
      "name": "repayPoolLoan",
      "outputs": [],
      "stateMutability": "nonpayable",
      "type": "function"
    },
    {
      "inputs": [],
      "name": "scr",
      "outputs": [
        {
          "internalType": "uint256",
          "name": "",
          "type": "uint256"
        }
      ],
      "stateMutability": "view",
      "type": "function"
    },
    {
      "inputs": [],
      "name": "scrInterestRate",
      "outputs": [
        {
          "internalType": "uint256",
          "name": "",
          "type": "uint256"
        }
      ],
      "stateMutability": "view",
      "type": "function"
    },
    {
      "inputs": [
        {
          "internalType": "uint256",
          "name": "newRate",
          "type": "uint256"
        }
      ],
      "name": "setLiquidityRequirement",
      "outputs": [],
      "stateMutability": "nonpayable",
      "type": "function"
    },
    {
      "inputs": [
        {
          "internalType": "uint256",
          "name": "newRate",
          "type": "uint256"
        }
      ],
      "name": "setMaxUtilizationRate",
      "outputs": [],
      "stateMutability": "nonpayable",
      "type": "function"
    },
    {
      "inputs": [
        {
          "internalType": "uint256",
          "name": "newRate",
          "type": "uint256"
        }
      ],
      "name": "setPoolLoanInterestRate",
      "outputs": [],
      "stateMutability": "nonpayable",
      "type": "function"
    },
    {
      "inputs": [],
      "name": "symbol",
      "outputs": [
        {
          "internalType": "string",
          "name": "",
          "type": "string"
        }
      ],
      "stateMutability": "view",
      "type": "function"
    },
    {
      "inputs": [],
      "name": "tokenInterestRate",
      "outputs": [
        {
          "internalType": "uint256",
          "name": "",
          "type": "uint256"
        }
      ],
      "stateMutability": "view",
      "type": "function"
    },
    {
      "inputs": [],
      "name": "totalSupply",
      "outputs": [
        {
          "internalType": "uint256",
          "name": "",
          "type": "uint256"
        }
      ],
      "stateMutability": "view",
      "type": "function"
    },
    {
      "inputs": [],
      "name": "totalWithdrawable",
      "outputs": [
        {
          "internalType": "uint256",
          "name": "",
          "type": "uint256"
        }
      ],
      "stateMutability": "view",
      "type": "function"
    },
    {
      "inputs": [
        {
          "internalType": "address",
          "name": "recipient",
          "type": "address"
        },
        {
          "internalType": "uint256",
          "name": "amount",
          "type": "uint256"
        }
      ],
      "name": "transfer",
      "outputs": [
        {
          "internalType": "bool",
          "name": "",
          "type": "bool"
        }
      ],
      "stateMutability": "nonpayable",
      "type": "function"
    },
    {
      "inputs": [
        {
          "internalType": "address",
          "name": "sender",
          "type": "address"
        },
        {
          "internalType": "address",
          "name": "recipient",
          "type": "address"
        },
        {
          "internalType": "uint256",
          "name": "amount",
          "type": "uint256"
        }
      ],
      "name": "transferFrom",
      "outputs": [
        {
          "internalType": "bool",
          "name": "",
          "type": "bool"
        }
      ],
      "stateMutability": "nonpayable",
      "type": "function"
    },
    {
      "inputs": [
        {
          "internalType": "uint256",
          "name": "policyInterestRate",
          "type": "uint256"
        },
        {
          "internalType": "uint256",
          "name": "scrAmount",
          "type": "uint256"
        }
      ],
      "name": "unlockScr",
      "outputs": [],
      "stateMutability": "nonpayable",
      "type": "function"
    },
    {
      "inputs": [],
      "name": "unpause",
      "outputs": [],
      "stateMutability": "nonpayable",
      "type": "function"
    },
    {
      "inputs": [
        {
          "internalType": "address",
          "name": "newImplementation",
          "type": "address"
        }
      ],
      "name": "upgradeTo",
      "outputs": [],
      "stateMutability": "nonpayable",
      "type": "function"
    },
    {
      "inputs": [
        {
          "internalType": "address",
          "name": "newImplementation",
          "type": "address"
        },
        {
          "internalType": "bytes",
          "name": "data",
          "type": "bytes"
        }
      ],
      "name": "upgradeToAndCall",
      "outputs": [],
      "stateMutability": "payable",
      "type": "function"
    },
    {
      "inputs": [
        {
          "internalType": "address",
          "name": "provider",
          "type": "address"
        },
        {
          "internalType": "uint256",
          "name": "amount",
          "type": "uint256"
        }
      ],
      "name": "withdraw",
      "outputs": [
        {
          "internalType": "uint256",
          "name": "",
          "type": "uint256"
        }
      ],
      "stateMutability": "nonpayable",
      "type": "function"
    }
  ],
  "bytecode": "0x60a06040523060601b60805234801561001757600080fd5b5060805160601c614c7661004b6000396000818161100b0152818161104b015281816118b001526118f00152614c766000f3fe6080604052600436106102e45760003560e01c80635c975abb11610190578063a457c2d7116100dc578063bd7f6cd811610095578063e5a6b10f1161006f578063e5a6b10f146108af578063e5ae143f146108c4578063f3fef3a3146108d9578063f67b2bad146108f957600080fd5b8063bd7f6cd814610834578063dd62ed3e14610854578063dfcb48bd1461089a57600080fd5b8063a457c2d71461078a578063a6ec335f146107aa578063a9059cbb146107bf578063aa69d74b146107df578063ab600169146107ff578063ba4e8df51461081f57600080fd5b806379d989fb116101495780638456cb59116101235780638456cb591461072b57806395d89b41146107405780639b822dbd146107555780639d90724d1461077557600080fd5b806379d989fb146106be5780637ed5acfa146106de578063837c83a31461070b57600080fd5b80635c975abb1461062b57806360a92d1c1461064357806365e29c7e146106585780636c6f45421461066d578063706ad35d1461068257806370a082311461069e57600080fd5b8063395093511161024f5780634d15eb031161020857806350f1cd19116101e257806350f1cd19146105b457806352a2783b146105d457806352cf2a6b146105e95780635b494dd51461060957600080fd5b80634d15eb031461054f5780634d87d0ac146105815780634f1ef286146105a157600080fd5b806339509351146104785780633f4ba83a146104985780634438bcbb146104ad578063468a8c9f146104cd57806347e7ef241461050d5780634a47a3e01461052d57600080fd5b80631f2450c0116102a15780631f2450c0146103af57806323b872dd146103cf57806324ea54f4146103ef5780633073b29414610411578063313ce567146104315780633659cfe61461045857600080fd5b80630600a865146102e957806306fdde0314610311578063095ea7b314610333578063159ec2df1461036357806318160ddd146103785780631c0f4f811461038d575b600080fd5b3480156102f557600080fd5b506102fe61092d565b6040519081526020015b60405180910390f35b34801561031d57600080fd5b506103266109a0565b6040516103089190614837565b34801561033f57600080fd5b5061035361034e366004614590565b610a32565b6040519015158152602001610308565b34801561036f57600080fd5b5060d4546102fe565b34801561038457600080fd5b506102fe610a49565b34801561039957600080fd5b506103ad6103a8366004614745565b610a69565b005b3480156103bb57600080fd5b506103536103ca3660046147be565b610b23565b3480156103db57600080fd5b506103536103ea3660046144eb565b610b69565b3480156103fb57600080fd5b506102fe600080516020614c2183398151915281565b34801561041d57600080fd5b506102fe61042c366004614777565b610c1d565b34801561043d57600080fd5b50610446610f13565b60405160ff9091168152602001610308565b34801561046457600080fd5b506103ad610473366004614495565b611000565b34801561048457600080fd5b50610353610493366004614590565b6110c9565b3480156104a457600080fd5b506103ad611100565b3480156104b957600080fd5b506103ad6104c836600461479c565b611221565b3480156104d957600080fd5b5060c95460408051600160a01b830464ffffffffff168152600160c81b90920466ffffffffffffff16602083015201610308565b34801561051957600080fd5b506102fe610528366004614590565b61138a565b34801561053957600080fd5b506102fe600080516020614c0183398151915281565b34801561055b57600080fd5b5060c9546001600160a01b03165b6040516001600160a01b039091168152602001610308565b34801561058d57600080fd5b506103ad61059c366004614745565b6116d5565b6103ad6105af36600461452c565b6118a5565b3480156105c057600080fd5b506103ad6105cf3660046146b5565b61195b565b3480156105e057600080fd5b506102fe611a83565b3480156105f557600080fd5b506103ad610604366004614745565b611aaf565b34801561061557600080fd5b506102fe600080516020614bba83398151915281565b34801561063757600080fd5b5060975460ff16610353565b34801561064f57600080fd5b5060d8546102fe565b34801561066457600080fd5b506102fe611c71565b34801561067957600080fd5b5060d2546102fe565b34801561068e57600080fd5b506102fe67016345785d8a000081565b3480156106aa57600080fd5b506102fe6106b9366004614495565b611c9a565b3480156106ca57600080fd5b506102fe6106d93660046145bc565b611cd8565b3480156106ea57600080fd5b506106f56201518081565b60405164ffffffffff9091168152602001610308565b34801561071757600080fd5b506103ad61072636600461479c565b611cf5565b34801561073757600080fd5b506103ad611ea5565b34801561074c57600080fd5b50610326611f97565b34801561076157600080fd5b506103ad610770366004614613565b611fa6565b34801561078157600080fd5b5060d3546102fe565b34801561079657600080fd5b506103536107a5366004614590565b612030565b3480156107b657600080fd5b506102fe6120cc565b3480156107cb57600080fd5b506103536107da366004614590565b61216b565b3480156107eb57600080fd5b506103ad6107fa366004614777565b612178565b34801561080b57600080fd5b506103ad61081a366004614777565b6121bd565b34801561082b57600080fd5b5060d5546102fe565b34801561084057600080fd5b506103ad61084f366004614745565b61232c565b34801561086057600080fd5b506102fe61086f3660046144b2565b6001600160a01b03918216600090815260cb6020908152604080832093909416825291909152205490565b3480156108a657600080fd5b5060d6546102fe565b3480156108bb57600080fd5b506105696124f6565b3480156108d057600080fd5b506102fe612573565b3480156108e557600080fd5b506102fe6108f4366004614590565b612614565b34801561090557600080fd5b506102fe7fbf372ca3ebecfe59ac256f17697941bbe63302aced610e8b0e3646f743c7beb281565b60008061097161096c60d55461096660d354610951676765c793fa10079d601b1b90565b61095b9190614a07565b61096660d2546126e0565b9061275e565b612835565b9050600061097d610a49565b9050818110610997576109908282614a89565b9250505090565b60009250505090565b606060cd80546109af90614b19565b80601f01602080910402602001604051908101604052809291908181526020018280546109db90614b19565b8015610a285780601f106109fd57610100808354040283529160200191610a28565b820191906000526020600020905b815481529060010190602001808311610a0b57829003601f168201915b5050505050905090565b6000610a3f3384846128bd565b5060015b92915050565b6000610a6461096c610a596129e5565b61096660cc546126e0565b905090565b60c9546001600160a01b0316336001600160a01b031614610aa55760405162461bcd60e51b8152600401610a9c9061497a565b60405180910390fd5b610aad612a5c565b610ad761096c60d954610ad184610ac2611a83565b610acc9190614a89565b6126e0565b90612a97565b60d755610ae2612b9d565b610aed816001612c01565b6040518181527fa222d62c2f9d6477588b0ac3ff7d73534b85c9382fbc1393aa5fbfd01f444f7e9060200160405180910390a150565b6000610b3160975460ff1690565b15610b3e57506000919050565b60cf54610b529064ffffffffff1642614a1f565b64ffffffffff168264ffffffffff16109050919050565b6000610b76848484612c80565b6001600160a01b038416600090815260cb6020908152604080832033845290915290205482811015610bfc5760405162461bcd60e51b815260206004820152602960248201527f45546f6b656e3a207472616e7366657220616d6f756e74206578636565647320604482015268616c6c6f77616e636560b81b6064820152608401610a9c565b610c108533610c0b8685614a89565b6128bd565b60019150505b9392505050565b60c9546000906001600160a01b0316336001600160a01b031614610c535760405162461bcd60e51b8152600401610a9c9061497a565b818015610c665750610c636120cc565b83115b15610c7657610c736120cc565b92505b81158015610c8a5750610c87610a49565b83115b15610c9a57610c97610a49565b92505b610ca2612e74565b831115610cbf57610cb1612e74565b925082610cbf575081610a43565b60d754610cf65760d7839055676765c793fa10079d601b1b60d95560da805464ffffffffff19164264ffffffffff16179055610d27565b610cfe612a5c565b610d1061096c60d954610ad1866126e0565b60d76000828254610d219190614a07565b90915550505b610d2f612b9d565b610d3a836000612c01565b6040518381527f3790a165ff2f50e94c75a18cb0e6c4051982eb91429bf8df117c046eb19c07cc9060200160405180910390a181158015610d835750610d7e610a49565b60d254115b15610f0c5760c954604080516379502c5560e01b815290516000926001600160a01b0316916379502c55916004808301926020929190829003018186803b158015610dcd57600080fd5b505afa158015610de1573d6000803e3d6000fd5b505050506040513d601f19601f82011682018060405250810190610e0591906145f6565b6001600160a01b0316631455cd286040518163ffffffff1660e01b815260040160206040518083038186803b158015610e3d57600080fd5b505afa158015610e51573d6000803e3d6000fd5b505050506040513d601f19601f82011682018060405250810190610e7591906145f6565b90506001600160a01b03811615610f0a57806001600160a01b0316639950de5030610e9e610a49565b60d254610eab9190614a89565b6040516001600160e01b031960e085901b1681526001600160a01b0390921660048301526024820152604401600060405180830381600087803b158015610ef157600080fd5b505af1158015610f05573d6000803e3d6000fd5b505050505b505b5090919050565b60c9546040805163e5a6b10f60e01b815290516000926001600160a01b03169163e5a6b10f916004808301926020929190829003018186803b158015610f5857600080fd5b505afa158015610f6c573d6000803e3d6000fd5b505050506040513d601f19601f82011682018060405250810190610f9091906145f6565b6001600160a01b031663313ce5676040518163ffffffff1660e01b815260040160206040518083038186803b158015610fc857600080fd5b505afa158015610fdc573d6000803e3d6000fd5b505050506040513d601f19601f82011682018060405250810190610a6491906147d9565b306001600160a01b037f00000000000000000000000000000000000000000000000000000000000000001614156110495760405162461bcd60e51b8152600401610a9c9061486a565b7f00000000000000000000000000000000000000000000000000000000000000006001600160a01b031661107b612eb0565b6001600160a01b0316146110a15760405162461bcd60e51b8152600401610a9c906148b6565b6110aa81612ede565b604080516000808252602082019092526110c691839190612fef565b50565b33600081815260cb602090815260408083206001600160a01b03871684529091528120549091610a3f918590610c0b908690614a07565b600080516020614c218339815191527fbf372ca3ebecfe59ac256f17697941bbe63302aced610e8b0e3646f743c7beb260c960009054906101000a90046001600160a01b03166001600160a01b03166379502c556040518163ffffffff1660e01b815260040160206040518083038186803b15801561117e57600080fd5b505afa158015611192573d6000803e3d6000fd5b505050506040513d601f19601f820116820180604052508101906111b691906145f6565b6001600160a01b031663c5b8f5cf8383336040518463ffffffff1660e01b81526004016111e593929190614818565b60006040518083038186803b1580156111fd57600080fd5b505afa158015611211573d6000803e3d6000fd5b5050505061121d61313a565b5050565b60c9546001600160a01b0316336001600160a01b0316146112545760405162461bcd60e51b8152600401610a9c9061497a565b60d2548111156112c25760405162461bcd60e51b815260206004820152603360248201527f43757272656e7420534352206c657373207468616e2074686520616d6f756e7460448201527220796f752077616e7420746f20756e6c6f636b60681b6064820152608401610a9c565b6112ca612b9d565b8060d25414156112e357600060d281905560d355611348565b60006112f060d2546126e0565b90508160d260008282546113049190614a89565b9250508190555061134361131960d2546126e0565b61132c611325856126e0565b869061275e565b60d354611339908561275e565b610ad19190614a89565b60d355505b60408051838152602081018390527f7b9d63ccbb37347ce0fe73e3663c640d22364d8c733839777f1729e59af1967f91015b60405180910390a161121d6131cd565b60c9546000906001600160a01b0316336001600160a01b0316146113c05760405162461bcd60e51b8152600401610a9c9061497a565b60975460ff16156113e35760405162461bcd60e51b8152600401610a9c90614902565b60006113f760c9546001600160a01b031690565b6001600160a01b03166379502c556040518163ffffffff1660e01b815260040160206040518083038186803b15801561142f57600080fd5b505afa158015611443573d6000803e3d6000fd5b505050506040513d601f19601f8201168201806040525081019061146791906145f6565b6001600160a01b03166363b12da86040518163ffffffff1660e01b815260040160206040518083038186803b15801561149f57600080fd5b505afa1580156114b3573d6000803e3d6000fd5b505050506040513d601f19601f820116820180604052508101906114d791906145f6565b6001600160a01b0316148061165b575060c9546001600160a01b03166001600160a01b03166379502c556040518163ffffffff1660e01b815260040160206040518083038186803b15801561152b57600080fd5b505afa15801561153f573d6000803e3d6000fd5b505050506040513d601f19601f8201168201806040525081019061156391906145f6565b6001600160a01b03166363b12da86040518163ffffffff1660e01b815260040160206040518083038186803b15801561159b57600080fd5b505afa1580156115af573d6000803e3d6000fd5b505050506040513d601f19601f820116820180604052508101906115d391906145f6565b6040516337ee20dd60e01b81523060048201526001600160a01b0385811660248301526044820185905291909116906337ee20dd9060640160206040518083038186803b15801561162357600080fd5b505afa158015611637573d6000803e3d6000fd5b505050506040513d601f19601f8201168201806040525081019061165b91906145d9565b6116b25760405162461bcd60e51b815260206004820152602260248201527f4c69717569646974792050726f7669646572206e6f742077686974656c697374604482015261195960f21b6064820152608401610a9c565b6116ba612b9d565b6116c48383613273565b6116cc6131cd565b610c1683611c9a565b600080516020614c01833981519152600080516020614bba83398151915260c960009054906101000a90046001600160a01b03166001600160a01b03166379502c556040518163ffffffff1660e01b815260040160206040518083038186803b15801561174157600080fd5b505afa158015611755573d6000803e3d6000fd5b505050506040513d601f19601f8201168201806040525081019061177991906145f6565b6001600160a01b031663c5b8f5cf8383336040518463ffffffff1660e01b81526004016117a893929190614818565b60006040518083038186803b1580156117c057600080fd5b505afa1580156117d4573d6000803e3d6000fd5b5050505060006117f1600080516020614c01833981519152613364565b159050801580611814575061181460d554856a52b7d2dcc80cd2e4000000613461565b6118865760405162461bcd60e51b815260206004820152603a60248201527f547765616b2065786365656465643a206c69717569646974795265717569726560448201527f6d656e7420747765616b73206f6e6c7920757020746f203130250000000000006064820152608401610a9c565b60d5849055611897601085836134ec565b506118a0613545565b505050565b306001600160a01b037f00000000000000000000000000000000000000000000000000000000000000001614156118ee5760405162461bcd60e51b8152600401610a9c9061486a565b7f00000000000000000000000000000000000000000000000000000000000000006001600160a01b0316611920612eb0565b6001600160a01b0316146119465760405162461bcd60e51b8152600401610a9c906148b6565b61194f82612ede565b61121d82826001612fef565b600054610100900460ff1680611974575060005460ff16155b6119905760405162461bcd60e51b8152600401610a9c9061492c565b600054610100900460ff161580156119b2576000805461ffff19166101011790555b86516119c59060cd9060208a019061435a565b5085516119d99060ce90602089019061435a565b5060cf805464ffffffffff191664ffffffffff8716179055676765c793fa10079d601b1b60d05560d1805464ffffffffff19164264ffffffffff16179055600060d281905560d381905560d481905560d585905560d684905560d75560d8829055676765c793fa10079d601b1b60d95560da805464ffffffffff19164264ffffffffff16179055611a68613545565b8015611a7a576000805461ff00191690555b50505050505050565b600060d75460001415611a965750600090565b610a6461096c611aa46136e0565b61096660d7546126e0565b600080516020614c01833981519152600080516020614bba83398151915260c960009054906101000a90046001600160a01b03166001600160a01b03166379502c556040518163ffffffff1660e01b815260040160206040518083038186803b158015611b1b57600080fd5b505afa158015611b2f573d6000803e3d6000fd5b505050506040513d601f19601f82011682018060405250810190611b5391906145f6565b6001600160a01b031663c5b8f5cf8383336040518463ffffffff1660e01b8152600401611b8293929190614818565b60006040518083038186803b158015611b9a57600080fd5b505afa158015611bae573d6000803e3d6000fd5b505050506000611bcb600080516020614c01833981519152613364565b159050801580611bee5750611bee60d654856af8277896582678ac000000613461565b611c605760405162461bcd60e51b815260206004820152603860248201527f547765616b2065786365656465643a206d61785574696c697a6174696f6e526160448201527f746520747765616b73206f6e6c7920757020746f2033302500000000000000006064820152608401610a9c565b60d6849055611897601185836134ec565b6000611c7b611a83565b611c836120cc565b60d254611c909190614a07565b610a649190614a07565b6001600160a01b038116600090815260ca602052604081205480611cc15750600092915050565b610c1661096c611ccf6129e5565b610966846126e0565b60008115611ce857610a436129e5565b505060d05490565b919050565b60c9546001600160a01b0316336001600160a01b031614611d285760405162461bcd60e51b8152600401610a9c9061497a565b306001600160a01b031663a6ec335f6040518163ffffffff1660e01b815260040160206040518083038186803b158015611d6157600080fd5b505afa158015611d75573d6000803e3d6000fd5b505050506040513d601f19601f82011682018060405250810190611d99919061475e565b811115611df35760405162461bcd60e51b815260206004820152602260248201527f4e6f7420656e6f75676874204f4345414e20746f20636f76657220746865205360448201526121a960f11b6064820152608401610a9c565b611dfb612b9d565b60d254611e115760d281905560d3829055611e6f565b6000611e1e60d2546126e0565b90508160d26000828254611e329190614a07565b92505081905550611e6a611e4760d2546126e0565b611e53611325856126e0565b60d354611e60908561275e565b610ad19190614a07565b60d355505b60408051838152602081018390527f333478c2835efe2f226b0d334f71bdf18c977621845f20d21fff75321fc8ab27910161137a565b60c954604080516379502c5560e01b81529051600080516020614c21833981519152926001600160a01b0316916379502c55916004808301926020929190829003018186803b158015611ef757600080fd5b505afa158015611f0b573d6000803e3d6000fd5b505050506040513d601f19601f82011682018060405250810190611f2f91906145f6565b6040516312d9a6ad60e01b8152600481018390523360248201526001600160a01b0391909116906312d9a6ad9060440160006040518083038186803b158015611f7757600080fd5b505afa158015611f8b573d6000803e3d6000fd5b505050506110c6613757565b606060ce80546109af90614b19565b600054610100900460ff1680611fbf575060005460ff16155b611fdb5760405162461bcd60e51b8152600401610a9c9061492c565b600054610100900460ff16158015611ffd576000805461ffff19166101011790555b612006866137af565b61201488888787878761195b565b8015612026576000805461ff00191690555b5050505050505050565b33600090815260cb602090815260408083206001600160a01b0386168452909152812054828110156120b35760405162461bcd60e51b815260206004820152602660248201527f45546f6b656e3a2064656372656173656420616c6c6f77616e63652062656c6f60448201526577207a65726f60d01b6064820152608401610a9c565b6120c23385610c0b8685614a89565b5060019392505050565b600080306001600160a01b03166318160ddd6040518163ffffffff1660e01b815260040160206040518083038186803b15801561210857600080fd5b505afa15801561211c573d6000803e3d6000fd5b505050506040513d601f19601f82011682018060405250810190612140919061475e565b905060d25481111561215f5760d2546121599082614a89565b91505090565b600091505090565b5090565b6000610a3f338484612c80565b60c9546001600160a01b0316336001600160a01b0316146121ab5760405162461bcd60e51b8152600401610a9c9061497a565b6121b3612b9d565b61121d8282612c01565b60c960009054906101000a90046001600160a01b03166001600160a01b03166379502c556040518163ffffffff1660e01b815260040160206040518083038186803b15801561220b57600080fd5b505afa15801561221f573d6000803e3d6000fd5b505050506040513d601f19601f8201168201806040525081019061224391906145f6565b6001600160a01b03166394217ad16040518163ffffffff1660e01b815260040160206040518083038186803b15801561227b57600080fd5b505afa15801561228f573d6000803e3d6000fd5b505050506040513d601f19601f820116820180604052508101906122b391906145f6565b6001600160a01b0316336001600160a01b0316146121ab5760405162461bcd60e51b815260206004820152603060248201527f5468652063616c6c6572206d7573742062652074686520506f6c696379506f6f60448201526f3613b99020b9b9b2ba26b0b730b3b2b960811b6064820152608401610a9c565b600080516020614c01833981519152600080516020614bba83398151915260c960009054906101000a90046001600160a01b03166001600160a01b03166379502c556040518163ffffffff1660e01b815260040160206040518083038186803b15801561239857600080fd5b505afa1580156123ac573d6000803e3d6000fd5b505050506040513d601f19601f820116820180604052508101906123d091906145f6565b6001600160a01b031663c5b8f5cf8383336040518463ffffffff1660e01b81526004016123ff93929190614818565b60006040518083038186803b15801561241757600080fd5b505afa15801561242b573d6000803e3d6000fd5b505050506000612448600080516020614c01833981519152613364565b15905080158061246b575061246b60d854856af8277896582678ac000000613461565b6124dd5760405162461bcd60e51b815260206004820152603a60248201527f547765616b2065786365656465643a20706f6f6c4c6f616e496e74657265737460448201527f5261746520747765616b73206f6e6c7920757020746f203330250000000000006064820152608401610a9c565b6124e5612a5c565b60d8849055611897601285836134ec565b60c9546040805163e5a6b10f60e01b815290516000926001600160a01b03169163e5a6b10f916004808301926020929190829003018186803b15801561253b57600080fd5b505afa15801561254f573d6000803e3d6000fd5b505050506040513d601f19601f82011682018060405250810190610a6491906145f6565b600080306001600160a01b03166318160ddd6040518163ffffffff1660e01b815260040160206040518083038186803b1580156125af57600080fd5b505afa1580156125c3573d6000803e3d6000fd5b505050506040513d601f19601f820116820180604052508101906125e7919061475e565b905060d25481111561215f5761215961260160d654612835565b60d25461260e9084614a89565b90613834565b60c9546000906001600160a01b0316336001600160a01b03161461264a5760405162461bcd60e51b8152600401610a9c9061497a565b60975460ff161561266d5760405162461bcd60e51b8152600401610a9c90614902565b612675612b9d565b600061268084611c9a565b905080612691576000915050610a43565b8083111561269d578092505b60006126a761092d565b9050808411156126b5578093505b836126c557600092505050610a43565b6126cf85856138e7565b6126d76131cd565b50919392505050565b6000806126f1633b9aca0084614a6a565b905082612702633b9aca0083614a48565b14610a435760405162461bcd60e51b815260206004820152602660248201527f776164546f5261643a204d617468204d756c7469706c69636174696f6e204f766044820152656572666c6f7760d01b6064820152608401610a9c565b600082158061276b575081155b1561277857506000610a43565b8161278f6002676765c793fa10079d601b1b614a48565b61279b90600019614a89565b6127a59190614a48565b8311156128005760405162461bcd60e51b8152602060048201526024808201527f7261794d756c3a204d617468204d756c7469706c69636174696f6e204f766572604482015263666c6f7760e01b6064820152608401610a9c565b676765c793fa10079d601b1b612817600282614a48565b6128218486614a6a565b61282b9190614a07565b610c169190614a48565b6000806128476002633b9aca00614a48565b905060006128558483614a07565b9050818110156128a75760405162461bcd60e51b815260206004820181905260248201527f726179546f5761643a204d617468204164646974696f6e204f766572666c6f776044820152606401610a9c565b6128b5633b9aca0082614a48565b949350505050565b6001600160a01b0383166129215760405162461bcd60e51b815260206004820152602560248201527f45546f6b656e3a20617070726f76652066726f6d20746865207a65726f206164604482015264647265737360d81b6064820152608401610a9c565b6001600160a01b0382166129835760405162461bcd60e51b815260206004820152602360248201527f45546f6b656e3a20617070726f766520746f20746865207a65726f206164647260448201526265737360e81b6064820152608401610a9c565b6001600160a01b03838116600081815260cb602090815260408083209487168084529482529182902085905590518481527f8c5be1e5ebec7d5bd14f71427d1e84f3dd0314c0f7b2291e5b200ac8c7c3b92591015b60405180910390a3505050565b60d15460009064ffffffffff9081164290911611612a04575060d05490565b60d154600090612a1b9064ffffffffff1642614a89565b9050612159676765c793fa10079d601b1b6301e133808360d454612a3f9190614a6a565b612a499190614a48565b612a539190614a07565b60d0549061275e565b60da544264ffffffffff90811691161415612a7357565b612a7b6136e0565b60d95560da805464ffffffffff19164264ffffffffff16179055565b600081612ae65760405162461bcd60e51b815260206004820152601860248201527f7261794469763a204469766973696f6e206279207a65726f00000000000000006044820152606401610a9c565b6000612af3600284614a48565b9050676765c793fa10079d601b1b612b0d82600019614a89565b612b179190614a48565b841115612b725760405162461bcd60e51b8152602060048201526024808201527f7261794469763a204d617468204d756c7469706c69636174696f6e204f766572604482015263666c6f7760e01b6064820152608401610a9c565b8281612b89676765c793fa10079d601b1b87614a6a565b612b939190614a07565b6128b59190614a48565b60d1544264ffffffffff90811691161415612bb457565b612bbc6129e5565b60d081905567016345785d8a00001115612be85760405162461bcd60e51b8152600401610a9c906149bb565b60d1805464ffffffffff19164264ffffffffff16179055565b600081612c205782612c11610a49565b612c1b9190614a89565b612c33565b82612c29610a49565b612c339190614a07565b9050612c4c612c4360cc546126e0565b610ad1836126e0565b60d081905567016345785d8a00001115612c785760405162461bcd60e51b8152600401610a9c906149bb565b6118a06131cd565b6001600160a01b038316612ce55760405162461bcd60e51b815260206004820152602660248201527f45546f6b656e3a207472616e736665722066726f6d20746865207a65726f206160448201526564647265737360d01b6064820152608401610a9c565b6001600160a01b038216612d475760405162461bcd60e51b8152602060048201526024808201527f45546f6b656e3a207472616e7366657220746f20746865207a65726f206164646044820152637265737360e01b6064820152608401610a9c565b612d52838383613a5b565b6000612d5d82613d71565b6001600160a01b038516600090815260ca602052604090205490915081811015612dd95760405162461bcd60e51b815260206004820152602760248201527f45546f6b656e3a207472616e7366657220616d6f756e7420657863656564732060448201526662616c616e636560c81b6064820152608401610a9c565b612de38282614a89565b6001600160a01b03808716600090815260ca60205260408082209390935590861681529081208054849290612e19908490614a07565b92505081905550836001600160a01b0316856001600160a01b03167fddf252ad1be2c89b69c2b068fc378daa952ba7f163c4a11628f55a4df523b3ef85604051612e6591815260200190565b60405180910390a35050505050565b600080612e7f610a49565b90506000612e9c61096c610a5967016345785d8a0000600a614a6a565b905080821115610997576109908183614a89565b7f360894a13ba1a3210667c828492db98dca3e2076cc3735a920a3ca505d382bbc546001600160a01b031690565b600080516020614c218339815191527fbf372ca3ebecfe59ac256f17697941bbe63302aced610e8b0e3646f743c7beb260c960009054906101000a90046001600160a01b03166001600160a01b03166379502c556040518163ffffffff1660e01b815260040160206040518083038186803b158015612f5c57600080fd5b505afa158015612f70573d6000803e3d6000fd5b505050506040513d601f19601f82011682018060405250810190612f9491906145f6565b6001600160a01b031663c5b8f5cf8383336040518463ffffffff1660e01b8152600401612fc393929190614818565b60006040518083038186803b158015612fdb57600080fd5b505afa158015611a7a573d6000803e3d6000fd5b6000612ff9612eb0565b905061300484613d8a565b6000835111806130115750815b15613022576130208484613e2f565b505b7f4910fdfa16fed3260ed0e7147f7cc6da11a60208b5b9406d12a635614ffd9143805460ff1661313357805460ff191660011781556040516001600160a01b03831660248201526130a190869060440160408051601f198184030181529190526020810180516001600160e01b0316631b2ce7f360e11b179052613e2f565b50805460ff191681556130b2612eb0565b6001600160a01b0316826001600160a01b03161461312a5760405162461bcd60e51b815260206004820152602f60248201527f45524331393637557067726164653a207570677261646520627265616b73206660448201526e75727468657220757067726164657360881b6064820152608401610a9c565b61313385613f1a565b5050505050565b60975460ff166131835760405162461bcd60e51b815260206004820152601460248201527314185d5cd8589b194e881b9bdd081c185d5cd95960621b6044820152606401610a9c565b6097805460ff191690557f5db9ee0a495bf2e6ff9c91a7834c1ba4fdd244a5e8aa4e537bd38aeae4b073aa335b6040516001600160a01b03909116815260200160405180910390a1565b6000613243306001600160a01b03166318160ddd6040518163ffffffff1660e01b815260040160206040518083038186803b15801561320b57600080fd5b505afa15801561321f573d6000803e3d6000fd5b505050506040513d601f19601f82011682018060405250810190610acc919061475e565b90508061325257600060d45550565b61326d81610ad161326460d2546126e0565b60d3549061275e565b60d45550565b6001600160a01b0382166132c95760405162461bcd60e51b815260206004820181905260248201527f45546f6b656e3a206d696e7420746f20746865207a65726f20616464726573736044820152606401610a9c565b6132d560008383613a5b565b60006132e082613d71565b90508060cc60008282546132f49190614a07565b90915550506001600160a01b038316600090815260ca602052604081208054839290613321908490614a07565b90915550506040518281526001600160a01b038416906000907fddf252ad1be2c89b69c2b068fc378daa952ba7f163c4a11628f55a4df523b3ef906020016129d8565b60c954604080516379502c5560e01b815290516000926001600160a01b0316916379502c55916004808301926020929190829003018186803b1580156133a957600080fd5b505afa1580156133bd573d6000803e3d6000fd5b505050506040513d601f19601f820116820180604052508101906133e191906145f6565b604051632474521560e21b8152600481018490523360248201526001600160a01b0391909116906391d148549060440160206040518083038186803b15801561342957600080fd5b505afa15801561343d573d6000803e3d6000fd5b505050506040513d601f19601f82011682018060405250810190610a4391906145d9565b60008284141561347357506001610c16565b8361348d5750676765c793fa10079d601b1b811015610c16565b8261349a57506000610c16565b828410156134cc5781676765c793fa10079d601b1b6134b98587612a97565b6134c39190614a89565b11159050610c16565b816134d78486612a97565b6134c390676765c793fa10079d601b1b614a89565b80156134fb576134fb83613f5a565b82601981111561350d5761350d614b6a565b6040518381527f7bc647fe5043209e2019aa3503b79c1b0dd83eb61c56013d373a7584ff6bfb139060200160405180910390a2505050565b6b0295be96e64066972000000060d5541015801561357157506b043355b53628a6b59400000060d55411155b6135d95760405162461bcd60e51b815260206004820152603360248201527f56616c69646174696f6e3a206c6971756964697479526571756972656d656e74604482015272206d757374206265205b302e382c20312e335d60681b6064820152608401610a9c565b6b019d971e4fe8401e7400000060d654101580156136045750676765c793fa10079d601b1b60d65411155b6136685760405162461bcd60e51b815260206004820152602f60248201527f56616c69646174696f6e3a206d61785574696c697a6174696f6e52617465206d60448201526e757374206265205b302e352c20315d60881b6064820152608401610a9c565b6b019d971e4fe8401e7400000060d85411156136de5760405162461bcd60e51b815260206004820152602f60248201527f56616c69646174696f6e3a20706f6f6c4c6f616e496e7465726573745261746560448201526e206d757374206265203c3d2035302560881b6064820152608401610a9c565b565b60da5460009064ffffffffff90811642909116116136ff575060d95490565b60da546000906137169064ffffffffff1642614a89565b9050612159676765c793fa10079d601b1b6301e133808360d85461373a9190614a6a565b6137449190614a48565b61374e9190614a07565b60d9549061275e565b60975460ff161561377a5760405162461bcd60e51b8152600401610a9c90614902565b6097805460ff191660011790557f62e78cea01bee320cd4e420270b5ea74000d11b0c9f74754ebdbfc544b05a2586131b03390565b600054610100900460ff16806137c8575060005460ff16155b6137e45760405162461bcd60e51b8152600401610a9c9061492c565b600054610100900460ff16158015613806576000805461ffff19166101011790555b61380e6140d9565b613816614154565b61381f826141bb565b801561121d576000805461ff00191690555050565b6000821580613841575081155b1561384e57506000610a43565b816138626002670de0b6b3a7640000614a48565b61386e90600019614a89565b6138789190614a48565b8311156138d35760405162461bcd60e51b8152602060048201526024808201527f7761644d756c3a204d617468204d756c7469706c69636174696f6e204f766572604482015263666c6f7760e01b6064820152608401610a9c565b670de0b6b3a7640000612817600282614a48565b6001600160a01b0382166139485760405162461bcd60e51b815260206004820152602260248201527f45546f6b656e3a206275726e2066726f6d20746865207a65726f206164647265604482015261737360f01b6064820152608401610a9c565b61395482600083613a5b565b600061395f82613d71565b6001600160a01b038416600090815260ca6020526040902054909150818110156139d75760405162461bcd60e51b815260206004820152602360248201527f45546f6b656e3a206275726e20616d6f756e7420657863656564732062616c616044820152626e636560e81b6064820152608401610a9c565b6139e18282614a89565b6001600160a01b038516600090815260ca602052604081209190915560cc8054849290613a0f908490614a89565b90915550506040518381526000906001600160a01b038616907fddf252ad1be2c89b69c2b068fc378daa952ba7f163c4a11628f55a4df523b3ef9060200160405180910390a350505050565b6001600160a01b0383161580613a7857506001600160a01b038216155b80613b7d57506000613a9260c9546001600160a01b031690565b6001600160a01b03166379502c556040518163ffffffff1660e01b815260040160206040518083038186803b158015613aca57600080fd5b505afa158015613ade573d6000803e3d6000fd5b505050506040513d601f19601f82011682018060405250810190613b0291906145f6565b6001600160a01b03166363b12da86040518163ffffffff1660e01b815260040160206040518083038186803b158015613b3a57600080fd5b505afa158015613b4e573d6000803e3d6000fd5b505050506040513d601f19601f82011682018060405250810190613b7291906145f6565b6001600160a01b0316145b80613cff575060c9546001600160a01b03166001600160a01b03166379502c556040518163ffffffff1660e01b815260040160206040518083038186803b158015613bc757600080fd5b505afa158015613bdb573d6000803e3d6000fd5b505050506040513d601f19601f82011682018060405250810190613bff91906145f6565b6001600160a01b03166363b12da86040518163ffffffff1660e01b815260040160206040518083038186803b158015613c3757600080fd5b505afa158015613c4b573d6000803e3d6000fd5b505050506040513d601f19601f82011682018060405250810190613c6f91906145f6565b604051635fcdca3760e01b81523060048201526001600160a01b0385811660248301528481166044830152606482018490529190911690635fcdca379060840160206040518083038186803b158015613cc757600080fd5b505afa158015613cdb573d6000803e3d6000fd5b505050506040513d601f19601f82011682018060405250810190613cff91906145d9565b6118a05760405162461bcd60e51b815260206004820152603960248201527f5472616e73666572206e6f7420616c6c6f776564202d204c697175696469747960448201527f2050726f7669646572206e6f742077686974656c6973746564000000000000006064820152608401610a9c565b6000610a4361096c613d816129e5565b610ad1856126e0565b803b613dee5760405162461bcd60e51b815260206004820152602d60248201527f455243313936373a206e657720696d706c656d656e746174696f6e206973206e60448201526c1bdd08184818dbdb9d1c9858dd609a1b6064820152608401610a9c565b7f360894a13ba1a3210667c828492db98dca3e2076cc3735a920a3ca505d382bbc80546001600160a01b0319166001600160a01b0392909216919091179055565b6060823b613e8e5760405162461bcd60e51b815260206004820152602660248201527f416464726573733a2064656c65676174652063616c6c20746f206e6f6e2d636f6044820152651b9d1c9858dd60d21b6064820152608401610a9c565b600080846001600160a01b031684604051613ea991906147fc565b600060405180830381855af49150503d8060008114613ee4576040519150601f19603f3d011682016040523d82523d6000602084013e613ee9565b606091505b5091509150613f118282604051806060016040528060278152602001614bda60279139614242565b95945050505050565b613f2381613d8a565b6040516001600160a01b038216907fbc7cd75a20ee27fd9adebab32041f755214dbc6bffa90cc0225b39da2e5c2d3b90600090a250565b60006001826019811115613f7057613f70614b6a565b613f7a9190614ac6565b60c954600160ff929092169190911b91506201518090613fa890600160a01b900464ffffffffff1642614aa0565b64ffffffffff161115613ff65760c9805466ffffffffffffff8316600160c81b026001600160c81b0364ffffffffff4216600160a01b02166001600160a01b03909216919091171790555050565b60c954600160c81b9004811666ffffffffffffff1661405b5760c9805464ffffffffff4216600160a01b0264ffffffffff60a01b1966ffffffffffffff808616600160c81b808604929092161702166001600160a01b03909216919091171790555050565b60405162461bcd60e51b815260206004820152604760248201527f596f7520616c726561647920747765616b6564207468697320706172616d657460448201527f657220726563656e746c792e2057616974206265666f726520747765616b696e606482015266339030b3b0b4b760c91b608482015260a401610a9c565b600054610100900460ff16806140f2575060005460ff16155b61410e5760405162461bcd60e51b8152600401610a9c9061492c565b600054610100900460ff16158015614130576000805461ffff19166101011790555b61413861427b565b61414061427b565b80156110c6576000805461ff001916905550565b600054610100900460ff168061416d575060005460ff16155b6141895760405162461bcd60e51b8152600401610a9c9061492c565b600054610100900460ff161580156141ab576000805461ffff19166101011790555b6141b361427b565b6141406142e5565b600054610100900460ff16806141d4575060005460ff16155b6141f05760405162461bcd60e51b8152600401610a9c9061492c565b600054610100900460ff16158015614212576000805461ffff19166101011790555b60c980546001600160a01b0319166001600160a01b038416179055801561121d576000805461ff00191690555050565b60608315614251575081610c16565b8251156142615782518084602001fd5b8160405162461bcd60e51b8152600401610a9c9190614837565b600054610100900460ff1680614294575060005460ff16155b6142b05760405162461bcd60e51b8152600401610a9c9061492c565b600054610100900460ff16158015614140576000805461ffff191661010117905580156110c6576000805461ff001916905550565b600054610100900460ff16806142fe575060005460ff16155b61431a5760405162461bcd60e51b8152600401610a9c9061492c565b600054610100900460ff1615801561433c576000805461ffff19166101011790555b6097805460ff1916905580156110c6576000805461ff001916905550565b82805461436690614b19565b90600052602060002090601f01602090048101928261438857600085556143ce565b82601f106143a157805160ff19168380011785556143ce565b828001600101855582156143ce579182015b828111156143ce5782518255916020019190600101906143b3565b506121679291505b8082111561216757600081556001016143d6565b600067ffffffffffffffff8084111561440557614405614b80565b604051601f8501601f19908116603f0116810190828211818310171561442d5761442d614b80565b8160405280935085815286868601111561444657600080fd5b858560208301376000602087830101525050509392505050565b600082601f83011261447157600080fd5b610c16838335602085016143ea565b803564ffffffffff81168114611cf057600080fd5b6000602082840312156144a757600080fd5b8135610c1681614b96565b600080604083850312156144c557600080fd5b82356144d081614b96565b915060208301356144e081614b96565b809150509250929050565b60008060006060848603121561450057600080fd5b833561450b81614b96565b9250602084013561451b81614b96565b929592945050506040919091013590565b6000806040838503121561453f57600080fd5b823561454a81614b96565b9150602083013567ffffffffffffffff81111561456657600080fd5b8301601f8101851361457757600080fd5b614586858235602084016143ea565b9150509250929050565b600080604083850312156145a357600080fd5b82356145ae81614b96565b946020939093013593505050565b6000602082840312156145ce57600080fd5b8135610c1681614bab565b6000602082840312156145eb57600080fd5b8151610c1681614bab565b60006020828403121561460857600080fd5b8151610c1681614b96565b600080600080600080600060e0888a03121561462e57600080fd5b873567ffffffffffffffff8082111561464657600080fd5b6146528b838c01614460565b985060208a013591508082111561466857600080fd5b506146758a828b01614460565b965050604088013561468681614b96565b945061469460608901614480565b9699959850939660808101359560a0820135955060c0909101359350915050565b60008060008060008060c087890312156146ce57600080fd5b863567ffffffffffffffff808211156146e657600080fd5b6146f28a838b01614460565b9750602089013591508082111561470857600080fd5b5061471589828a01614460565b95505061472460408801614480565b9350606087013592506080870135915060a087013590509295509295509295565b60006020828403121561475757600080fd5b5035919050565b60006020828403121561477057600080fd5b5051919050565b6000806040838503121561478a57600080fd5b8235915060208301356144e081614bab565b600080604083850312156147af57600080fd5b50508035926020909101359150565b6000602082840312156147d057600080fd5b610c1682614480565b6000602082840312156147eb57600080fd5b815160ff81168114610c1657600080fd5b6000825161480e818460208701614ae9565b9190910192915050565b92835260208301919091526001600160a01b0316604082015260600190565b6020815260008251806020840152614856816040850160208701614ae9565b601f01601f19169190910160400192915050565b6020808252602c908201527f46756e6374696f6e206d7573742062652063616c6c6564207468726f7567682060408201526b19195b1959d85d1958d85b1b60a21b606082015260800190565b6020808252602c908201527f46756e6374696f6e206d7573742062652063616c6c6564207468726f7567682060408201526b6163746976652070726f787960a01b606082015260800190565b60208082526010908201526f14185d5cd8589b194e881c185d5cd95960821b604082015260600190565b6020808252602e908201527f496e697469616c697a61626c653a20636f6e747261637420697320616c72656160408201526d191e481a5b9a5d1a585b1a5e995960921b606082015260800190565b60208082526021908201527f5468652063616c6c6572206d7573742062652074686520506f6c696379506f6f6040820152601b60fa1b606082015260800190565b6020808252602c908201527f5363616c6520746f6f20736d616c6c2c2063616e206c65616420746f20726f7560408201526b6e64696e67206572726f727360a01b606082015260800190565b60008219821115614a1a57614a1a614b54565b500190565b600064ffffffffff808316818516808303821115614a3f57614a3f614b54565b01949350505050565b600082614a6557634e487b7160e01b600052601260045260246000fd5b500490565b6000816000190483118215151615614a8457614a84614b54565b500290565b600082821015614a9b57614a9b614b54565b500390565b600064ffffffffff83811690831681811015614abe57614abe614b54565b039392505050565b600060ff821660ff841680821015614ae057614ae0614b54565b90039392505050565b60005b83811015614b04578181015183820152602001614aec565b83811115614b13576000848401525b50505050565b600181811c90821680614b2d57607f821691505b60208210811415614b4e57634e487b7160e01b600052602260045260246000fd5b50919050565b634e487b7160e01b600052601160045260246000fd5b634e487b7160e01b600052602160045260246000fd5b634e487b7160e01b600052604160045260246000fd5b6001600160a01b03811681146110c657600080fd5b80151581146110c657600080fdfe5ec196419322369c6bac572d883f4d990ae5ec82f7d93cdf89b85dbb05b63c27416464726573733a206c6f772d6c6576656c2064656c65676174652063616c6c206661696c6564a82e22387fca439f316d78ca566f383218ab8ae1b3e830178c9c82cbd16749c055435dd261a4b9b3364963f7738a7a662ad9c84396d64be3365284bb7f0a5041a26469706673582212202d168ffd2000d012fa732795f9e8fb474155ac84b957f18f3192e8c306d40d2664736f6c63430008060033",
  "linkReferences": {},
  "deployedLinkReferences": {}
}