{
  "_format": "hh-sol-artifact-1",
  "contractName": "PolicyPoolMock",
  "sourceName": "contracts/mocks/PolicyPoolMock.sol",
  "abi": [
    {
      "inputs": [
        {
          "internalType": "contract IERC20Metadata",
          "name": "currency_",
          "type": "address"
        },
        {
          "internalType": "contract IPolicyPoolConfig",
          "name": "config_",
          "type": "address"
        }
      ],
      "stateMutability": "nonpayable",
      "type": "constructor"
    },
    {
      "anonymous": false,
      "inputs": [
        {
          "indexed": true,
          "internalType": "contract IRiskModule",
          "name": "riskModule",
          "type": "address"
        },
        {
          "indexed": false,
          "internalType": "uint256",
          "name": "policyId",
          "type": "uint256"
        }
      ],
      "name": "NewPolicy",
      "type": "event"
    },
    {
      "anonymous": false,
      "inputs": [
        {
          "indexed": true,
          "internalType": "contract IRiskModule",
          "name": "riskModule",
          "type": "address"
        },
        {
          "indexed": true,
          "internalType": "uint256",
          "name": "policyId",
          "type": "uint256"
        },
        {
          "indexed": false,
          "internalType": "uint256",
          "name": "payout",
          "type": "uint256"
        }
      ],
      "name": "PolicyResolved",
      "type": "event"
    },
    {
      "inputs": [],
      "name": "MAX_INT",
      "outputs": [
        {
          "internalType": "uint256",
          "name": "",
          "type": "uint256"
        }
      ],
      "stateMutability": "view",
      "type": "function"
    },
    {
      "inputs": [
        {
          "internalType": "uint256",
          "name": "",
          "type": "uint256"
        },
        {
          "internalType": "bool",
          "name": "",
          "type": "bool"
        }
      ],
      "name": "assetEarnings",
      "outputs": [],
      "stateMutability": "pure",
      "type": "function"
    },
    {
      "inputs": [],
      "name": "config",
      "outputs": [
        {
          "internalType": "contract IPolicyPoolConfig",
          "name": "",
          "type": "address"
        }
      ],
      "stateMutability": "view",
      "type": "function"
    },
    {
      "inputs": [],
      "name": "currency",
      "outputs": [
        {
          "internalType": "contract IERC20Metadata",
          "name": "",
          "type": "address"
        }
      ],
      "stateMutability": "view",
      "type": "function"
    },
    {
      "inputs": [
        {
          "internalType": "contract IEToken",
          "name": "",
          "type": "address"
        },
        {
          "internalType": "uint256",
          "name": "",
          "type": "uint256"
        }
      ],
      "name": "deposit",
      "outputs": [],
      "stateMutability": "pure",
      "type": "function"
    },
    {
      "inputs": [
        {
          "internalType": "uint256",
          "name": "",
          "type": "uint256"
        }
      ],
      "name": "getETokenAt",
      "outputs": [
        {
          "internalType": "contract IEToken",
          "name": "",
          "type": "address"
        }
      ],
      "stateMutability": "pure",
      "type": "function"
    },
    {
      "inputs": [],
      "name": "getETokenCount",
      "outputs": [
        {
          "internalType": "uint256",
          "name": "",
          "type": "uint256"
        }
      ],
      "stateMutability": "pure",
      "type": "function"
    },
    {
      "inputs": [],
      "name": "getInvestable",
      "outputs": [
        {
          "internalType": "uint256",
          "name": "",
          "type": "uint256"
        }
      ],
      "stateMutability": "pure",
      "type": "function"
    },
    {
      "inputs": [
        {
          "internalType": "uint256",
          "name": "policyId",
          "type": "uint256"
        }
      ],
      "name": "getPolicy",
      "outputs": [
        {
          "components": [
            {
              "internalType": "uint256",
              "name": "id",
              "type": "uint256"
            },
            {
              "internalType": "uint256",
              "name": "payout",
              "type": "uint256"
            },
            {
              "internalType": "uint256",
              "name": "premium",
              "type": "uint256"
            },
            {
              "internalType": "uint256",
              "name": "scr",
              "type": "uint256"
            },
            {
              "internalType": "uint256",
              "name": "rmCoverage",
              "type": "uint256"
            },
            {
              "internalType": "uint256",
              "name": "lossProb",
              "type": "uint256"
            },
            {
              "internalType": "uint256",
              "name": "purePremium",
              "type": "uint256"
            },
            {
              "internalType": "uint256",
              "name": "premiumForEnsuro",
              "type": "uint256"
            },
            {
              "internalType": "uint256",
              "name": "premiumForRm",
              "type": "uint256"
            },
            {
              "internalType": "uint256",
              "name": "premiumForLps",
              "type": "uint256"
            },
            {
              "internalType": "contract IRiskModule",
              "name": "riskModule",
              "type": "address"
            },
            {
              "internalType": "uint40",
              "name": "start",
              "type": "uint40"
            },
            {
              "internalType": "uint40",
              "name": "expiration",
              "type": "uint40"
            }
          ],
          "internalType": "struct Policy.PolicyData",
          "name": "",
          "type": "tuple"
        }
      ],
      "stateMutability": "view",
      "type": "function"
    },
    {
      "inputs": [
        {
          "components": [
            {
              "internalType": "uint256",
              "name": "id",
              "type": "uint256"
            },
            {
              "internalType": "uint256",
              "name": "payout",
              "type": "uint256"
            },
            {
              "internalType": "uint256",
              "name": "premium",
              "type": "uint256"
            },
            {
              "internalType": "uint256",
              "name": "scr",
              "type": "uint256"
            },
            {
              "internalType": "uint256",
              "name": "rmCoverage",
              "type": "uint256"
            },
            {
              "internalType": "uint256",
              "name": "lossProb",
              "type": "uint256"
            },
            {
              "internalType": "uint256",
              "name": "purePremium",
              "type": "uint256"
            },
            {
              "internalType": "uint256",
              "name": "premiumForEnsuro",
              "type": "uint256"
            },
            {
              "internalType": "uint256",
              "name": "premiumForRm",
              "type": "uint256"
            },
            {
              "internalType": "uint256",
              "name": "premiumForLps",
              "type": "uint256"
            },
            {
              "internalType": "contract IRiskModule",
              "name": "riskModule",
              "type": "address"
            },
            {
              "internalType": "uint40",
              "name": "start",
              "type": "uint40"
            },
            {
              "internalType": "uint40",
              "name": "expiration",
              "type": "uint40"
            }
          ],
          "internalType": "struct Policy.PolicyData",
          "name": "policy",
          "type": "tuple"
        },
        {
          "internalType": "address",
          "name": "",
          "type": "address"
        }
      ],
      "name": "newPolicy",
      "outputs": [
        {
          "internalType": "uint256",
          "name": "",
          "type": "uint256"
        }
      ],
      "stateMutability": "nonpayable",
      "type": "function"
    },
    {
      "inputs": [],
      "name": "policyCount",
      "outputs": [
        {
          "internalType": "uint256",
          "name": "",
          "type": "uint256"
        }
      ],
      "stateMutability": "view",
      "type": "function"
    },
    {
      "inputs": [
        {
          "internalType": "uint256",
          "name": "",
          "type": "uint256"
        }
      ],
      "name": "receiveGrant",
      "outputs": [],
      "stateMutability": "pure",
      "type": "function"
    },
    {
      "inputs": [
        {
          "internalType": "uint256",
          "name": "policyId",
          "type": "uint256"
        },
        {
          "internalType": "uint256",
          "name": "payout",
          "type": "uint256"
        }
      ],
      "name": "resolvePolicy",
      "outputs": [],
      "stateMutability": "nonpayable",
      "type": "function"
    },
    {
      "inputs": [
        {
          "internalType": "uint256",
          "name": "policyId",
          "type": "uint256"
        },
        {
          "internalType": "bool",
          "name": "customerWon",
          "type": "bool"
        }
      ],
      "name": "resolvePolicyFullPayout",
      "outputs": [],
      "stateMutability": "nonpayable",
      "type": "function"
    },
    {
      "inputs": [
        {
          "internalType": "contract IAssetManager",
          "name": "newAssetManager",
          "type": "address"
        }
      ],
      "name": "setAssetManager",
      "outputs": [],
      "stateMutability": "nonpayable",
      "type": "function"
    },
    {
      "inputs": [
        {
          "internalType": "uint256",
          "name": "value",
          "type": "uint256"
        }
      ],
      "name": "setTotalETokenSupply",
      "outputs": [],
      "stateMutability": "nonpayable",
      "type": "function"
    },
    {
      "inputs": [],
      "name": "totalETokenSupply",
      "outputs": [
        {
          "internalType": "uint256",
          "name": "",
          "type": "uint256"
        }
      ],
      "stateMutability": "view",
      "type": "function"
    },
    {
      "inputs": [
        {
          "internalType": "contract IEToken",
          "name": "",
          "type": "address"
        },
        {
          "internalType": "uint256",
          "name": "",
          "type": "uint256"
        }
      ],
      "name": "withdraw",
      "outputs": [
        {
          "internalType": "uint256",
          "name": "",
          "type": "uint256"
        }
      ],
      "stateMutability": "pure",
      "type": "function"
    }
  ],
  "bytecode": "0x60806040523480156200001157600080fd5b5060405162001084380380620010848339810160408190526200003491620001fc565b600080546001600160a01b038085166001600160a01b03199283161783556002839055600180549185169190921681179091556040805163948cb71960e01b81529051919263948cb7199260048084019382900301818387803b1580156200009b57600080fd5b505af1158015620000b0573d6000803e3d6000fd5b5050600154604080516394217ad160e01b81529051600094506001600160a01b0390921692506394217ad1916004808301926020929190829003018186803b158015620000fc57600080fd5b505afa15801562000111573d6000803e3d6000fd5b505050506040513d601f19601f82011682018060405250810190620001379190620001d5565b6001600160a01b031614620001b85760405162461bcd60e51b815260206004820152603a60248201527f41737365744d616e616765722063616e277420626520736574206265666f726560448201527f20506f6c696379506f6f6c20696e697469616c697a6174696f6e000000000000606482015260840160405180910390fd5b5050701d6329f1c35ca4bfabb9f561000000000060035562000254565b600060208284031215620001e857600080fd5b8151620001f5816200023b565b9392505050565b600080604083850312156200021057600080fd5b82516200021d816200023b565b602084015190925062000230816200023b565b809150509250929050565b6001600160a01b03811681146200025157600080fd5b50565b610e2080620002646000396000f3fe608060405234801561001057600080fd5b50600436106101165760003560e01c8063ab600169116100a2578063de54d42911610071578063de54d42914610221578063dea167d514610192578063e5a6b10f1461022a578063f3fef3a31461023b578063f60981901461024e57600080fd5b8063ab600169146101e4578063b0ec4bcf146101f2578063b77ddfea14610206578063cadf90ee1461020e57600080fd5b806347e7ef24116100e957806347e7ef241461017f57806365e29c7e1461019257806379502c55146101995780637aaa3fae146101be57806381ced71f146101d157600080fd5b8063098d32281461011b5780631440912b146101375780632b07fce31461014c578063430602371461016c575b600080fd5b61012460001981565b6040519081526020015b60405180910390f35b61014a610145366004610c49565b600355565b005b61015f61015a366004610c49565b610261565b60405161012e9190610cb4565b61014a61017a366004610b02565b61039f565b61014a61018d366004610b3c565b610722565b6000610124565b6001546001600160a01b03165b6040516001600160a01b03909116815260200161012e565b6101246101cc366004610b68565b61076a565b61014a6101df366004610c49565b61089b565b61014a6101df366004610c62565b6101a6610200366004610c49565b50600090565b600354610124565b61014a61021c366004610c92565b6108d5565b61012460025481565b6000546001600160a01b03166101a6565b610124610249366004610b3c565b6108df565b61014a61025c366004610c62565b61092a565b6102e3604051806101a001604052806000815260200160008152602001600081526020016000815260200160008152602001600081526020016000815260200160008152602001600081526020016000815260200160006001600160a01b03168152602001600064ffffffffff168152602001600064ffffffffff1681525090565b5060009081526004602081815260409283902083516101a0810185528154815260018201549281019290925260028101549382019390935260038301546060820152908201546080820152600582015460a0820152600682015460c0820152600782015460e082015260088201546101008201526009820154610120820152600a909101546001600160a01b03811661014083015264ffffffffff600160a01b82048116610160840152600160c81b9091041661018082015290565b6001546001600160a01b031633146104185760405162461bcd60e51b815260206004820152603160248201527f4f6e6c792074686520506f6c696379506f6f6c436f6e6669672063616e20636860448201527030b733b29030b9b9b2ba26b0b730b3b2b960791b60648201526084015b60405180910390fd5b600154604080516394217ad160e01b815290516000926001600160a01b0316916394217ad1916004808301926020929190829003018186803b15801561045d57600080fd5b505afa158015610471573d6000803e3d6000fd5b505050506040513d601f19601f820116820180604052508101906104959190610b1f565b6001600160a01b03161461068757600160009054906101000a90046001600160a01b03166001600160a01b03166394217ad16040518163ffffffff1660e01b815260040160206040518083038186803b1580156104f157600080fd5b505afa158015610505573d6000803e3d6000fd5b505050506040513d601f19601f820116820180604052508101906105299190610b1f565b6001600160a01b031663cec16f3f6040518163ffffffff1660e01b8152600401600060405180830381600087803b15801561056357600080fd5b505af1158015610577573d6000803e3d6000fd5b5050600054600154604080516394217ad160e01b815290516001600160a01b03938416955063095ea7b3945091909216916394217ad1916004808301926020929190829003018186803b1580156105cd57600080fd5b505afa1580156105e1573d6000803e3d6000fd5b505050506040513d601f19601f820116820180604052508101906106059190610b1f565b6040516001600160e01b031960e084901b1681526001600160a01b03909116600482015260006024820152604401602060405180830381600087803b15801561064d57600080fd5b505af1158015610661573d6000803e3d6000fd5b505050506040513d601f19601f820116820180604052508101906106859190610ade565b505b6001600160a01b0381161561071f5760005460405163095ea7b360e01b81526001600160a01b03838116600483015260001960248301529091169063095ea7b390604401602060405180830381600087803b1580156106e557600080fd5b505af11580156106f9573d6000803e3d6000fd5b505050506040513d601f19601f8201168201806040525081019061071d9190610ade565b505b50565b60405162461bcd60e51b815260206004820152601760248201527f4e6f7420496d706c656d656e746564206465706f736974000000000000000000604482015260640161040f565b600280546000918261077b83610d9e565b90915550506002805460009081526004602081815260408084208851815588830151600182015588820151818701556060890151600382015560808901519381019390935560a0880151600584015560c0880151600684015560e0880151600784015561010088015160088401556101208801516009840155610140880151600a90930180546101608a01516101808b01516001600160a01b039096166001600160c81b031990921691909117600160a01b64ffffffffff928316021764ffffffffff60c81b1916600160c81b9190951602939093179092559254808352918190208290555190815233917f2eba8d214d2ffe99c63b56217383fd378a5a1b5a7308a1f8128ea6f44c566795910160405180910390a25060025492915050565b60405162461bcd60e51b815260206004820152600f60248201526e139bdd08125b5c1b195b595b9d1959608a1b604482015260640161040f565b61071d828261094d565b60405162461bcd60e51b815260206004820152601860248201527f4e6f7420496d706c656d656e7465642077697468647261770000000000000000604482015260009060640161040f565b61071d828261093a57600061094d565b6000848152600460205260409020600101545b6000828152600460205260409020805461099c5760405162461bcd60e51b815260206004820152601060248201526f141bdb1a58de481b9bdd08199bdd5b9960821b604482015260640161040f565b600a8101546001600160a01b03163314610a145760405162461bcd60e51b815260206004820152603360248201527f4f6e6c79207269736b4d6f64756c6520697320617574686f72697a656420746f604482015272207265736f6c76652074686520706f6c69637960681b606482015260840161040f565b6000838152600460208190526040808320838155600181018490556002810184905560038101849055918201839055600582018390556006820183905560078201839055600882018390556009820192909255600a0180546001600160f01b031916905551839033907f54f4a270ea08f88dc23b2520d6b063fecb24d956c4496f447926d736338f545e90610aac9086815260200190565b60405180910390a3505050565b8035610ac481610dc7565b919050565b803564ffffffffff81168114610ac457600080fd5b600060208284031215610af057600080fd5b8151610afb81610ddc565b9392505050565b600060208284031215610b1457600080fd5b8135610afb81610dc7565b600060208284031215610b3157600080fd5b8151610afb81610dc7565b60008060408385031215610b4f57600080fd5b8235610b5a81610dc7565b946020939093013593505050565b6000808284036101c0811215610b7d57600080fd5b6101a080821215610b8d57600080fd5b610b95610d66565b9150843582526020850135602083015260408501356040830152606085013560608301526080850135608083015260a085013560a083015260c085013560c083015260e085013560e0830152610100808601358184015250610120808601358184015250610140610c07818701610ab9565b90830152610160610c19868201610ac9565b90830152610180610c2b868201610ac9565b8184015250819350610c3e818601610ab9565b925050509250929050565b600060208284031215610c5b57600080fd5b5035919050565b60008060408385031215610c7557600080fd5b823591506020830135610c8781610ddc565b809150509250929050565b60008060408385031215610ca557600080fd5b50508035926020909101359150565b60006101a082019050825182526020830151602083015260408301516040830152606083015160608301526080830151608083015260a083015160a083015260c083015160c083015260e083015160e083015261010080840151818401525061012080840151818401525061014080840151610d3a828501826001600160a01b03169052565b50506101608381015164ffffffffff908116918401919091526101809384015116929091019190915290565b6040516101a0810167ffffffffffffffff81118282101715610d9857634e487b7160e01b600052604160045260246000fd5b60405290565b6000600019821415610dc057634e487b7160e01b600052601160045260246000fd5b5060010190565b6001600160a01b038116811461071f57600080fd5b801515811461071f57600080fdfea26469706673582212200f38ca1af1b34ded4a34911d92705d6487a0d426743b4dfd039f2a5b093c72d264736f6c63430008060033",
  "linkReferences": {},
  "deployedLinkReferences": {}
}