{
  "_format": "hh-sol-artifact-1",
  "contractName": "TrustfulRiskModule",
  "sourceName": "contracts/TrustfulRiskModule.sol",
  "abi": [
    {
      "anonymous": false,
      "inputs": [
        {
          "indexed": false,
          "internalType": "address",
          "name": "previousAdmin",
          "type": "address"
        },
        {
          "indexed": false,
          "internalType": "address",
          "name": "newAdmin",
          "type": "address"
        }
      ],
      "name": "AdminChanged",
      "type": "event"
    },
    {
      "anonymous": false,
      "inputs": [
        {
          "indexed": true,
          "internalType": "address",
          "name": "beacon",
          "type": "address"
        }
      ],
      "name": "BeaconUpgraded",
      "type": "event"
    },
    {
      "anonymous": false,
      "inputs": [
        {
          "indexed": true,
          "internalType": "enum IPolicyPoolConfig.GovernanceActions",
          "name": "action",
          "type": "uint8"
        },
        {
          "indexed": false,
          "internalType": "uint256",
          "name": "value",
          "type": "uint256"
        }
      ],
      "name": "GovernanceAction",
      "type": "event"
    },
    {
      "anonymous": false,
      "inputs": [
        {
          "indexed": false,
          "internalType": "address",
          "name": "account",
          "type": "address"
        }
      ],
      "name": "Paused",
      "type": "event"
    },
    {
      "anonymous": false,
      "inputs": [
        {
          "indexed": true,
          "internalType": "bytes32",
          "name": "role",
          "type": "bytes32"
        },
        {
          "indexed": true,
          "internalType": "bytes32",
          "name": "previousAdminRole",
          "type": "bytes32"
        },
        {
          "indexed": true,
          "internalType": "bytes32",
          "name": "newAdminRole",
          "type": "bytes32"
        }
      ],
      "name": "RoleAdminChanged",
      "type": "event"
    },
    {
      "anonymous": false,
      "inputs": [
        {
          "indexed": true,
          "internalType": "bytes32",
          "name": "role",
          "type": "bytes32"
        },
        {
          "indexed": true,
          "internalType": "address",
          "name": "account",
          "type": "address"
        },
        {
          "indexed": true,
          "internalType": "address",
          "name": "sender",
          "type": "address"
        }
      ],
      "name": "RoleGranted",
      "type": "event"
    },
    {
      "anonymous": false,
      "inputs": [
        {
          "indexed": true,
          "internalType": "bytes32",
          "name": "role",
          "type": "bytes32"
        },
        {
          "indexed": true,
          "internalType": "address",
          "name": "account",
          "type": "address"
        },
        {
          "indexed": true,
          "internalType": "address",
          "name": "sender",
          "type": "address"
        }
      ],
      "name": "RoleRevoked",
      "type": "event"
    },
    {
      "anonymous": false,
      "inputs": [
        {
          "indexed": false,
          "internalType": "address",
          "name": "account",
          "type": "address"
        }
      ],
      "name": "Unpaused",
      "type": "event"
    },
    {
      "anonymous": false,
      "inputs": [
        {
          "indexed": true,
          "internalType": "address",
          "name": "implementation",
          "type": "address"
        }
      ],
      "name": "Upgraded",
      "type": "event"
    },
    {
      "inputs": [],
      "name": "DEFAULT_ADMIN_ROLE",
      "outputs": [
        {
          "internalType": "bytes32",
          "name": "",
          "type": "bytes32"
        }
      ],
      "stateMutability": "view",
      "type": "function"
    },
    {
      "inputs": [],
      "name": "GUARDIAN_ROLE",
      "outputs": [
        {
          "internalType": "bytes32",
          "name": "",
          "type": "bytes32"
        }
      ],
      "stateMutability": "view",
      "type": "function"
    },
    {
      "inputs": [],
      "name": "LEVEL1_ROLE",
      "outputs": [
        {
          "internalType": "bytes32",
          "name": "",
          "type": "bytes32"
        }
      ],
      "stateMutability": "view",
      "type": "function"
    },
    {
      "inputs": [],
      "name": "LEVEL2_ROLE",
      "outputs": [
        {
          "internalType": "bytes32",
          "name": "",
          "type": "bytes32"
        }
      ],
      "stateMutability": "view",
      "type": "function"
    },
    {
      "inputs": [],
      "name": "LEVEL3_ROLE",
      "outputs": [
        {
          "internalType": "bytes32",
          "name": "",
          "type": "bytes32"
        }
      ],
      "stateMutability": "view",
      "type": "function"
    },
    {
      "inputs": [],
      "name": "PRICER_ROLE",
      "outputs": [
        {
          "internalType": "bytes32",
          "name": "",
          "type": "bytes32"
        }
      ],
      "stateMutability": "view",
      "type": "function"
    },
    {
      "inputs": [],
      "name": "RESOLVER_ROLE",
      "outputs": [
        {
          "internalType": "bytes32",
          "name": "",
          "type": "bytes32"
        }
      ],
      "stateMutability": "view",
      "type": "function"
    },
    {
      "inputs": [],
      "name": "RM_PROVIDER_ROLE",
      "outputs": [
        {
          "internalType": "bytes32",
          "name": "",
          "type": "bytes32"
        }
      ],
      "stateMutability": "view",
      "type": "function"
    },
    {
      "inputs": [],
      "name": "TWEAK_EXPIRATION",
      "outputs": [
        {
          "internalType": "uint40",
          "name": "",
          "type": "uint40"
        }
      ],
      "stateMutability": "view",
      "type": "function"
    },
    {
      "inputs": [],
      "name": "currency",
      "outputs": [
        {
          "internalType": "contract IERC20Metadata",
          "name": "",
          "type": "address"
        }
      ],
      "stateMutability": "view",
      "type": "function"
    },
    {
      "inputs": [],
      "name": "ensuroFee",
      "outputs": [
        {
          "internalType": "uint256",
          "name": "",
          "type": "uint256"
        }
      ],
      "stateMutability": "view",
      "type": "function"
    },
    {
      "inputs": [
        {
          "internalType": "bytes32",
          "name": "role",
          "type": "bytes32"
        }
      ],
      "name": "getRoleAdmin",
      "outputs": [
        {
          "internalType": "bytes32",
          "name": "",
          "type": "bytes32"
        }
      ],
      "stateMutability": "view",
      "type": "function"
    },
    {
      "inputs": [
        {
          "internalType": "bytes32",
          "name": "role",
          "type": "bytes32"
        },
        {
          "internalType": "address",
          "name": "account",
          "type": "address"
        }
      ],
      "name": "grantRole",
      "outputs": [],
      "stateMutability": "nonpayable",
      "type": "function"
    },
    {
      "inputs": [
        {
          "internalType": "bytes32",
          "name": "role",
          "type": "bytes32"
        },
        {
          "internalType": "address",
          "name": "account",
          "type": "address"
        }
      ],
      "name": "hasRole",
      "outputs": [
        {
          "internalType": "bool",
          "name": "",
          "type": "bool"
        }
      ],
      "stateMutability": "view",
      "type": "function"
    },
    {
      "inputs": [
        {
          "internalType": "string",
          "name": "name_",
          "type": "string"
        },
        {
          "internalType": "contract IPolicyPool",
          "name": "policyPool_",
          "type": "address"
        },
        {
          "internalType": "uint256",
          "name": "scrPercentage_",
          "type": "uint256"
        },
        {
          "internalType": "uint256",
          "name": "ensuroFee_",
          "type": "uint256"
        },
        {
          "internalType": "uint256",
          "name": "scrInterestRate_",
          "type": "uint256"
        },
        {
          "internalType": "uint256",
          "name": "maxScrPerPolicy_",
          "type": "uint256"
        },
        {
          "internalType": "uint256",
          "name": "scrLimit_",
          "type": "uint256"
        },
        {
          "internalType": "address",
          "name": "wallet_",
          "type": "address"
        },
        {
          "internalType": "uint256",
          "name": "sharedCoverageMinPercentage_",
          "type": "uint256"
        }
      ],
      "name": "initialize",
      "outputs": [],
      "stateMutability": "nonpayable",
      "type": "function"
    },
    {
      "inputs": [],
      "name": "lastTweak",
      "outputs": [
        {
          "internalType": "uint40",
          "name": "",
          "type": "uint40"
        },
        {
          "internalType": "uint56",
          "name": "",
          "type": "uint56"
        }
      ],
      "stateMutability": "view",
      "type": "function"
    },
    {
      "inputs": [],
      "name": "maxScrPerPolicy",
      "outputs": [
        {
          "internalType": "uint256",
          "name": "",
          "type": "uint256"
        }
      ],
      "stateMutability": "view",
      "type": "function"
    },
    {
      "inputs": [],
      "name": "moc",
      "outputs": [
        {
          "internalType": "uint256",
          "name": "",
          "type": "uint256"
        }
      ],
      "stateMutability": "view",
      "type": "function"
    },
    {
      "inputs": [],
      "name": "name",
      "outputs": [
        {
          "internalType": "string",
          "name": "",
          "type": "string"
        }
      ],
      "stateMutability": "view",
      "type": "function"
    },
    {
      "inputs": [
        {
          "internalType": "uint256",
          "name": "payout",
          "type": "uint256"
        },
        {
          "internalType": "uint256",
          "name": "premium",
          "type": "uint256"
        },
        {
          "internalType": "uint256",
          "name": "lossProb",
          "type": "uint256"
        },
        {
          "internalType": "uint40",
          "name": "expiration",
          "type": "uint40"
        },
        {
          "internalType": "address",
          "name": "customer",
          "type": "address"
        }
      ],
      "name": "newPolicy",
      "outputs": [
        {
          "internalType": "uint256",
          "name": "",
          "type": "uint256"
        }
      ],
      "stateMutability": "nonpayable",
      "type": "function"
    },
    {
      "inputs": [],
      "name": "pause",
      "outputs": [],
      "stateMutability": "nonpayable",
      "type": "function"
    },
    {
      "inputs": [],
      "name": "paused",
      "outputs": [
        {
          "internalType": "bool",
          "name": "",
          "type": "bool"
        }
      ],
      "stateMutability": "view",
      "type": "function"
    },
    {
      "inputs": [],
      "name": "policyPool",
      "outputs": [
        {
          "internalType": "contract IPolicyPool",
          "name": "",
          "type": "address"
        }
      ],
      "stateMutability": "view",
      "type": "function"
    },
    {
      "inputs": [
        {
          "internalType": "bytes32",
          "name": "role",
          "type": "bytes32"
        },
        {
          "internalType": "address",
          "name": "account",
          "type": "address"
        }
      ],
      "name": "renounceRole",
      "outputs": [],
      "stateMutability": "nonpayable",
      "type": "function"
    },
    {
      "inputs": [
        {
          "internalType": "uint256",
          "name": "policyId",
          "type": "uint256"
        },
        {
          "internalType": "uint256",
          "name": "payout",
          "type": "uint256"
        }
      ],
      "name": "resolvePolicy",
      "outputs": [],
      "stateMutability": "nonpayable",
      "type": "function"
    },
    {
      "inputs": [
        {
          "internalType": "uint256",
          "name": "policyId",
          "type": "uint256"
        },
        {
          "internalType": "bool",
          "name": "customerWon",
          "type": "bool"
        }
      ],
      "name": "resolvePolicyFullPayout",
      "outputs": [],
      "stateMutability": "nonpayable",
      "type": "function"
    },
    {
      "inputs": [
        {
          "internalType": "bytes32",
          "name": "role",
          "type": "bytes32"
        },
        {
          "internalType": "address",
          "name": "account",
          "type": "address"
        }
      ],
      "name": "revokeRole",
      "outputs": [],
      "stateMutability": "nonpayable",
      "type": "function"
    },
    {
      "inputs": [],
      "name": "scrInterestRate",
      "outputs": [
        {
          "internalType": "uint256",
          "name": "",
          "type": "uint256"
        }
      ],
      "stateMutability": "view",
      "type": "function"
    },
    {
      "inputs": [],
      "name": "scrLimit",
      "outputs": [
        {
          "internalType": "uint256",
          "name": "",
          "type": "uint256"
        }
      ],
      "stateMutability": "view",
      "type": "function"
    },
    {
      "inputs": [],
      "name": "scrPercentage",
      "outputs": [
        {
          "internalType": "uint256",
          "name": "",
          "type": "uint256"
        }
      ],
      "stateMutability": "view",
      "type": "function"
    },
    {
      "inputs": [
        {
          "internalType": "uint256",
          "name": "newEnsuroFee",
          "type": "uint256"
        }
      ],
      "name": "setEnsuroFee",
      "outputs": [],
      "stateMutability": "nonpayable",
      "type": "function"
    },
    {
      "inputs": [
        {
          "internalType": "uint256",
          "name": "newMaxScrPerPolicy",
          "type": "uint256"
        }
      ],
      "name": "setMaxScrPerPolicy",
      "outputs": [],
      "stateMutability": "nonpayable",
      "type": "function"
    },
    {
      "inputs": [
        {
          "internalType": "uint256",
          "name": "newMoc",
          "type": "uint256"
        }
      ],
      "name": "setMoc",
      "outputs": [],
      "stateMutability": "nonpayable",
      "type": "function"
    },
    {
      "inputs": [
        {
          "internalType": "uint256",
          "name": "newScrInterestRate",
          "type": "uint256"
        }
      ],
      "name": "setScrInterestRate",
      "outputs": [],
      "stateMutability": "nonpayable",
      "type": "function"
    },
    {
      "inputs": [
        {
          "internalType": "uint256",
          "name": "newScrLimit",
          "type": "uint256"
        }
      ],
      "name": "setScrLimit",
      "outputs": [],
      "stateMutability": "nonpayable",
      "type": "function"
    },
    {
      "inputs": [
        {
          "internalType": "uint256",
          "name": "newScrPercentage",
          "type": "uint256"
        }
      ],
      "name": "setScrPercentage",
      "outputs": [],
      "stateMutability": "nonpayable",
      "type": "function"
    },
    {
      "inputs": [
        {
          "internalType": "uint256",
          "name": "newSCMP",
          "type": "uint256"
        }
      ],
      "name": "setSharedCoverageMinPercentage",
      "outputs": [],
      "stateMutability": "nonpayable",
      "type": "function"
    },
    {
      "inputs": [
        {
          "internalType": "uint256",
          "name": "newSCP",
          "type": "uint256"
        }
      ],
      "name": "setSharedCoveragePercentage",
      "outputs": [],
      "stateMutability": "nonpayable",
      "type": "function"
    },
    {
      "inputs": [
        {
          "internalType": "address",
          "name": "wallet_",
          "type": "address"
        }
      ],
      "name": "setWallet",
      "outputs": [],
      "stateMutability": "nonpayable",
      "type": "function"
    },
    {
      "inputs": [],
      "name": "sharedCoverageMinPercentage",
      "outputs": [
        {
          "internalType": "uint256",
          "name": "",
          "type": "uint256"
        }
      ],
      "stateMutability": "view",
      "type": "function"
    },
    {
      "inputs": [],
      "name": "sharedCoveragePercentage",
      "outputs": [
        {
          "internalType": "uint256",
          "name": "",
          "type": "uint256"
        }
      ],
      "stateMutability": "view",
      "type": "function"
    },
    {
      "inputs": [],
      "name": "sharedCoverageScr",
      "outputs": [
        {
          "internalType": "uint256",
          "name": "",
          "type": "uint256"
        }
      ],
      "stateMutability": "view",
      "type": "function"
    },
    {
      "inputs": [
        {
          "internalType": "bytes4",
          "name": "interfaceId",
          "type": "bytes4"
        }
      ],
      "name": "supportsInterface",
      "outputs": [
        {
          "internalType": "bool",
          "name": "",
          "type": "bool"
        }
      ],
      "stateMutability": "view",
      "type": "function"
    },
    {
      "inputs": [],
      "name": "totalScr",
      "outputs": [
        {
          "internalType": "uint256",
          "name": "",
          "type": "uint256"
        }
      ],
      "stateMutability": "view",
      "type": "function"
    },
    {
      "inputs": [],
      "name": "unpause",
      "outputs": [],
      "stateMutability": "nonpayable",
      "type": "function"
    },
    {
      "inputs": [
        {
          "internalType": "address",
          "name": "newImplementation",
          "type": "address"
        }
      ],
      "name": "upgradeTo",
      "outputs": [],
      "stateMutability": "nonpayable",
      "type": "function"
    },
    {
      "inputs": [
        {
          "internalType": "address",
          "name": "newImplementation",
          "type": "address"
        },
        {
          "internalType": "bytes",
          "name": "data",
          "type": "bytes"
        }
      ],
      "name": "upgradeToAndCall",
      "outputs": [],
      "stateMutability": "payable",
      "type": "function"
    },
    {
      "inputs": [],
      "name": "wallet",
      "outputs": [
        {
          "internalType": "address",
          "name": "",
          "type": "address"
        }
      ],
      "stateMutability": "view",
      "type": "function"
    }
  ],
  "bytecode": "0x60a06040523060601b60805234801561001757600080fd5b5060805160601c614bfe61004b60003960008181610e5e01528181610e9e0152818161103301526110730152614bfe6000f3fe6080604052600436106102935760003560e01c80637ed5acfa1161015a578063d44499a8116100c1578063e5a6b10f1161007a578063e5a6b10f146107e3578063e61735c0146107f8578063f33323a414610818578063f609819014610838578063f67b2bad14610858578063fbb812791461087a57600080fd5b8063d44499a814610737578063d547741f1461074d578063d9894c9a1461076d578063dab5d88d14610783578063deaa59df146107a3578063e4d6d01f146107c357600080fd5b8063a9a24f2711610113578063a9a24f2714610677578063acae3c16146106ab578063b9ea870a146106cb578063bf8e934d146106eb578063ca996de314610701578063cadf90ee1461071757600080fd5b80637ed5acfa146105d45780638456cb591461060157806391d14854146106165780639c832503146106365780639d90724d1461064c578063a217fddf1461066257600080fd5b8063468a8c9f116101fe5780635b494dd5116101b75780635b494dd51461051a5780635c975abb1461053c5780635d505fe71461055457806360a32a411461056a5780636f6b25691461058057806378fab260146105a057600080fd5b8063468a8c9f1461043c5780634a47a3e01461047d5780634d15eb031461049f5780634f1ef286146104d2578063521eb273146104e5578063534282531461050457600080fd5b806324ea54f41161025057806324ea54f41461038f5780632f2ff15d146103b157806336568abe146103d15780633659cfe6146103f15780633f4ba83a1461041157806341ea6a0f1461042657600080fd5b806301ffc9a71461029857806306fdde03146102cd578063089a8504146102ef5780630fe899481461031157806322875d6314610331578063248a9ca314610351575b600080fd5b3480156102a457600080fd5b506102b86102b3366004614501565b6108ae565b60405190151581526020015b60405180910390f35b3480156102d957600080fd5b506102e26108e5565b6040516102c49190614765565b3480156102fb57600080fd5b5061030f61030a3660046144b8565b610978565b005b34801561031d57600080fd5b5061030f61032c3660046144b8565b610b42565b34801561033d57600080fd5b5061030f61034c3660046144b8565b610bf9565b34801561035d57600080fd5b5061038161036c3660046144b8565b600090815260c9602052604090206001015490565b6040519081526020016102c4565b34801561039b57600080fd5b50610381600080516020614ba983398151915281565b3480156103bd57600080fd5b5061030f6103cc3660046144d1565b610db3565b3480156103dd57600080fd5b5061030f6103ec3660046144d1565b610dd9565b3480156103fd57600080fd5b5061030f61040c36600461441a565b610e53565b34801561041d57600080fd5b5061030f610f1c565b34801561043257600080fd5b5061013454610381565b34801561044857600080fd5b5061012d5460408051600160a01b830464ffffffffff168152600160c81b90920466ffffffffffffff166020830152016102c4565b34801561048957600080fd5b50610381600080516020614b8983398151915281565b3480156104ab57600080fd5b5061012d546001600160a01b03165b6040516001600160a01b0390911681526020016102c4565b61030f6104e0366004614437565b611028565b3480156104f157600080fd5b50610139546001600160a01b03166104ba565b34801561051057600080fd5b5061013054610381565b34801561052657600080fd5b50610381600080516020614b4283398151915281565b34801561054857600080fd5b5060fb5460ff166102b8565b34801561056057600080fd5b5061013354610381565b34801561057657600080fd5b5061013654610381565b34801561058c57600080fd5b5061038161059b366004614655565b6110de565b3480156105ac57600080fd5b506103817f92a19c77d2ea87c7f81d50c74403cb2f401780f3ad919571121efe2bdb427eb181565b3480156105e057600080fd5b506105eb6201518081565b60405164ffffffffff90911681526020016102c4565b34801561060d57600080fd5b5061030f611123565b34801561062257600080fd5b506102b86106313660046144d1565b611216565b34801561064257600080fd5b5061013854610381565b34801561065857600080fd5b5061013254610381565b34801561066e57600080fd5b50610381600081565b34801561068357600080fd5b506103817f0df0a8869cf58168a14cd7ac426ff1b8c6ff5d5c800c6f44803f3431dcb3bad181565b3480156106b757600080fd5b5061030f6106c6366004614548565b611241565b3480156106d757600080fd5b5061030f6106e63660046144b8565b6112c7565b3480156106f757600080fd5b5061012f54610381565b34801561070d57600080fd5b5061013554610381565b34801561072357600080fd5b5061030f610732366004614633565b611478565b34801561074357600080fd5b5061013154610381565b34801561075957600080fd5b5061030f6107683660046144d1565b611532565b34801561077957600080fd5b5061013754610381565b34801561078f57600080fd5b5061030f61079e3660046144b8565b611558565b3480156107af57600080fd5b5061030f6107be36600461441a565b611715565b3480156107cf57600080fd5b5061030f6107de3660046144b8565b61176d565b3480156107ef57600080fd5b506104ba61194e565b34801561080457600080fd5b5061030f6108133660046144b8565b6119d1565b34801561082457600080fd5b5061030f6108333660046144b8565b611b8c565b34801561084457600080fd5b5061030f61085336600461460e565b611f42565b34801561086457600080fd5b50610381600080516020614b2283398151915281565b34801561088657600080fd5b506103817fc6823861ee2bb2198ce6b1fd6faf4c8f44f745bc804aca4a762f67e0d507fd8a81565b60006001600160e01b03198216637965db0b60e01b14806108df57506301ffc9a760e01b6001600160e01b03198316145b92915050565b606061012e80546108f590614a6b565b80601f016020809104026020016040519081016040528092919081815260200182805461092190614a6b565b801561096e5780601f106109435761010080835404028352916020019161096e565b820191906000526020600020905b81548152906001019060200180831161095157829003601f168201915b5050505050905090565b600080516020614b89833981519152600080516020614b4283398151915261012d60009054906101000a90046001600160a01b03166001600160a01b03166379502c556040518163ffffffff1660e01b815260040160206040518083038186803b1580156109e557600080fd5b505afa1580156109f9573d6000803e3d6000fd5b505050506040513d601f19601f82011682018060405250810190610a1d919061452b565b6001600160a01b031663c5b8f5cf8383336040518463ffffffff1660e01b8152600401610a4c93929190614746565b60006040518083038186803b158015610a6457600080fd5b505afa158015610a78573d6000803e3d6000fd5b505050506000610a95600080516020614b89833981519152611fca565b159050801580610ab95750610ab961013154856af8277896582678ac0000006120c8565b610b225760405162461bcd60e51b815260206004820152602f60248201527f547765616b2065786365656465643a20656e7375726f46656520747765616b7360448201526e206f6e6c7920757020746f2033302560881b60648201526084015b60405180910390fd5b610131849055610b34600a858361215a565b50610b3d6121b3565b505050565b7f0df0a8869cf58168a14cd7ac426ff1b8c6ff5d5c800c6f44803f3431dcb3bad1610b6d81336125f4565b61013654821015610bda5760405162461bcd60e51b815260206004820152603160248201527f43616e2774207365742073686172656420636f76657261676520706572632e206044820152706c657373207468616e206d696e696d756d60781b6064820152608401610b19565b610137829055610bed600d83600061215a565b610bf56121b3565b5050565b600080516020614b89833981519152600080516020614b4283398151915261012d60009054906101000a90046001600160a01b03166001600160a01b03166379502c556040518163ffffffff1660e01b815260040160206040518083038186803b158015610c6657600080fd5b505afa158015610c7a573d6000803e3d6000fd5b505050506040513d601f19601f82011682018060405250810190610c9e919061452b565b6001600160a01b031663c5b8f5cf8383336040518463ffffffff1660e01b8152600401610ccd93929190614746565b60006040518083038186803b158015610ce557600080fd5b505afa158015610cf9573d6000803e3d6000fd5b505050506000610d16600080516020614b89833981519152611fca565b159050801580610d375750610d376101335485670429d069189e0000612658565b610da15760405162461bcd60e51b815260206004820152603560248201527f547765616b2065786365656465643a206d6178536372506572506f6c69637920604482015274747765616b73206f6e6c7920757020746f2033302560581b6064820152608401610b19565b610133849055610b34600b858361215a565b600082815260c96020526040902060010154610dcf81336125f4565b610b3d83836126c7565b6001600160a01b0381163314610e495760405162461bcd60e51b815260206004820152602f60248201527f416363657373436f6e74726f6c3a2063616e206f6e6c792072656e6f756e636560448201526e103937b632b9903337b91039b2b63360891b6064820152608401610b19565b610bf5828261274d565b306001600160a01b037f0000000000000000000000000000000000000000000000000000000000000000161415610e9c5760405162461bcd60e51b8152600401610b1990614798565b7f00000000000000000000000000000000000000000000000000000000000000006001600160a01b0316610ece6127b4565b6001600160a01b031614610ef45760405162461bcd60e51b8152600401610b19906147e4565b610efd816127e2565b60408051600080825260208201909252610f19918391906128e2565b50565b600080516020614ba9833981519152600080516020614b2283398151915261012d60009054906101000a90046001600160a01b03166001600160a01b03166379502c556040518163ffffffff1660e01b815260040160206040518083038186803b158015610f8957600080fd5b505afa158015610f9d573d6000803e3d6000fd5b505050506040513d601f19601f82011682018060405250810190610fc1919061452b565b6001600160a01b031663c5b8f5cf8383336040518463ffffffff1660e01b8152600401610ff093929190614746565b60006040518083038186803b15801561100857600080fd5b505afa15801561101c573d6000803e3d6000fd5b50505050610bf5612a2d565b306001600160a01b037f00000000000000000000000000000000000000000000000000000000000000001614156110715760405162461bcd60e51b8152600401610b1990614798565b7f00000000000000000000000000000000000000000000000000000000000000006001600160a01b03166110a36127b4565b6001600160a01b0316146110c95760405162461bcd60e51b8152600401610b19906147e4565b6110d2826127e2565b610bf5828260016128e2565b60007fc6823861ee2bb2198ce6b1fd6faf4c8f44f745bc804aca4a762f67e0d507fd8a61110b81336125f4565b6111188787878787612ac0565b979650505050505050565b61012d54604080516379502c5560e01b81529051600080516020614ba9833981519152926001600160a01b0316916379502c55916004808301926020929190829003018186803b15801561117657600080fd5b505afa15801561118a573d6000803e3d6000fd5b505050506040513d601f19601f820116820180604052508101906111ae919061452b565b6040516312d9a6ad60e01b8152600481018390523360248201526001600160a01b0391909116906312d9a6ad9060440160006040518083038186803b1580156111f657600080fd5b505afa15801561120a573d6000803e3d6000fd5b50505050610f19612ef3565b600091825260c9602090815260408084206001600160a01b0393909316845291905290205460ff1690565b600054610100900460ff168061125a575060005460ff16155b6112765760405162461bcd60e51b8152600401610b199061485a565b600054610100900460ff16158015611298576000805461ffff19166101011790555b6112a98a8a8a8a8a8a8a8a8a612f4b565b80156112bb576000805461ff00191690555b50505050505050505050565b600080516020614b89833981519152600080516020614b4283398151915261012d60009054906101000a90046001600160a01b03166001600160a01b03166379502c556040518163ffffffff1660e01b815260040160206040518083038186803b15801561133457600080fd5b505afa158015611348573d6000803e3d6000fd5b505050506040513d601f19601f8201168201806040525081019061136c919061452b565b6001600160a01b031663c5b8f5cf8383336040518463ffffffff1660e01b815260040161139b93929190614746565b60006040518083038186803b1580156113b357600080fd5b505afa1580156113c7573d6000803e3d6000fd5b5050505060006113e4600080516020614b89833981519152611fca565b159050801580611408575061140861013054856a52b7d2dcc80cd2e40000006120c8565b6114665760405162461bcd60e51b815260206004820152602960248201527f547765616b2065786365656465643a206d6f6320747765616b73206f6e6c7920604482015268757020746f2031302560b81b6064820152608401610b19565b610130849055610b346008858361215a565b7f92a19c77d2ea87c7f81d50c74403cb2f401780f3ad919571121efe2bdb427eb16114a381336125f4565b60fb5460ff16156114c65760405162461bcd60e51b8152600401610b1990614830565b61012d5460405163656fc87760e11b815260048101859052602481018490526001600160a01b039091169063cadf90ee906044015b600060405180830381600087803b15801561151557600080fd5b505af1158015611529573d6000803e3d6000fd5b50505050505050565b600082815260c9602052604090206001015461154e81336125f4565b610b3d838361274d565b600080516020614b89833981519152600080516020614b4283398151915261012d60009054906101000a90046001600160a01b03166001600160a01b03166379502c556040518163ffffffff1660e01b815260040160206040518083038186803b1580156115c557600080fd5b505afa1580156115d9573d6000803e3d6000fd5b505050506040513d601f19601f820116820180604052508101906115fd919061452b565b6001600160a01b031663c5b8f5cf8383336040518463ffffffff1660e01b815260040161162c93929190614746565b60006040518083038186803b15801561164457600080fd5b505afa158015611658573d6000803e3d6000fd5b505050506000611675600080516020614b89833981519152611fca565b159050801580611699575061169961013254856af8277896582678ac0000006120c8565b6117035760405162461bcd60e51b815260206004820152603560248201527f547765616b2065786365656465643a20736372496e7465726573745261746520604482015274747765616b73206f6e6c7920757020746f2033302560581b6064820152608401610b19565b610132849055610b346009858361215a565b7f0df0a8869cf58168a14cd7ac426ff1b8c6ff5d5c800c6f44803f3431dcb3bad161174081336125f4565b61013980546001600160a01b0319166001600160a01b038416908117909155610bed90600f90600061215a565b600080516020614b89833981519152600080516020614b4283398151915261012d60009054906101000a90046001600160a01b03166001600160a01b03166379502c556040518163ffffffff1660e01b815260040160206040518083038186803b1580156117da57600080fd5b505afa1580156117ee573d6000803e3d6000fd5b505050506040513d601f19601f82011682018060405250810190611812919061452b565b6001600160a01b031663c5b8f5cf8383336040518463ffffffff1660e01b815260040161184193929190614746565b60006040518083038186803b15801561185957600080fd5b505afa15801561186d573d6000803e3d6000fd5b50505050600061188a600080516020614b89833981519152611fca565b1590508015806118ae57506118ae61013654856af8277896582678ac0000006120c8565b61192a5760405162461bcd60e51b815260206004820152604160248201527f547765616b2065786365656465643a20736861726564436f7665726167654d6960448201527f6e50657263656e7461676520747765616b73206f6e6c7920757020746f2033306064820152602560f81b608482015260a401610b19565b61013684905561013754841115611942576101378490555b610b34600d858361215a565b61012d546040805163e5a6b10f60e01b815290516000926001600160a01b03169163e5a6b10f916004808301926020929190829003018186803b15801561199457600080fd5b505afa1580156119a8573d6000803e3d6000fd5b505050506040513d601f19601f820116820180604052508101906119cc919061452b565b905090565b600080516020614b89833981519152600080516020614b4283398151915261012d60009054906101000a90046001600160a01b03166001600160a01b03166379502c556040518163ffffffff1660e01b815260040160206040518083038186803b158015611a3e57600080fd5b505afa158015611a52573d6000803e3d6000fd5b505050506040513d601f19601f82011682018060405250810190611a76919061452b565b6001600160a01b031663c5b8f5cf8383336040518463ffffffff1660e01b8152600401611aa593929190614746565b60006040518083038186803b158015611abd57600080fd5b505afa158015611ad1573d6000803e3d6000fd5b505050506000611aee600080516020614b89833981519152611fca565b159050801580611b125750611b1261012f54856a52b7d2dcc80cd2e40000006120c8565b611b7a5760405162461bcd60e51b815260206004820152603360248201527f547765616b2065786365656465643a2073637250657263656e7461676520747760448201527265616b73206f6e6c7920757020746f2031302560681b6064820152608401610b19565b61012f849055610b346007858361215a565b600080516020614b22833981519152600080516020614b89833981519152600080516020614b42833981519152611bc283611fca565b611cad5761012d60009054906101000a90046001600160a01b03166001600160a01b03166379502c556040518163ffffffff1660e01b815260040160206040518083038186803b158015611c1557600080fd5b505afa158015611c29573d6000803e3d6000fd5b505050506040513d601f19601f82011682018060405250810190611c4d919061452b565b6001600160a01b031663c5b8f5cf8383336040518463ffffffff1660e01b8152600401611c7c93929190614746565b60006040518083038186803b158015611c9457600080fd5b505afa158015611ca8573d6000803e3d6000fd5b505050505b6000611cc6600080516020614b89833981519152611fca565b158015611ce75750611ce5600080516020614b22833981519152611fca565b155b9050801580611d075750611d07610134548667016345785d8a0000612658565b611d6a5760405162461bcd60e51b815260206004820152602e60248201527f547765616b2065786365656465643a207363724c696d697420747765616b732060448201526d6f6e6c7920757020746f2031302560901b6064820152608401610b19565b6101345485111580611d8e5750611d8e600080516020614b22833981519152611fca565b80611e30575084611e2e67016345785d8a000061012d60009054906101000a90046001600160a01b03166001600160a01b031663b77ddfea6040518163ffffffff1660e01b815260040160206040518083038186803b158015611df057600080fd5b505afa158015611e04573d6000803e3d6000fd5b505050506040513d601f19601f82011682018060405250810190611e2891906145f5565b90612fc3565b115b611eb75760405162461bcd60e51b815260206004820152604c60248201527f547765616b2065786365656465643a20496e6372656173652c203e3d3130252060448201527f6f662074686520746f74616c206c69717569646974792c20726571756972657360648201526b204c4556454c315f524f4c4560a01b608482015260a401610b19565b61013554851015611f215760405162461bcd60e51b815260206004820152602e60248201527f43616e27742073657420534352206c657373207468616e2063757272656e742060448201526d29a1a91030b63637b1b0ba34b7b760911b6064820152608401610b19565b610134859055611f33600c868361215a565b50611f3c6121b3565b50505050565b7f92a19c77d2ea87c7f81d50c74403cb2f401780f3ad919571121efe2bdb427eb1611f6d81336125f4565b60fb5460ff1615611f905760405162461bcd60e51b8152600401610b1990614830565b61012d54604051630f60981960e41b81526004810185905283151560248201526001600160a01b039091169063f6098190906044016114fb565b61012d54604080516379502c5560e01b815290516000926001600160a01b0316916379502c55916004808301926020929190829003018186803b15801561201057600080fd5b505afa158015612024573d6000803e3d6000fd5b505050506040513d601f19601f82011682018060405250810190612048919061452b565b604051632474521560e21b8152600481018490523360248201526001600160a01b0391909116906391d148549060440160206040518083038186803b15801561209057600080fd5b505afa1580156120a4573d6000803e3d6000fd5b505050506040513d601f19601f820116820180604052508101906108df919061449b565b6000828414156120da57506001612153565b836120f45750676765c793fa10079d601b1b811015612153565b8261210157506000612153565b828410156121335781676765c793fa10079d601b1b6121208587613094565b61212a91906149c8565b11159050612153565b8161213e8486613094565b61212a90676765c793fa10079d601b1b6149c8565b9392505050565b801561216957612169836131a2565b82601981111561217b5761217b614abc565b6040518381527f7bc647fe5043209e2019aa3503b79c1b0dd83eb61c56013d373a7584ff6bfb139060200160405180910390a2505050565b676765c793fa10079d601b1b61012f54111580156121d45750600061012f54115b61222e5760405162461bcd60e51b815260206004820152602560248201527f56616c69646174696f6e3a2073637250657263656e74616765206d757374206260448201526465203c3d3160d81b6064820152608401610b19565b612244676765c793fa10079d601b1b60026149a9565b610130541115801561226e57506122676002676765c793fa10079d601b1b614987565b6101305410155b6122ba5760405162461bcd60e51b815260206004820181905260248201527f56616c69646174696f6e3a206d6f63206d757374206265205b302e352c20325d6044820152606401610b19565b676765c793fa10079d601b1b6101315411156123235760405162461bcd60e51b815260206004820152602260248201527f56616c69646174696f6e3a20656e7375726f466565206d757374206265203c3d604482015261203160f01b6064820152608401610b19565b676765c793fa10079d601b1b6101325411156123995760405162461bcd60e51b815260206004820152602f60248201527f56616c69646174696f6e3a20736372496e74657265737452617465206d75737460448201526e206265203c3d20312028313030252960881b6064820152608401610b19565b610135546101345410156124155760405162461bcd60e51b815260206004820152603760248201527f56616c69646174696f6e3a207363724c696d69742063616e2774206265206c6560448201527f7373207468616e2061637475616c20746f74616c5363720000000000000000006064820152608401610b19565b676765c793fa10079d601b1b6101365411156124885760405162461bcd60e51b815260206004820152602c60248201527f56616c69646174696f6e3a20736861726564436f7665726167654d696e50657260448201526b63656e74616765203c3d203160a01b6064820152608401610b19565b676765c793fa10079d601b1b6101375411156124f85760405162461bcd60e51b815260206004820152602960248201527f56616c69646174696f6e3a20736861726564436f76657261676550657263656e60448201526874616765203c3d203160b81b6064820152608401610b19565b610136546101375410156125885760405162461bcd60e51b815260206004820152604b60248201527f56616c69646174696f6e3a20736861726564436f76657261676550657263656e60448201527f74616765206d757374206265203e3d20736861726564436f7665726167654d6960648201526a6e50657263656e7461676560a81b608482015260a401610b19565b610139546001600160a01b03166125f25760405162461bcd60e51b815260206004820152602860248201527f56616c69646174696f6e3a2057616c6c65742063616e2774206265207a65726f604482015267206164647265737360c01b6064820152608401610b19565b565b6125fe8282611216565b610bf557612616816001600160a01b03166014613325565b612621836020613325565b6040516020016126329291906146d1565b60408051601f198184030181529082905262461bcd60e51b8252610b1991600401614765565b60008284141561266a57506001612153565b836126815750670de0b6b3a7640000811015612153565b8261268e57506000612153565b828410156126aa5781670de0b6b3a764000061212085876134c1565b816126b584866134c1565b61212a90670de0b6b3a76400006149c8565b6126d18282611216565b610bf557600082815260c9602090815260408083206001600160a01b03851684529091529020805460ff191660011790556127093390565b6001600160a01b0316816001600160a01b0316837f2f8788117e7eff1d82e926ec794901d17c78024a50270940304540a733656f0d60405160405180910390a45050565b6127578282611216565b15610bf557600082815260c9602090815260408083206001600160a01b0385168085529252808320805460ff1916905551339285917ff6391f5c32d9c69d2a47ea670b442974b53935d1edc7fd64eb21e047a839171b9190a45050565b7f360894a13ba1a3210667c828492db98dca3e2076cc3735a920a3ca505d382bbc546001600160a01b031690565b600080516020614ba9833981519152600080516020614b2283398151915261012d60009054906101000a90046001600160a01b03166001600160a01b03166379502c556040518163ffffffff1660e01b815260040160206040518083038186803b15801561284f57600080fd5b505afa158015612863573d6000803e3d6000fd5b505050506040513d601f19601f82011682018060405250810190612887919061452b565b6001600160a01b031663c5b8f5cf8383336040518463ffffffff1660e01b81526004016128b693929190614746565b60006040518083038186803b1580156128ce57600080fd5b505afa158015611529573d6000803e3d6000fd5b60006128ec6127b4565b90506128f7846135ad565b6000835111806129045750815b15612915576129138484613652565b505b7f4910fdfa16fed3260ed0e7147f7cc6da11a60208b5b9406d12a635614ffd9143805460ff16612a2657805460ff191660011781556040516001600160a01b038316602482015261299490869060440160408051601f198184030181529190526020810180516001600160e01b0316631b2ce7f360e11b179052613652565b50805460ff191681556129a56127b4565b6001600160a01b0316826001600160a01b031614612a1d5760405162461bcd60e51b815260206004820152602f60248201527f45524331393637557067726164653a207570677261646520627265616b73206660448201526e75727468657220757067726164657360881b6064820152608401610b19565b612a268561373d565b5050505050565b60fb5460ff16612a765760405162461bcd60e51b815260206004820152601460248201527314185d5cd8589b194e881b9bdd081c185d5cd95960621b6044820152606401610b19565b60fb805460ff191690557f5db9ee0a495bf2e6ff9c91a7834c1ba4fdd244a5e8aa4e537bd38aeae4b073aa335b6040516001600160a01b03909116815260200160405180910390a1565b6000612ace60fb5460ff1690565b15612aeb5760405162461bcd60e51b8152600401610b1990614830565b858510612b3a5760405162461bcd60e51b815260206004820181905260248201527f5072656d69756d206d757374206265206c657373207468616e207061796f75746044820152606401610b19565b4264ffffffffff168364ffffffffff1611612b975760405162461bcd60e51b815260206004820181905260248201527f45787069726174696f6e206d75737420626520696e20746865206675747572656044820152606401610b19565b6001600160a01b038216612bed5760405162461bcd60e51b815260206004820152601e60248201527f437573746f6d65722063616e2774206265207a65726f206164647265737300006044820152606401610b19565b61012d546040805163e5a6b10f60e01b8152905187926001600160a01b03169163e5a6b10f916004808301926020929190829003018186803b158015612c3257600080fd5b505afa158015612c46573d6000803e3d6000fd5b505050506040513d601f19601f82011682018060405250810190612c6a919061452b565b61012d54604051636eb1769f60e11b81526001600160a01b038681166004830152918216602482015291169063dd62ed3e9060440160206040518083038186803b158015612cb757600080fd5b505afa158015612ccb573d6000803e3d6000fd5b505050506040513d601f19601f82011682018060405250810190612cef91906145f5565b1015612d535760405162461bcd60e51b815260206004820152602d60248201527f596f75206d75737420616c6c6f7720454e5355524f20746f207472616e73666560448201526c7220746865207072656d69756d60981b6064820152608401610b19565b6000612d62308789888861377d565b90506101335481606001511115612dd35760405162461bcd60e51b815260206004820152602f60248201527f5269736b4d6f64756c653a20534352206973206d6f7265207468616e206d617860448201526e696d756d2070657220706f6c69637960881b6064820152608401610b19565b80606001516101356000828254612dea919061496f565b909155505061013454610135541115612e455760405162461bcd60e51b815260206004820152601e60248201527f5269736b4d6f64756c653a20534352206c696d697420657863656564656400006044820152606401610b19565b80608001516101386000828254612e5c919061496f565b909155505061012d54604051633d551fd760e11b81526000916001600160a01b031690637aaa3fae90612e9590859088906004016148a8565b602060405180830381600087803b158015612eaf57600080fd5b505af1158015612ec3573d6000803e3d6000fd5b505050506040513d601f19601f82011682018060405250810190612ee791906145f5565b98975050505050505050565b60fb5460ff1615612f165760405162461bcd60e51b8152600401610b1990614830565b60fb805460ff191660011790557f62e78cea01bee320cd4e420270b5ea74000d11b0c9f74754ebdbfc544b05a258612aa33390565b600054610100900460ff1680612f64575060005460ff16155b612f805760405162461bcd60e51b8152600401610b199061485a565b600054610100900460ff16158015612fa2576000805461ffff19166101011790555b612faa613c4f565b612fb389613cd2565b6112a98a89898989898989613d57565b6000821580612fd0575081155b15612fdd575060006108df565b81612ff16002670de0b6b3a7640000614987565b612ffd906000196149c8565b6130079190614987565b8311156130625760405162461bcd60e51b8152602060048201526024808201527f7761644d756c3a204d617468204d756c7469706c69636174696f6e204f766572604482015263666c6f7760e01b6064820152608401610b19565b670de0b6b3a7640000613076600282614987565b61308084866149a9565b61308a919061496f565b6121539190614987565b6000816130e35760405162461bcd60e51b815260206004820152601860248201527f7261794469763a204469766973696f6e206279207a65726f00000000000000006044820152606401610b19565b60006130f0600284614987565b9050676765c793fa10079d601b1b61310a826000196149c8565b6131149190614987565b84111561316f5760405162461bcd60e51b8152602060048201526024808201527f7261794469763a204d617468204d756c7469706c69636174696f6e204f766572604482015263666c6f7760e01b6064820152608401610b19565b8281613186676765c793fa10079d601b1b876149a9565b613190919061496f565b61319a9190614987565b949350505050565b600060018260198111156131b8576131b8614abc565b6131c29190614a05565b61012d54600160ff929092169190911b915062015180906131f190600160a01b900464ffffffffff16426149df565b64ffffffffff1611156132405761012d805466ffffffffffffff8316600160c81b026001600160c81b0364ffffffffff4216600160a01b02166001600160a01b03909216919091171790555050565b61012d54600160c81b9004811666ffffffffffffff166132a75761012d805464ffffffffff4216600160a01b0264ffffffffff60a01b1966ffffffffffffff808616600160c81b808604929092161702166001600160a01b03909216919091171790555050565b60405162461bcd60e51b815260206004820152604760248201527f596f7520616c726561647920747765616b6564207468697320706172616d657460448201527f657220726563656e746c792e2057616974206265666f726520747765616b696e606482015266339030b3b0b4b760c91b608482015260a401610b19565b606060006133348360026149a9565b61333f90600261496f565b67ffffffffffffffff81111561335757613357614ae8565b6040519080825280601f01601f191660200182016040528015613381576020820181803683370190505b509050600360fc1b8160008151811061339c5761339c614ad2565b60200101906001600160f81b031916908160001a905350600f60fb1b816001815181106133cb576133cb614ad2565b60200101906001600160f81b031916908160001a90535060006133ef8460026149a9565b6133fa90600161496f565b90505b6001811115613472576f181899199a1a9b1b9c1cb0b131b232b360811b85600f166010811061342e5761342e614ad2565b1a60f81b82828151811061344457613444614ad2565b60200101906001600160f81b031916908160001a90535060049490941c9361346b81614a54565b90506133fd565b5083156121535760405162461bcd60e51b815260206004820181905260248201527f537472696e67733a20686578206c656e67746820696e73756666696369656e746044820152606401610b19565b6000816135105760405162461bcd60e51b815260206004820152601860248201527f7761644469763a204469766973696f6e206279207a65726f00000000000000006044820152606401610b19565b600061351d600284614987565b9050670de0b6b3a7640000613534826000196149c8565b61353e9190614987565b8411156135995760405162461bcd60e51b8152602060048201526024808201527f7761644469763a204d617468204d756c7469706c69636174696f6e204f766572604482015263666c6f7760e01b6064820152608401610b19565b8281613186670de0b6b3a7640000876149a9565b803b6136115760405162461bcd60e51b815260206004820152602d60248201527f455243313936373a206e657720696d706c656d656e746174696f6e206973206e60448201526c1bdd08184818dbdb9d1c9858dd609a1b6064820152608401610b19565b7f360894a13ba1a3210667c828492db98dca3e2076cc3735a920a3ca505d382bbc80546001600160a01b0319166001600160a01b0392909216919091179055565b6060823b6136b15760405162461bcd60e51b815260206004820152602660248201527f416464726573733a2064656c65676174652063616c6c20746f206e6f6e2d636f6044820152651b9d1c9858dd60d21b6064820152608401610b19565b600080846001600160a01b0316846040516136cc91906146b5565b600060405180830381855af49150503d8060008114613707576040519150601f19603f3d011682016040523d82523d6000602084013e61370c565b606091505b50915091506137348282604051806060016040528060278152602001614b6260279139613e56565b95945050505050565b613746816135ad565b6040516001600160a01b038216907fbc7cd75a20ee27fd9adebab32041f755214dbc6bffa90cc0225b39da2e5c2d3b90600090a250565b61378561427c565b838511156137e05760405162461bcd60e51b815260206004820152602260248201527f5072656d69756d2063616e6e6f74206265206d6f7265207468616e207061796f6044820152611d5d60f21b6064820152608401610b19565b6137e861427c565b6001600160a01b0387166101408201819052604080830188905260208084018890528151636cc4a64d60e11b8152915161388e9361388993909263d9894c9a92600480840193829003018186803b15801561384257600080fd5b505afa158015613856573d6000803e3d6000fd5b505050506040513d601f19601f8201168201806040525081019061387a91906145f5565b61388388613e8f565b90613f0d565b613fc6565b6080820181905260a0820185905260208201516000916138c891906138c2906138b790836149c8565b604086015190612fc3565b906134c1565b905060008183604001516138dc91906149c8565b905061396e6139558a6001600160a01b031663bf8e934d6040518163ffffffff1660e01b815260040160206040518083038186803b15801561391d57600080fd5b505afa158015613931573d6000803e3d6000fd5b505050506040513d601f19601f8201168201806040525081019061388991906145f5565b6080850151613964858b6149c8565b611e2891906149c8565b606084018190526139b55760405162461bcd60e51b81526020600482015260116024820152705343522063616e2774206265207a65726f60781b6044820152606401610b19565b64ffffffffff428116610160850152851661018084015260408051635342825360e01b81529051613a709161388991613a58916001600160a01b038e1691635342825391600480820192602092909190829003018186803b158015613a1957600080fd5b505afa158015613a2d573d6000803e3d6000fd5b505050506040513d601f19601f82011682018060405250810190613a5191906145f5565b8990613f0d565b61388386608001518b613a6b91906149c8565b613e8f565b8360c0018181525050613ac3613ab88a6001600160a01b031663d44499a86040518163ffffffff1660e01b815260040160206040518083038186803b15801561391d57600080fd5b60c085015190612fc3565b8360e0018181525050613b8e613b836138896e0612d847b578e7643c28ac00000000866101600151876101800151613afb91906149df565b64ffffffffff168d6001600160a01b0316639d90724d6040518163ffffffff1660e01b815260040160206040518083038186803b158015613b3b57600080fd5b505afa158015613b4f573d6000803e3d6000fd5b505050506040513d601f19601f82011682018060405250810190613b7391906145f5565b613b7d91906149a9565b90613094565b606085015190612fc3565b610120840181905260e084015160c0850151849291613bac9161496f565b613bb6919061496f565b1115613c045760405162461bcd60e51b815260206004820152601960248201527f5072656d69756d206c657373207468616e206d696e696d756d000000000000006044820152606401610b19565b60e083015161012084015160c0850151613c1e858561496f565b613c2891906149c8565b613c3291906149c8565b613c3c91906149c8565b6101008401525090979650505050505050565b600054610100900460ff1680613c68575060005460ff16155b613c845760405162461bcd60e51b8152600401610b199061485a565b600054610100900460ff16158015613ca6576000805461ffff19166101011790555b613cae614046565b613cb6614046565b613cbe614046565b8015610f19576000805461ff001916905550565b600054610100900460ff1680613ceb575060005460ff16155b613d075760405162461bcd60e51b8152600401610b199061485a565b600054610100900460ff16158015613d29576000805461ffff19166101011790555b613d316140b0565b613d3961410e565b613d4282614175565b8015610bf5576000805461ff00191690555050565b600054610100900460ff1680613d70575060005460ff16155b613d8c5760405162461bcd60e51b8152600401610b199061485a565b600054610100900460ff16158015613dae576000805461ffff19166101011790555b8851613dc29061012e9060208c01906142fb565b5061012f889055676765c793fa10079d601b1b61013055610131879055610132869055610133859055610134849055600061013581905561013980546001600160a01b0319166001600160a01b038616179055610136839055610137839055610138819055613e3190336141fd565b613e396121b3565b8015613e4b576000805461ff00191690555b505050505050505050565b60608315613e65575081612153565b825115613e755782518084602001fd5b8160405162461bcd60e51b8152600401610b199190614765565b600080613ea0633b9aca00846149a9565b905082613eb1633b9aca0083614987565b146108df5760405162461bcd60e51b815260206004820152602660248201527f776164546f5261643a204d617468204d756c7469706c69636174696f6e204f766044820152656572666c6f7760d01b6064820152608401610b19565b6000821580613f1a575081155b15613f27575060006108df565b81613f3e6002676765c793fa10079d601b1b614987565b613f4a906000196149c8565b613f549190614987565b831115613faf5760405162461bcd60e51b8152602060048201526024808201527f7261794d756c3a204d617468204d756c7469706c69636174696f6e204f766572604482015263666c6f7760e01b6064820152608401610b19565b676765c793fa10079d601b1b613076600282614987565b600080613fd86002633b9aca00614987565b90506000613fe6848361496f565b9050818110156140385760405162461bcd60e51b815260206004820181905260248201527f726179546f5761643a204d617468204164646974696f6e204f766572666c6f776044820152606401610b19565b61319a633b9aca0082614987565b600054610100900460ff168061405f575060005460ff16155b61407b5760405162461bcd60e51b8152600401610b199061485a565b600054610100900460ff16158015613cbe576000805461ffff19166101011790558015610f19576000805461ff001916905550565b600054610100900460ff16806140c9575060005460ff16155b6140e55760405162461bcd60e51b8152600401610b199061485a565b600054610100900460ff16158015613cae576000805461ffff1916610101179055613cb6614046565b600054610100900460ff1680614127575060005460ff16155b6141435760405162461bcd60e51b8152600401610b199061485a565b600054610100900460ff16158015614165576000805461ffff19166101011790555b61416d614046565b613cbe614207565b600054610100900460ff168061418e575060005460ff16155b6141aa5760405162461bcd60e51b8152600401610b199061485a565b600054610100900460ff161580156141cc576000805461ffff19166101011790555b61012d80546001600160a01b0319166001600160a01b0384161790558015610bf5576000805461ff00191690555050565b610bf582826126c7565b600054610100900460ff1680614220575060005460ff16155b61423c5760405162461bcd60e51b8152600401610b199061485a565b600054610100900460ff1615801561425e576000805461ffff19166101011790555b60fb805460ff191690558015610f19576000805461ff001916905550565b604051806101a001604052806000815260200160008152602001600081526020016000815260200160008152602001600081526020016000815260200160008152602001600081526020016000815260200160006001600160a01b03168152602001600064ffffffffff168152602001600064ffffffffff1681525090565b82805461430790614a6b565b90600052602060002090601f016020900481019282614329576000855561436f565b82601f1061434257805160ff191683800117855561436f565b8280016001018555821561436f579182015b8281111561436f578251825591602001919060010190614354565b5061437b92915061437f565b5090565b5b8082111561437b5760008155600101614380565b600067ffffffffffffffff808411156143af576143af614ae8565b604051601f8501601f19908116603f011681019082821181831017156143d7576143d7614ae8565b816040528093508581528686860111156143f057600080fd5b858560208301376000602087830101525050509392505050565b803561441581614afe565b919050565b60006020828403121561442c57600080fd5b813561215381614afe565b6000806040838503121561444a57600080fd5b823561445581614afe565b9150602083013567ffffffffffffffff81111561447157600080fd5b8301601f8101851361448257600080fd5b61449185823560208401614394565b9150509250929050565b6000602082840312156144ad57600080fd5b815161215381614b13565b6000602082840312156144ca57600080fd5b5035919050565b600080604083850312156144e457600080fd5b8235915060208301356144f681614afe565b809150509250929050565b60006020828403121561451357600080fd5b81356001600160e01b03198116811461215357600080fd5b60006020828403121561453d57600080fd5b815161215381614afe565b60008060008060008060008060006101208a8c03121561456757600080fd5b893567ffffffffffffffff81111561457e57600080fd5b8a01601f81018c1361458f57600080fd5b61459e8c823560208401614394565b9950506145ad60208b0161440a565b975060408a0135965060608a0135955060808a0135945060a08a0135935060c08a013592506145de60e08b0161440a565b91506101008a013590509295985092959850929598565b60006020828403121561460757600080fd5b5051919050565b6000806040838503121561462157600080fd5b8235915060208301356144f681614b13565b6000806040838503121561464657600080fd5b50508035926020909101359150565b600080600080600060a0868803121561466d57600080fd5b853594506020860135935060408601359250606086013564ffffffffff8116811461469757600080fd5b915060808601356146a781614afe565b809150509295509295909350565b600082516146c7818460208701614a28565b9190910192915050565b7f416363657373436f6e74726f6c3a206163636f756e7420000000000000000000815260008351614709816017850160208801614a28565b7001034b99036b4b9b9b4b733903937b6329607d1b601791840191820152835161473a816028840160208801614a28565b01602801949350505050565b92835260208301919091526001600160a01b0316604082015260600190565b6020815260008251806020840152614784816040850160208701614a28565b601f01601f19169190910160400192915050565b6020808252602c908201527f46756e6374696f6e206d7573742062652063616c6c6564207468726f7567682060408201526b19195b1959d85d1958d85b1b60a21b606082015260800190565b6020808252602c908201527f46756e6374696f6e206d7573742062652063616c6c6564207468726f7567682060408201526b6163746976652070726f787960a01b606082015260800190565b60208082526010908201526f14185d5cd8589b194e881c185d5cd95960821b604082015260600190565b6020808252602e908201527f496e697469616c697a61626c653a20636f6e747261637420697320616c72656160408201526d191e481a5b9a5d1a585b1a5e995960921b606082015260800190565b60006101c082019050835182526020840151602083015260408401516040830152606084015160608301526080840151608083015260a084015160a083015260c084015160c083015260e084015160e08301526101008085015181840152506101208085015181840152506101408085015161492e828501826001600160a01b03169052565b50506101608481015164ffffffffff81168483015250506101808481015164ffffffffff81168483015250506001600160a01b0383166101a0830152612153565b6000821982111561498257614982614aa6565b500190565b6000826149a457634e487b7160e01b600052601260045260246000fd5b500490565b60008160001904831182151516156149c3576149c3614aa6565b500290565b6000828210156149da576149da614aa6565b500390565b600064ffffffffff838116908316818110156149fd576149fd614aa6565b039392505050565b600060ff821660ff841680821015614a1f57614a1f614aa6565b90039392505050565b60005b83811015614a43578181015183820152602001614a2b565b83811115611f3c5750506000910152565b600081614a6357614a63614aa6565b506000190190565b600181811c90821680614a7f57607f821691505b60208210811415614aa057634e487b7160e01b600052602260045260246000fd5b50919050565b634e487b7160e01b600052601160045260246000fd5b634e487b7160e01b600052602160045260246000fd5b634e487b7160e01b600052603260045260246000fd5b634e487b7160e01b600052604160045260246000fd5b6001600160a01b0381168114610f1957600080fd5b8015158114610f1957600080fdfebf372ca3ebecfe59ac256f17697941bbe63302aced610e8b0e3646f743c7beb25ec196419322369c6bac572d883f4d990ae5ec82f7d93cdf89b85dbb05b63c27416464726573733a206c6f772d6c6576656c2064656c65676174652063616c6c206661696c6564a82e22387fca439f316d78ca566f383218ab8ae1b3e830178c9c82cbd16749c055435dd261a4b9b3364963f7738a7a662ad9c84396d64be3365284bb7f0a5041a2646970667358221220699d2adc668703f5c2d1b6c19c55ac254b47abd88c46625841f1b1fd7fcd6e6f64736f6c63430008060033",
  "linkReferences": {},
  "deployedLinkReferences": {}
}